:020000040000FA
:1000000041EF0AF01200FFFF04EF10F01200FFFFB3
:10001000FFFFFFFFFFFFFFFF0CEF10F01200FFFFDD
:100020000100BE140000B700000002000000F00E46
:100030008C1695160001636B676968696969666B60
:10004000010E6A6F1200D9CFE6FFE1CFD9FFE65269
:10005000000163511FE1040108BF1BD0400EE66E92
:10006000700EE66E030EE66E9DEC07F0E552E5526B
:10007000E5520001010E636FDF6A400EDF5C09E2AA
:10008000DF50EA6AB00FE96E030EEA22EF6ADF2A58
:10009000F4D781D103017051080A01E16BD10F0A35
:1000A00001E119D1010A01E10ED1030A01E1AAD04F
:1000B000010A6AE0070A5DE0010A01E06CD1030170
:1000C000020EB06F03013A0EB16F0301010EB26F61
:1000D0000301010EB36F0301B46B200EB56FB66B55
:1000E000B76B0301B86B600EB96FBA6BBB6B0301E2
:1000F000030EBC6F0301BD6BBE6B300EBF6FC06BD8
:1001000003010C0EC16FC26BC36BC46B0301010E04
:10011000C56F0301C66BC76B200EC86FC96B0301A7
:10012000080ECA6FCB6BCC6BCD6B0301CE6903019C
:10013000020ECE6F0301CF6BD06BF00ED16FD26B7E
:100140000301D36B010ED46FD56BD66B0301D76956
:1001500004010CBF0DD0400EE66EB00EE66E030E2D
:10016000E66E63EC07F0E552E552E5520001636B81
:1001700012D10001010E6A6F0301715102E1000109
:100180006A6B0001636B07D1800E0001646F656BC1
:100190000001000E645D020E65591FE2040064C098
:1001A00000F065C001F0026A060E1F0B00C0F6FFEA
:1001B00001C0F7FF02C0F8FF06E0D890F636F73628
:1001C000F836E806FAE1940EA66E9ED992EC08F095
:1001D0000001642B000E6523DBD7DF6ADF50A96EB8
:1001E000A868040EA66E92EC08F08ED9DF2AF6E11C
:1001F000F66AF76A200EF86E940EA66E85D9000195
:10020000636BC9D0300E0301735D07E100016A51D1
:1002100001E130D90001636BBED0F00E0301735DC4
:1002200004E150D90001636BB6D0E868000167199A
:1002300005E1E868681902E1E868691906E171C337
:1002400067F072C368F073C369F0670EE96E000E61
:10025000EA6EEE500301711908E1EE5003017219C4
:1002600004E1EE500301731900E12AE1DF6A0301A2
:100270007551DF5C25E23A0E0301D8807555DF2405
:10028000EA6A760FE96E030EEA22EF50E66E00018D
:100290006651EA6A6B0FE96E000EEA22E552E750FA
:1002A000EF6E0001662B0001672B000E6823000E25
:1002B0006923200E0001665D01E172D8DF2AD7D7DD
:1002C0000001636B68D06CD800016769686969696F
:1002D0000001636B60D00301070EB06F71C3B1F30F
:1002E00072C3B2F373C3B3F374C3B4F375C3B5F39A
:1002F00071C3F6FF72C3F7FF73C3F8FFDF6A030130
:100300007551DF5C26E2F00E0301735D13E1DF50EF
:1003100003017125A96EA66AA6803A0E0301D88052
:100320007555DF24EA6AB60FE96E030EEA22A8CFFC
:10033000EFFF0DD009003A0E0301D8807555DF2478
:10034000EA6AB60FE96E030EEA22F5CFEFFFDF2A65
:10035000D6D704010CBF0DD0400EE66EB00EE66E8F
:10036000030EE66E63EC07F0E552E552E55200013C
:10037000636B11D06D926D6ADF6AFF0EDF5C09E27C
:10038000E868E85004E0E80600D000D0FAD7DF2A99
:10039000F4D7FF0000D0E552E552E7CFD9FF1200B5
:1003A000D9CFE6FFE1CFD9FF030EE126010EDB6ACC
:1003B00066C000F0016A026A00500001675DF66ED7
:1003C000015000016859F76E025000016959F86E3A
:1003D0001F0EF614E76E020EE7CFDBFFE00EF616F7
:1003E000DF6A200EDF5C1EE2020EDB5015E1000129
:1003F00066510FE0010EDB50EA6A6B0FE96E000EEA
:10040000EA22EF50F56E0D00010EDB2A00016607AF
:1004100002D0F5680D0004D0F5680D00020EDB0671
:10042000DF2ADFD70A00A40EA66E6ED8DF6A0001AD
:100430006651DF5C15E2010EDB50DF24EA6A6B0FC8
:10044000E96E000EEA22EF50E66EDF50EA6A6B0FAB
:10045000E96E000EEA22E552E750EF6EDF2AE7D799
:10046000030EE15C02E2E16AE552E16EE552E7CF9C
:10047000D9FF1200D9CFE6FFE1CFD9FFE65271C311
:10048000F6FF72C3F7FF73C3F8FFDF6A030175510C
:10049000DF5C13E23A0E0301D8807555DF24EA6A67
:1004A000760FE96E030EEA22EF50F56E0C00C40ED3
:1004B000A66E2AD80900DF2AE9D7E552E552E7CF30
:1004C000D9FF1200D9CFE6FFE1CFD9FFE652DF6AAC
:1004D00003017551DF5C13E2DF507125A96E3A0EFE
:1004E000D8807555DF24EA6A760FE96E030EEA229A
:1004F000EF50A86E040EA66E07D8DF2AE9D7E552A2
:10050000E552E7CFD9FF1200F29E550EA76EAA0E54
:10051000A76EA682A6B2FED7A69412006C500CE17C
:100520006896040100513C0BE842E8420D0802E1E4
:100530000AD8010C41D8010C040E6C5C03E16896EA
:100540004AD8010C000CD9CFE6FFE1CFD9FFE65223
:10055000040104BF046B0001B36BAB6BAC6BB16BFC
:10056000B26B54EC04F0DF6ADF50006E016A010EDA
:10057000005C000E01581AE20001AC5117E1F76A65
:10058000DF34FE0BF736F66EDC0EF626120EF7227F
:100590000900F5CF00F00800F5CF01F004D001C04C
:1005A000FAFF0050F96EFBDFDF2ADED7E8D8E5520C
:1005B000E552E7CFD9FF1200020E0001AB5D09E161
:1005C000A1D8040100BD02D0C80E01D0880E006F72
:1005D000120004EF04F0040E0301FA5D09E112C4F5
:1005E0006EFF6E50000802E2050E01D0030EFA6F96
:1005F0000001AB0510E111D8020E0001B35D03E16B
:100600000401840E06D0040104BD02D0C80E01D03E
:10061000880E046F120004EF04F0D9CFE6FFE1CF9B
:10062000D9FF020EE1260001080EB15D000EB2599D
:100630000DE2B1C0DEFFB2C0DDFFB35102E1010E39
:1006400003D0B30506E1020EB36F03D0080EDE6ED1
:10065000DD6A040104930491010EDB500413DFCF23
:1006600005F4000EDB500001B15F010EDB50B25B00
:10067000180EAF6F040EB06F0301FBA31DD0D9CFCE
:10068000E9FFDACFEAFFEE50ED1032E0ADC0F6FF41
:10069000AEC0F7FF0800F550AFC0E9FFB0C0EAFFF9
:1006A000EF6E0001AF2B000EB023AD2BAE23DF06A3
:1006B000010EE5E2DB06E3D7D9CFE9FFDACFEAFFA7
:1006C000EE50ED1015E0ADC0E9FFAEC0EAFFEF500F
:1006D000AFC0E9FFB0C0EAFFEF6E0001AF2B000E24
:1006E000B023AD2BAE23DF06010EE6E2DB06E4D736
:1006F000020EE15C02E2E16AE552E16EE552E7CF0B
:10070000D9FF1200D9CFE6FFE1CFD9FF020EE126D3
:10071000030E04010015E76E010EE7CFDBFF01C4F5
:10072000DFFFDE500001B127DD50B223180EAD6FA0
:10073000040EAE6FD9CFE9FFDACFEAFFEE50ED102D
:1007400014E0ADC0E9FFAEC0EAFFEF50AFC0E9FF73
:10075000B0C0EAFFEF6EAF2B000EB023AD2BAE237F
:10076000DF06010EE7E2DB06E5D7020EE15C02E2FE
:10077000E16AE552E16EE552E7CFD9FF12006D98CC
:100780000001AC510BE10401080E016F100E026F65
:10079000040E036F840E006F040123D0040110AF18
:1007A00022D00001B1510401165D0001B2510401D3
:1007B000175904E216C4B1F017C4B2F02EDF0001DD
:1007C000010EAB6F0401080E016F100E026F040ED4
:1007D000036F800E006F0401180E066F040E076F82
:1007E000C80E046F12000001020EAB6F0401056B0E
:1007F000C80E046F0401080E016F180E026F040E7C
:10080000036FC80E006F1200D9CFE6FFE1CFD9FF0A
:10081000E652020E0001AB5D35E16D50100B32E087
:1008200004010151006E016A080E00182BE101500D
:1008300029E100513C0BE842E8420D0823E1005158
:10084000800B20E1100E026F040E036FDF6ADF5091
:10085000006E016A080E005C000E015820E2DF50B5
:10086000EA6A180FE96E040EEA22EF50E66EDF50D6
:10087000EA6A100FE96E040EEA22E552E750EF6EC5
:10088000DF2AE5D70001AB6B0401080E016F100EE3
:10089000026F040E036F8C0E006F0401046BE552AF
:1008A000E552E7CFD9FF120004011051600BE84276
:1008B000E842E842E842E842000901E01200115132
:1008C000070A4CE00B0A4AE0070A3BE0010A27E06E
:1008D0000B0A23E0020A21E0030A1DE0080A12E0E5
:1008E000010A0EE00F0A0AE0030A01E0120000010B
:1008F000010EAC6F0301040EFA6F1200AFEF04F0AB
:1009000006EF05F00001010EAC6F0001FC0EAD6FAB
:10091000030EAE6F10D02DEF05F078EF05F000015B
:10092000010EAC6F040114510001AD6FAE6BFD0EF2
:10093000AD27030EAE230301FB930001010EB16F3F
:1009400012000001010EAC6F04011451EA6AFD0FA0
:10095000E96E030EEA2212C4EFFF12001200800EAD
:100960000401105D52E11351030A30E0010A0CE06A
:10097000030A49E10001010EAC6F00011C0EAD6FCE
:10098000120EAE6F120E3CD00001010EAC6F0401CE
:100990001251F66EF76AD890F636F736D20EF62672
:1009A000120EF7220900F5CFADF00A00F5CFAEF038
:1009B000020E0001F76AAD25F66EAE51F72209006E
:1009C000F5CFB1F00A00F5CFB2F01DD00001010E55
:1009D000AC6F04011251F66EF76AD890F636F7360E
:1009E000D60EF626120EF7220900F5CFADF00A005A
:1009F000F5CFAEF0ADC0F6FFAEC0F7FF0800F55082
:100A00000001B16FB26B0301FB8312000001010E04
:100A1000AC6F0F0EE66E710EE66E0F0EE66EF9EC21
:100A200008F0E552E552E552010EE66EFD0EE66E67
:100A3000030EE66EF9EC08F0E552E552E55212C4F9
:100A4000FCF30401125104E10301050EFA6F1200D8
:100A50000301060EFA6F4EEF07F00401186B196BD5
:100A6000040110511F0B020A13E0030A0DE0010AF2
:100A700031E10001010EAC6F040118810301FBA1FB
:100A800029D00401188326D00001010EAC6F22D0BA
:100A90000001010EAC6F040114510F0B080DF3504F
:100AA000016A000F006E040E01221451800B01E058
:100AB000010E040DF35000010024AF6F000E012061
:100AC000B06FAFC0E9FFEA6EEF50040B03E0040122
:100AD000010E186F0001AC050AE10001180EAD6FA0
:100AE000040EAE6F0301FB930001020EB16F120002
:100AF0000401120510E110511F0B00090CE1000167
:100B0000010EAC6F030E0401115D03E10301FB81D3
:100B100002D00301FB910401125136E110511F0B69
:100B2000020832E114510F0B00092EE00001010E02
:100B3000AC6F040114510F0B080DF350016A000F44
:100B4000006E040E01221451800B01E0010E040D11
:100B5000F35000010024AF6F000E0120B06F030EB0
:100B60000401115D02E1840E03D014AF07D0400EE2
:100B7000AFC0E9FFB0C0EAFFEF6E1200880EAFC051
:100B8000E9FFB0C0EAFFEF6E120094900A0EC16E4A
:100B9000190EE66E31EC0AF0E552836A9568966AA2
:100BA000849084928494120EE66E1AEC0AF0E55258
:100BB000956A300EE66E1ED8E552300EE66E1AD8F3
:100BC000E552300EE66E16D8E552380EE66E12D8B3
:100BD000E552060EE66E0ED8E552180EE66E0AD8FD
:100BE000E5520C0EE66E06D8E5520301FF6BFFC31B
:100BF000FEF31200D9CFE6FFE1CFD9FFE6528350D2
:100C0000DF6E8490FE0EDB50836E84848494010E2C
:100C1000E66E31EC0AF0E552DF50836EE552E552A4
:100C2000E7CFD9FF1200D9CFE6FFE1CFD9FF020EFF
:100C3000E1268350DE6EDD6A0301FF510F0808E2F2
:100C4000FE5102E0A9D804D0010EE66E62D8E5524A
:100C50008480FE0EDB50836E84848494010EE66EE5
:100C600031EC0AF0E552DF50836E0301FF2B020ED8
:100C7000E15C02E2E16AE552E16EE552E7CFD9FFBD
:100C80001200D9CFE6FFE1CFD9FFFC0EDBCFF6FF94
:100C9000FD0EDBCFF7FFFE0EDBCFF8FF0800F550AF
:100CA00016E0D950FC0FE96EFF0EDA20EA6EEFCFA6
:100CB000F6FFEE2AEFCFF7FF000EEE22EFCFF8FFA0
:100CC000EE220800F550E66EAEDFE552DED7E552C3
:100CD000E7CFD9FF1200D9CFE6FFE1CFD9FFFD0E54
:100CE000DBCFE9FFFE0EDBCFEAFFEF500EE0FD0E9B
:100CF000DBCFE9FFDB2AFE0EDBCFEAFF01E3DB2AD5
:100D0000EF50E66E90DFE552EAD7E552E7CFD9FF24
:100D10001200D9CFE6FFE1CFD9FFFE0EDBCFFEF305
:100D20000301FF6BFE5102E0A80E01D0800EE66EBB
:100D300061DFE552190EE66E31EC0AF0E552E5523C
:100D4000E7CFD9FF1200D9CFE6FFE1CFD9FF060EDA
:100D5000E126D9CFE6FFDACFE6FFFD0EDBCFE6FFD7
:100D6000FE0EDBCFE6FFDCEC07F0E552E552E55284
:100D7000E552050EDB6AD9CFE6FFDACFE6FFABDF3F
:100D8000E552E552060EE15C02E2E16AE552E16EEF
:100D9000E552E7CFD9FF1200010EE66E2BDFE552D8
:100DA000190EE66E31EC0AF0E552E66AB2DFE55262
:100DB0001200040110511F0B010801E01200145130
:100DC00001E01200060E115D28E11351230A23E011
:100DD000010A0FE0030A1FE10001020EAC6F0301DC
:100DE000FC0505E10001400EAD6F120EAE6F090E5D
:100DF0000FD00001020EAC6F0301FC0505E10001FC
:100E0000B50EAD6F120EAE6F0301FC0504E11D0EB1
:100E10000001B16FB26B0301FB8304011051600B41
:100E2000E842E842E842E842E842010801E01200F4
:100E300011510B0A2BE0080A1BE0090A13E0080A0B
:100E400009E00B0A05E0080A01E012004CEF07F088
:100E50004DEF07F00001020EAC6F0001B40EAD6F54
:100E6000000E0DD00001020EAC6F13C4B4F01200DE
:100E70000001020EAC6F0001B50EAD6F000EAE6F3B
:100E80000301FB930001010EB16F12000001020E7D
:100E9000AC6F12C4B5F01200120012000001B66B64
:100EA0001E0E716E0401400E096F200E0A6F040EB3
:100EB0000B6F880E086F0401600E0E6F040E0F6F2B
:100EC000400E0C6F1200D9CFE6FFE1CFD9FFE652FA
:100ED000FC0EDB50400805E2400EF36EFC0EF3CF33
:100EE000DBFFDF6AFC0EDB50DF5C19E2DF50E76EF0
:100EF000FD0EDBCFE9FFFE0EDBCFEAFFE750E92670
:100F0000000EEA22EF50E66EDF50EA6A600FE96EEB
:100F1000040EEA22E552E750EF6EDF2AE3D7FC0E1B
:100F2000DBCF0DF4400E04010C170C7D880E0C1362
:100F3000E552E552E7CFD9FF1200D9CFE6FFE1CF66
:100F4000D9FF0001B66B040108BF30D0FC0EDBCF27
:100F500000F00951D880005403E2FC0E09C4DBFF05
:100F60000001B66BFC0EDB50B65D19E2B651EA6AC1
:100F7000200FE96E040EEA22EF50E66EB651E76EDE
:100F8000FD0EDBCFE9FFFE0EDBCFEAFFE750E926DF
:100F9000000EEA22E552E750EF6EB62BE3D70401CC
:100FA000400E096F0817087D880E08130001B6511E
:100FB000E552E7CFD9FF1200D9CFE6FFDACFE6FF3F
:100FC000FA0EE3CFD9FFFB0EE3CFDAFFFD0EE352BB
:100FD00009E72D0EDE6EFC0EE31EE32AFD0ED8B4EB
:100FE000E306E31EE652E652E652FD0EE124E76E0A
:100FF000FF0EE220E46EE652F70EE3CFE6FFF70EB7
:10100000E3CFE6FF4CEC08F0F90EE124E96EFF0EA9
:10101000E220EA6E3CEC08F00AE139EC08F009E164
:101020003CEC08F008E139EC08F007E108D047ECA7
:1010300008F042EC08F047EC08F042EC08F047EC0E
:1010400008F0DE6AF90EE126FF0EE222FF0EE3CF82
:10105000DAFFE552FF0EE3CFD9FFE552FC0EE124A3
:10106000E96EFF0EE220EA6EEECFF3FFEFCFF4FF62
:101070001200EF380F0B1200EF500F0B02E1EE528F
:10108000D8841200EF380F0B300FDE6E1200EE50D6
:101090000F0B300FDE6E1200FC0EE3CFE9FFFD0EEA
:1010A000E3CFEAFF100EE66EEE6AEE6AEF6AD890C2
:1010B000FD0EE336FE0EE336ED36ED36EF36FF0E6F
:1010C000E30609E06DEC08F0EE526DEC08F0EE522C
:1010D0006DEC08F0EDD7E56E1200030EEF24E8B6D4
:1010E000EF6E300EEF24E8BEEF6E000C6DA60CD84C
:1010F0000301FA0508E16DBA06D0686A696A698079
:101100006988020EFA6F12006D6A696A6D860301C2
:10111000010EFA6F12006D6A696A0301FA6B120020
:101120008BEF08F00301FA5101E1120068B425D8F1
:101130006DB2120068B038D868B817D868BA24D829
:10114000030E0301FA5D01E212000001B96B040E07
:10115000B95D0AE268A608D08EEC02F0000901E150
:1011600068960001B92BF3D71200698468986D82E4
:10117000A19AA08A0300A09A12006D92699468A4B3
:1011800002D06894FCD7120070A00CD0800E04012D
:10119000005D07E1840E0401045D03E104018C0E8F
:1011A000006F7090689A12006A6A686A9F0E6B6E90
:1011B0007B0E696E6E6A0F0EE66E710EE66E0F0E96
:1011C000E66E17D8E552E552E552160E706E68A627
:1011D00005D0689600D000D00000F9D76D9804ECD7
:1011E00004F00301FB910301FC6B0301030EFA6F92
:1011F0001200D9CFE6FFE1CFD9FFFD0EDBCFE9FF2B
:10120000FE0EDBCFEAFFFC0EDB5004E0EE6AFC0EC4
:10121000DB06F9D7E552E7CFD9FF12001201000231
:1012200000000008D8043C0002000102000109028D
:101230002900010100C0320904000002030000007F
:10124000092111010001221D000705810340000151
:10125000070501034000010403090434034D00693C
:1012600000630072006F0063006800690070002076
:101270000054006500630068006E006F006C006F32
:101280000067007900200049006E0063002E0026F0
:10129000034800490044002000550053004200204C
:1012A0000042006F006F0074006C006F006100640A
:1012B00000650072000600FF0901A1011901294023
:1012C000150026FF007508954081021901294091FB
:1012D00002C02E122E1257125B128F12B20D0F0E79
:1012E000C16E9368F19EC5EC05F08290CCEC06F0DF
:1012F00081A404D0070EC16E00EF10F08280CCEC08
:1013000006F09E0E006E140E016E026A00C0E6FF2B
:1013100001C0E6FF02C0E6FF41EC06F0E552E552EF
:10132000E5520ED8040016D819D8060E0301FA5D4E
:1013300005E16D50020B02E123EC00F0F3D712003F
:10134000140E6F6E0301FA6B0301FB6B0301FC6B60
:1013500017EF00F076EC08F092EF08F00001B751BB
:10136000B81104E1100EB76F270EB86FB707000E63
:10137000B85B060E0301FA5D02E28C8008D0000122
:10138000B751B81107E18C708C50010B02E08C92C0
:1013900012008C821200200EF66E000EF76E000E08
:1013A000F86E03010900F550F56F0900F550F66F6E
:1013B00003E1F56701D03DD00900F550F06F090059
:1013C000F550F16F0900F550F26F09000900F55072
:1013D000E96E0900F550EA6E090009000900F550B0
:1013E000F36F0900F550F46F09000900F6CFF7F329
:1013F000F7CFF8F3F8CFF9F3F0C3F6FFF1C3F7FF37
:10140000F2C3F8FF0301F35302E1F45307E00900CC
:10141000F550EE6EF307F8E2F407F9D7F7C3F6FFDD
:10142000F8C3F7FFF9C3F8FF0301F507000EF65BF9
:10143000BFD71200FF0EE350066EEF0E01D0F30E81
:10144000E76EE72E21EF0AF00C0E056EE76AE72E35
:1014500027EF0AF0052E26EF0AF0062E1FEF0AF0FE
:101460001200FF0EE350066E480E01D04C0EE76EE0
:10147000E72EFED7E76AE72EFED7062EF7D7000045
:10148000120013EE00F023EE00F0F86A049CCBEC9F
:1014900009F05EEC0AF06FEC09F0FBD71200426F26
:1014A0006F746C6F61646572206D6F64650000EE2F
:1014B00000F00F0EEE6AEA62FDD712001200000083
:1014C000FFFFFFFFFFFFFFFFFFFFFFFFFFFFFFFF2C
:1014D000FFFFFFFFFFFFFFFFFFFFFFFFFFFFFFFF1C
:1014E000FFFFFFFFFFFFFFFFFFFFFFFFFFFFFFFF0C
:1014F000FFFFFFFFFFFFFFFFFFFFFFFFFFFFFFFFFC
:10200000C0EF1AF01200FFFF1200FFFFFFFFFFFFFB
:10201000FFFFFFFFFFFFFFFF1200FFFFFFFFFFFFBC
:10202000FFFFFFFFFFFFFFFFFFFF000094900A0E7E
:10203000C16E050EE66EE66A34EC16F0E552E55226
:10204000836A9568969096929694849084928494EC
:102050000F0EE66EE66A34EC16F0E552E552956A2C
:10206000300EE66E2FD8E552300EE66E2BD8E552D4
:10207000300EE66E27D8E552380EE66E23D8E552CC
:10208000060EE66E1FD8E552180EE66E1BD8E55216
:102090000C0EE66E17D8E55200018D6B8DC08CF0EA
:1020A0001200010EE66E0ED8E552020EE66EE66AEA
:1020B00034EC16F0E552E552E66AE66A34D8E552A9
:1020C000E5521200D9CFE6FFDACFE6FFE1CFD9FF24
:1020D000E2CFDAFFE652E6528350DF6E84928490BC
:1020E00084848350DF6EFD0EDB50836E8494DF505A
:1020F000836EDE522D0EDD6E010EDB520CE0DB0630
:10210000010EDB5208E000000000000000000000AB
:102110000000DB06F5D7E552E552E552E5CFDAFFE0
:10212000E7CFD9FF1200D9CFE6FFDACFE6FFE1CF44
:10213000D9FFE2CFDAFFE652E652FD0EDB5001088E
:1021400005E2010EF36EFD0EF3CFDBFFFC0EDB505C
:102150000F0805E20F0EF36EFC0EF3CFDBFFFD0E52
:10216000DBCF8CF0FC0EDBCF8DF0FD0EDB0403E14A
:10217000C00EDF6E02D0800EDF6EFC0EDB98DB9AA5
:10218000DB9CDB9EFC0EDB50DF12DFCFE6FF9ADF2D
:10219000E552DE522D0EDD6E010EDB520CE0DB0649
:1021A000010EDB5208E0000000000000000000000B
:1021B0000000DB06F5D7E552E552E552E5CFDAFF40
:1021C000E7CFD9FF1200D9CFE6FFDACFE6FFE1CFA4
:1021D000D9FFE2CFDAFFE652E652E6528350DE6ED6
:1021E000DD6A00018D510F080BE200018C5102E005
:1021F00058DF06D0E66A010EE66E95DFE552E5523D
:102200008492848084848350DE6EDD6AFD0EDB5010
:10221000836E8494DF50836E2D0EF36E020EF3CF27
:10222000DBFF020EDB520CE0DB06020EDB5208E0A5
:10223000000000000000000000000000DB06F5D7F1
:1022400000018D2BE552E552E552E552E5CFDAFF6C
:10225000E7CFD9FF1200D9CFE6FFDACFE6FFE1CF13
:10226000D9FFE2CFDAFFE652FB0EDBCFE6FFFC0E32
:10227000DBCFE6FF58DFE552E552FD0EDBCFE6FF90
:10228000A2DFE552E552E552E5CFDAFFE7CFD9FF0D
:102290001200D9CFE6FFDACFE6FFE1CFD9FFE2CFD8
:1022A000DAFFFB0EDBCFF6FFFC0EDBCFF7FFFD0EF8
:1022B000DBCFF8FF0800F55016E0D950FB0FE96EB0
:1022C000FF0EDA20EA6EEFCFF6FFEE2AEFCFF7FF30
:1022D000000EEE22EFCFF8FFEE220800F550E66E7A
:1022E00072DFE552DED7E552E5CFDAFFE7CFD9FF5F
:1022F0001200D9CFE6FFDACFE6FFE1CFD9FFE2CF78
:10230000DAFFFA0EDBCFE6FFFB0EDBCFE6FF0BDFDB
:10231000E552E552FC0EDBCF00F0FD0EDBCF01F005
:10232000026A00C0E6FF01C0E6FF02C0E6FFB1DFBF
:10233000E552E552E552E552E5CFDAFFE7CFD9FFA6
:102340001200D9CFE6FFDACFE6FFE1CFD9FFE2CF27
:10235000DAFFFC0EDBCFE9FFFD0EDBCFEAFFEF502B
:102360000EE0FC0EDBCFE9FFDB2AFD0EDBCFEAFF40
:1023700001E3DB2AEF50E66E26DFE552EAD7E552AD
:10238000E5CFDAFFE7CFD9FF1200D9CFE6FFDACFEA
:10239000E6FFE1CFD9FFE2CFDAFF070EE12402E347
:1023A000E168E652E16ED9CFE6FFDACFE6FFFC0E38
:1023B000DBCFE6FFFD0EDBCFE6FFB6EC17F0E55214
:1023C000E552E552E552060EDB6AD9CFE6FFDACFD9
:1023D000E6FFB7DFE552E552070EE15C02E2E16A93
:1023E000E552E16EE552E5CFDAFFE7CFD9FF120003
:1023F000D9CFE6FFDACFE6FFE1CFD9FFE2CFDAFFB0
:10240000FA0EDBCFE6FFFB0EDBCFE6FF8CDEE552FC
:10241000E552FC0EDBCFE6FFFD0EDBCFE6FFB5DFBE
:10242000E552E552E552E5CFDAFFE7CFD9FF1200DA
:102430009EA03FD0000170510CE1000E6815FF0E08
:102440006915E850CF6E6851CE6E8A888A9A010E5F
:102450001ED070050DE1000E6C15FF0E6D15016AA2
:10246000E850CF6E6C51CE6E8A988A9A020E0FD0C9
:10247000020E705D0EE1000E6A15FF0E6B15016A0B
:10248000E850CF6E6A51CE6E8A988A8A030E706FBA
:102490000FD0030E705D0CE1000E6E15FF0E6F1570
:1024A000016AE850CF6E6E51CE6E8A988A9A706B30
:1024B0009E90120023EC14F0300EE66E240EE66EB1
:1024C000000EE66E46EC14F0E552E552E5529E90A1
:1024D000D08ED09C310ECD6EF28E9F809D80939ACF
:1024E0009398956A8A9A8A98790EE66E0D0EE66E32
:1024F000E70EE66E030EE66E010EE66E2BD8006E5A
:10250000050EE15C02E2E16AE552E16E0050790EEF
:10251000E66E0D0EE66EE70EE66E030EE66E020E3A
:10252000E66E18D8006E050EE15C02E2E16AE55243
:10253000E16E0050E66A010EE66E3ED8E552E552C5
:10254000E66A020EE66E38D8E552E5520001706B7D
:1025500018EF12F0D9CFE6FFDACFE6FFE1CFD9FFCF
:10256000E2CFDAFFF29EFD0EDB04E96EEA6AD89054
:10257000E936EA36600EE926000EEA22FB0EDBCFD2
:10258000EEFFFC0EDBCFEDFFFD0EDB04E96EEA6A29
:10259000D890E936EA36640EE926000EEA22F90EF2
:1025A000DBCFEEFFFA0EDBCFEDFFF28EE552E5CF8B
:1025B000DAFFE7CFD9FF1200D9CFE6FFDACFE6FF87
:1025C000E1CFD9FFE2CFDAFFE652E652F29EFD0EEE
:1025D000DB04E96EEA6AD890E936EA36600EE9264D
:1025E000000EEA22EECF00F0EFCF01F0026A036A9C
:1025F000FD0EDB04E96EEA6AD890E936EA36640E2D
:10260000E926000EEA22EECF10F0EFCF11F0FD0E1A
:10261000DB04E96EEA6AD890E936EA36600EE9260C
:10262000000EEA22EE50105C0C6EEE5011580D6E4A
:102630000E6A0F6AFC0EDBCF08F0096A0A6A0B6AA1
:1026400008C018F009C019F00AC01AF00BC01BF03E
:102650000CC01DF00DC01EF00EC01FF00FC020F00A
:1026600098EC19F014C004F015C005F016C006F07F
:1026700017C007F0080ED890073206320532043230
:10268000E806F9E104500026055001220650022216
:102690000750032200C0DEFF01C0DDFFDECF00F0E7
:1026A000DDCF01F0FF0ED88000560156FD0EDB0491
:1026B000E96EEA6AD890E936EA36680EE926000E35
:1026C000EA2200C0EEFF01C0EDFFDECF00F0DDCF5B
:1026D00001F0980ED88000563A0E0156FF0ED880B1
:1026E00000560156FD0EDB04E96EEA6AD890E93621
:1026F000EA366C0EE926000EEA2200C0EEFF01C0A9
:10270000EDFFF28EE552E552E552E5CFDAFFE7CF75
:10271000D9FF1200E9CFE4FFEACFE4FFF6CFE4FFF0
:10272000F7CFE4FFF8CFE4FFF5CFE4FFF3CFE4FF0A
:10273000F4CFE4FFFACFE4FFFBCFE4FF00EE12F0AA
:10274000100EE80403E3EECFE4FFFBD700EE00F049
:10275000120EE80403E3EECFE4FFFBD7E652D9CF35
:10276000E6FFDACFE6FFE1CFD9FFE2CFDAFFE652AC
:10277000DF6A050EDF5C2EE2DF50030DF3CFE9FFC9
:10278000F4CFEAFF710EE926000EEA22EECF22F026
:10279000EECF23F0EFCF24F022502310241018E0C6
:1027A000DF50030DF3CFE9FFF4CFEAFF710EE92606
:1027B000000EEA22EECF22F0EECF23F0EFCF24F08E
:1027C00006D024C0FBFF23C0FAFF2250F96EF9DFC8
:1027D000DF2ACFD7E552E552E5CFDAFFE7CFD9FFC1
:1027E000E55200EE11F0120EE80403E3E5CFEDFF31
:1027F000FBD700EE21F0100EE80403E3E5CFEDFF78
:10280000FBD7E5CFFBFFE5CFFAFFE5CFF4FFE5CF40
:10281000F3FFE5CFF5FFE5CFF8FFE5CFF7FFE5CF15
:10282000F6FFE5CFEAFFE5CFE9FF1100D8CFE4FFDF
:10283000E0CFE4FFE46EE652E552E550E5CFE0FF7D
:10284000E5CFD8FF1000D9CFE6FFDACFE6FFE1CF22
:10285000D9FFE2CFDAFFE652DF6A050EDF5C0FE256
:10286000DF50030DF3CFE9FFF4CFEAFF710EE92645
:10287000000EEA22EE6AEE6AEE6ADF2AEED7E55231
:10288000E552E5CFDAFFE7CFD9FF1200D9CFE6FF57
:10289000DACFE6FFE1CFD9FFE2CFDAFFE652DF6A17
:1028A000DF50030DF3CFE9FFF4CFEAFF710EE92605
:1028B000000EEA22EECF00F0EECF01F0EFCF02F0F3
:1028C00000500110021002E0DF2AEAD7DF50030DAA
:1028D000F3CFE9FFF4CFEAFF710EE926000EEA22FA
:1028E000FB0EDBCFEEFFFC0EDBCFEEFFFD0EDBCFF2
:1028F000EEFFE552E552E5CFDAFFE7CFD9FF120050
:10290000D9CFE6FFDACFE6FFE1CFD9FFE2CFDAFF9A
:10291000E652DF6AFB0EDBCF00F0FC0EDBCF01F0EE
:10292000FD0EDBCF02F0DF50030DF3CFE9FFF4CF54
:10293000EAFF710EE926000EEA22EE50001805E1CA
:10294000EE50011802E1EE50021802E0DF2AE2D751
:10295000DF50030DF3CFE9FFF4CFEAFF710EE92654
:10296000000EEA22EE6AEE6AEE6AE552E552E5CF23
:10297000DAFFE7CFD9FF1200D9CFE6FFE1CFD9FFC9
:10298000020EE126CEEC1AF016EC10F050EC18F026
:102990005AEC12F0DBEC16F04D0EE66EE66A2C0EE9
:1029A000E66E18EC19F0E552E552E55251EC10F0E4
:1029B0006F0E006E350E016E026A00C0E6FF01C0A8
:1029C000E6FF02C0E6FF49EC11F0E552E552E552A0
:1029D0005E0E006E350E016E026A00C0E6FF01C099
:1029E000E6FF02C0E6FF49EC11F0E552E552E55280
:1029F0008280010E836EDF6A070EDF5C0BE2839E2E
:102A00008346320EE66EE66A34EC16F0E552E55285
:102A1000DF2AF2D7DF6A070EDF5C0BE28390834286
:102A2000320EE66EE66A34EC16F0E552E552DF2A25
:102A3000F2D7DF6A070EDF5C0CE2839E8346838059
:102A4000320EE66EE66A34EC16F0E552E552DF2A05
:102A5000F1D7C80EE66EE66A34EC16F0E552E552A0
:102A6000836AE668030EE66EF9EC16F0E552E5526D
:102A7000F40EE66E010EE66E34EC16F0E552E55209
:102A8000010EE66EFC0EE66EF9EC16F0E552E5522C
:102A9000F40EE66E010EE66E34EC16F0E552E552E9
:102AA000000EE66EE66AF9EC16F0E552E552E668CD
:102AB000030EE66E4FEC17F0E552E552F40EE66EAB
:102AC000010EE66E34EC16F0E552E552010EE66EAC
:102AD000FC0EE66E4FEC17F0E552E552F40EE66E92
:102AE000010EE66E34EC16F0E552E552000EE66E8D
:102AF000E66A4FEC17F0E552E552E66A010EE66E23
:102B0000DCEC12F0E552E552E66A020EE66EDCEC11
:102B100012F0E552E552F40EE66E010EE66E34EC6C
:102B200016F0E552E552E668010EE66EDCEC12F0B6
:102B3000E552E552E668020EE66EDCEC12F0E55274
:102B4000E552F40EE66E010EE66E34EC16F0E55238
:102B5000E552E66A010EE66EDCEC12F0E552E55253
:102B6000E66A020EE66EDCEC12F0E552E552836A8C
:102B700081B4FED781B8FED781B2FED781BAFED725
:102B800081B0FED78368FFD7020EE15C02E2E16A02
:102B9000E552E16EE552E7CFD9FF1200D9CFE6FF4B
:102BA000DACFE6FFE1CFD9FFE2CFDAFFE652E65215
:102BB000E652E652D950FC0FE96EFF0EDA20EA6EBB
:102BC000EE50ED1045E05F0EF36E020EF3CFDBFF2B
:102BD000020EDB520CE0DB06020EDB5208E00000C6
:102BE00000000000000000000000DB06F5D7010E29
:102BF000DE6EDD6ADECF00F0DDCF01F0FC0EDBCF54
:102C000002F0FD0EDBCF03F001500318E8AE02D056
:102C1000033404D00250005C0350015819E2620EE4
:102C2000F36E030EF3CFDBFF030EDB520CE0DB068B
:102C3000030EDB5208E0000000000000000000006E
:102C40000000DB06F5D7DF2A010E01E3DB2AD2D72D
:102C5000040EE15C02E2E16AE552E16EE552E5CF85
:102C6000DAFFE7CFD9FF1200D9CFE6FFDACFE6FFD0
:102C7000E1CFD9FFE2CFDAFFE652E652E652E65262
:102C8000D950FC0FE96EFF0EDA20EA6EEE50ED101F
:102C900051E05E0EF36E020EF3CFDBFF020EDB524D
:102CA0000CE0DB06020EDB5208E000000000000032
:102CB000000000000000DB06F5D7090EE66EE66AAC
:102CC0006DDFE552E552010EDE6EDD6ADECF00F00B
:102CD000DDCF01F0FC0EDBCF02F0FD0EDBCF03F009
:102CE00001500318E8AE02D0033404D00250005C57
:102CF000035001581FE2600EF36E030EF3CFDBFFAB
:102D0000030EDB520CE0DB06030EDB5208E0000092
:102D100000000000000000000000DB06F5D7090EEF
:102D2000E66EE66A3BDFE552E552DF2A010E01E37B
:102D3000DB2ACCD7040EE15C02E2E16AE552E16EE7
:102D4000E552E5CFDAFFE7CFD9FF1200D9CFE6FF92
:102D5000DACFE6FFE1CFD9FFE2CFDAFFE652E65263
:102D6000DE6ADD6ADECF00F0DDCF01F0FC0EDBCFE6
:102D700002F0FD0EDBCF03F001500318E8AE02D0E5
:102D8000033404D00250005C035001580CE2E80EFA
:102D9000E66E030EE66E68DFE552E552DF2A010EAD
:102DA000E1E3DB2ADFD7E552E552E552E5CFDAFF72
:102DB000E7CFD9FF12009494929894929396E66884
:102DC00080EC1AF0E552E6685DEC19F0E552050E6C
:102DD000E66E65EC1AF0E552000EE66EE66A09D87A
:102DE000E552E552000EE66EE66A59D8E552E55224
:102DF0001200D9CFE6FFDACFE6FFE1CFD9FFE2CF6D
:102E0000DAFFE652FC0EDBCF00F0FD0EDBCF01F067
:102E1000013404E200500008000E015402E3000EE9
:102E200001D0010EDF6E00018A51DF5C10E0000E60
:102E3000E66EE66A36EC1AF0E552E552140EE66EDE
:102E4000E66A34EC16F0E552E552DFCF8AF0DF0493
:102E50000CE1FC0EDBCFE6FFFD0EDBCFE6FF36EC30
:102E60001AF0E552E552809813D0FC0EDBCF00F04B
:102E7000FD0EDBCF01F0FF0E0026030E012200C085
:102E8000E6FF01C0E6FF36EC1AF0E552E552808815
:102E9000E552E552E5CFDAFFE7CFD9FF1200D9CFEF
:102EA000E6FFDACFE6FFE1CFD9FFE2CFDAFFE65265
:102EB000FC0EDBCF00F0FD0EDBCF01F0013404E2AD
:102EC00000500008000E015402E3000E01D0010E74
:102ED000DF6E00018B51DF5C10E0000EE66EE66AEB
:102EE00007EC1AF0E552E552140EE66EE66A34EC91
:102EF00016F0E552E552DFCF8BF0DF040CE1FC0E5B
:102F0000DBCFE6FFFD0EDBCFE6FF07EC1AF0E55264
:102F1000E552819613D0FC0EDBCF00F0FD0EDBCF27
:102F200001F0FF0E0026030E012200C0E6FF01C0E3
:102F3000E6FF07EC1AF0E552E5528186E552E552CC
:102F4000E5CFDAFFE7CFD9FF1200000EE66EE66AA2
:102F500036EC1AF0E552E5528098000EE66EE66A0D
:102F600007EC1AF0E552E55281961200D9CFE6FF40
:102F7000DACFE6FFFA0EE3CFD9FFFB0EE3CFDAFF9D
:102F8000FD0EE35209E72D0EDE6EFC0EE31EE32A72
:102F9000FD0ED8B4E306E31EE652E652E652FD0EFD
:102FA000E124E76EFF0EE220E46EE652F70EE3CF77
:102FB000E6FFF70EE3CFE6FF26EC18F0F90EE1246A
:102FC000E96EFF0EE220EA6E16EC18F00AE113EC4F
:102FD00018F009E116EC18F008E113EC18F007E11D
:102FE00008D021EC18F01CEC18F021EC18F01CECC7
:102FF00018F021EC18F0DE6AF90EE126FF0EE2224D
:10300000FF0EE3CFDAFFE552FF0EE3CFD9FFE55223
:10301000FC0EE124E96EFF0EE220EA6EEECFF3FF34
:10302000EFCFF4FF1200EF380F0B1200EF500F0B31
:1030300002E1EE52D8841200EF380F0B300FDE6E33
:103040001200EE500F0B300FDE6E1200FC0EE3CFBD
:10305000E9FFFD0EE3CFEAFF100EE66EEE6AEE6AC0
:10306000EF6AD890FD0EE336FE0EE336ED36ED3610
:10307000EF36FF0EE30609E047EC18F0EE5247EC9E
:1030800018F0EE5247EC18F0EDD7E56E1200030E83
:10309000EF24E8B6EF6E300EEF24E8BEEF6E000CC2
:1030A00089680A0EE66E040EE66EE70EE66ED0EC58
:1030B00019F0E552E552E5521200D9CFE6FFDACF1A
:1030C000E6FFE1CFD9FFE2CFDAFFE652E652E65261
:1030D000FD0EDB50040A21E0070A19E0010A11E0A5
:1030E000030A09E0010A01E01ED0870EE66E98ECA3
:1030F0001AF0E5521BD08F0EE66E98EC1AF0E552EE
:1031000015D0970EE66E98EC1AF0E5520FD09F0E90
:10311000E66E98EC1AF0E55209D0A70EE66E98EC30
:103120001AF0E55203D0F368F4682AD07D0EF36EEE
:10313000020EF3CFDBFF020EDB520CE0DB06020EC9
:10314000DB5208E00000000000000000000000006A
:10315000DB06F5D7F0EC1AF0EBEC1AF0000901E011
:10316000FBD7DBEC1AF0F3CFDEFFF4CFDDFFDECFD1
:1031700000F0DDCF01F000C0F3FF01C0F4FF00D08C
:10318000E552E552E552E552E5CFDAFFE7CFD9FF48
:1031900012002A0EF66E200EF76E000EF86E000179
:1031A0000900F550856F0900F550866F03E18567CA
:1031B00001D03DD00900F550806F0900F550816FB6
:1031C0000900F550826F09000900F550E96E090009
:1031D000F550EA6E090009000900F550836F0900F7
:1031E000F550846F09000900F6CF87F0F7CF88F01B
:1031F000F8CF89F080C0F6FF81C0F7FF82C0F8FFEA
:103200000001835302E1845307E00900F550EE6E9C
:103210008307F8E28407F9D787C0F6FF88C0F7FF75
:1032200089C0F8FF00018507000E865BBFD712003A
:10323000D9CFE6FFDACFE6FFE1CFD9FFE2CFDAFF61
:10324000AC6AAB6AFD0EDBB0AC88DBA202D0AC8C02
:10325000AB8CDBB4AC8EDBA602D0AB8801D0AB8AE2
:10326000DBB8AC849E98DBBAAB86DBAC02D09D8A1F
:1032700001D09D9A9E9ADBAE02D09D8801D09D9888
:10328000FB0EDB50AF6EFB0EFC0EDBCF01F001C07E
:1032900000F0016A0050B06EAC8AAB8E949C948EA4
:1032A000AC50100B04E0AC50800B01E1948CE55263
:1032B000E5CFDAFFE7CFD9FF1200D9CFE6FFDACFAB
:1032C000E6FFE1CFD9FFE2CFDAFFE652E652E6525F
:1032D000E652F8CF02F0F6CF03F00C0EBA6E050EF0
:1032E000F66EF76A300EF86E0800F550010B03E039
:1032F000010EDB6802D0010EDB6A010EDB5002E03A
:10330000949201D09396CA94FD0EDB50CB6ECA8482
:1033100002C0F8FF03C0F6FF040EE15C02E2E16ABE
:10332000E552E16EE552E5CFDAFFE7CFD9FF1200B3
:1033300018501D02F3CF14F0F4CF15F01E02F35015
:103340001526000EF420166E18501F02F350162694
:10335000000EF420176E18502002F3501726195053
:103360001D02F3501526F4501622000E1722195094
:103370001E02F3501626F450172219501F02F35064
:1033800017261A501D02F3501626F45017221A5011
:103390001E02F35017261B501D02F3501726120071
:1033A000D9CFE6FFDACFE6FFE1CFD9FFE2CFDAFFF0
:1033B000C26AC06AFC0EDB407F0B3C0BC26EFB0E88
:1033C000DBCFE6FFFC0EDB38F00B300BE552E710ED
:1033D000C16EFD0EDB50040DF350380B016EFD0E77
:1033E000DB380F0B070B006EFD0EDB50800B00105F
:1033F0000110C06EFC0EDBAE03D09E9C9D8CF28C47
:10340000C280E552E5CFDAFFE7CFD9FF1200D9CF6E
:10341000E6FFDACFE6FFE1CFD9FFE2CFDAFFE652EF
:10342000E652FC0EDBCF00F0FD0EDBCF01F0060E06
:10343000D89000360136E804FBE100C0DEFF01C091
:10344000DDFF010EDB50BB6EDF50E840E8403F0B74
:10345000300B006ECF0EBA140010BA6EE552E55272
:10346000E552E5CFDAFFE7CFD9FF1200D9CFE6FF6B
:10347000DACFE6FFE1CFD9FFE2CFDAFFE652E6523C
:10348000FC0EDBCF00F0FD0EDBCF01F0060ED89076
:1034900000360136E804FBE100C0DEFF01C0DDFFBD
:1034A000010EDB50BE6EDF50E840E8403F0B300BB2
:1034B000006ECF0EBD140010BD6EE552E552E55210
:1034C000E5CFDAFFE7CFD9FF1200D9CFE6FFDACF99
:1034D000E6FFE1CFD9FFE2CFDAFFFD0EDB50FB0BB9
:1034E000CA6ECC6A9E92FD0EDBAE02D09D8201D0E8
:1034F0009D92CA84E552E5CFDAFFE7CFD9FF1200EB
:10350000D9CFE6FFDACFE6FFE1CFD9FFE2CFDAFF8E
:103510000C0EBD129494CA94FD0EDB50CB6ECA847F
:10352000E552E5CFDAFFE7CFD9FF120094941200FD
:10353000D9CFE6FFDACFE6FFE1CFD9FFE2CFDAFF5E
:10354000C30EC214006EFD0EDB407F0B3C0B00105F
:10355000C26EE552E5CFDAFFE7CFD9FF1200207740
:1035600077772E6477656E676F2E6F7267200057CE
:10357000656C636F6D652032204477656E676F0000
:1035800013EE00F023EE00F0F86A139CC9EC18F07B
:10359000F2EC1AF0BCEC14F0FBD7120016EC10F0B1
:1035A00051EC10F093849388938A93809382F19ED8
:1035B000956A836A1200C450036E026AC3500210F7
:1035C000F36E03C0F4FF120000EE00F00F0EEE6A7F
:1035D000EA62FDD71200C250020B01E0010E120098
:1035E000C28212001200FFFFFFFFFFFFFFFFFFFF7D
:1035F000FFFFFFFFFFFFFFFFFFFFFFFFFFFFFFFFDB
:10360000FFFFFFFFFFFFFFFFFFFFFFFFFFFFFFFFCA
:10361000FFFFFFFFFFFFFFFFFFFFFFFFFFFFFFFFBA
:10362000FFFFFFFFFFFFFFFFFFFFFFFFFFFFFFFFAA
:0200000400F00A
:020000040030CA
:0E000000240E3F1E008181000FC00FE00F4054
:020000040020DA
:08000000FFFFFFFFFFFFFFFF00
:00000001FF
