:020000040000FA
:06000000C0EF1AF012002F
:060008008AEF13F0120064
:0600180016EF14F01200C7
:06200000C0EF1AF012000F
:022008001200C4
:022018001200B4
:02202A000000B4
:04202C0094900A0E74
:10203000C16E050EE66EE66A34EC16F0E552E55226
:10204000836A9568969096929694849084928494EC
:102050000F0EE66EE66A34EC16F0E552E552956A2C
:10206000300EE66E2FD8E552300EE66E2BD8E552D4
:10207000300EE66E27D8E552380EE66E23D8E552CC
:10208000060EE66E1FD8E552180EE66E1BD8E55216
:102090000C0EE66E17D8E55200018D6B8DC08CF0EA
:1020A0001200010EE66E0ED8E552020EE66EE66AEA
:1020B00034EC16F0E552E552E66AE66A34D8E552A9
:1020C000E5521200D9CFE6FFDACFE6FFE1CFD9FF24
:1020D000E2CFDAFFE652E6528350DF6E84928490BC
:1020E00084848350DF6EFD0EDB50836E8494DF505A
:1020F000836EDE522D0EDD6E010EDB520CE0DB0630
:10210000010EDB5208E000000000000000000000AB
:102110000000DB06F5D7E552E552E552E5CFDAFFE0
:10212000E7CFD9FF1200D9CFE6FFDACFE6FFE1CF44
:10213000D9FFE2CFDAFFE652E652FD0EDB5001088E
:1021400005E2010EF36EFD0EF3CFDBFFFC0EDB505C
:102150000F0805E20F0EF36EFC0EF3CFDBFFFD0E52
:10216000DBCF8CF0FC0EDBCF8DF0FD0EDB0403E14A
:10217000C00EDF6E02D0800EDF6EFC0EDB98DB9AA5
:10218000DB9CDB9EFC0EDB50DF12DFCFE6FF9ADF2D
:10219000E552DE522D0EDD6E010EDB520CE0DB0649
:1021A000010EDB5208E0000000000000000000000B
:1021B0000000DB06F5D7E552E552E552E5CFDAFF40
:1021C000E7CFD9FF1200D9CFE6FFDACFE6FFE1CFA4
:1021D000D9FFE2CFDAFFE652E652E6528350DE6ED6
:1021E000DD6A00018D510F080BE200018C5102E005
:1021F00058DF06D0E66A010EE66E95DFE552E5523D
:102200008492848084848350DE6EDD6AFD0EDB5010
:10221000836E8494DF50836E2D0EF36E020EF3CF27
:10222000DBFF020EDB520CE0DB06020EDB5208E0A5
:10223000000000000000000000000000DB06F5D7F1
:1022400000018D2BE552E552E552E552E5CFDAFF6C
:10225000E7CFD9FF1200D9CFE6FFDACFE6FFE1CF13
:10226000D9FFE2CFDAFFE652FB0EDBCFE6FFFC0E32
:10227000DBCFE6FF58DFE552E552FD0EDBCFE6FF90
:10228000A2DFE552E552E552E5CFDAFFE7CFD9FF0D
:102290001200D9CFE6FFDACFE6FFE1CFD9FFE2CFD8
:1022A000DAFFFB0EDBCFF6FFFC0EDBCFF7FFFD0EF8
:1022B000DBCFF8FF0800F55016E0D950FB0FE96EB0
:1022C000FF0EDA20EA6EEFCFF6FFEE2AEFCFF7FF30
:1022D000000EEE22EFCFF8FFEE220800F550E66E7A
:1022E00072DFE552DED7E552E5CFDAFFE7CFD9FF5F
:1022F0001200D9CFE6FFDACFE6FFE1CFD9FFE2CF78
:10230000DAFFFA0EDBCFE6FFFB0EDBCFE6FF0BDFDB
:10231000E552E552FC0EDBCF00F0FD0EDBCF01F005
:10232000026A00C0E6FF01C0E6FF02C0E6FFB1DFBF
:10233000E552E552E552E552E5CFDAFFE7CFD9FFA6
:102340001200D9CFE6FFDACFE6FFE1CFD9FFE2CF27
:10235000DAFFFC0EDBCFE9FFFD0EDBCFEAFFEF502B
:102360000EE0FC0EDBCFE9FFDB2AFD0EDBCFEAFF40
:1023700001E3DB2AEF50E66E26DFE552EAD7E552AD
:10238000E5CFDAFFE7CFD9FF1200D9CFE6FFDACFEA
:10239000E6FFE1CFD9FFE2CFDAFF070EE12402E347
:1023A000E168E652E16ED9CFE6FFDACFE6FFFC0E38
:1023B000DBCFE6FFFD0EDBCFE6FFB6EC17F0E55214
:1023C000E552E552E552060EDB6AD9CFE6FFDACFD9
:1023D000E6FFB7DFE552E552070EE15C02E2E16A93
:1023E000E552E16EE552E5CFDAFFE7CFD9FF120003
:1023F000D9CFE6FFDACFE6FFE1CFD9FFE2CFDAFFB0
:10240000FA0EDBCFE6FFFB0EDBCFE6FF8CDEE552FC
:10241000E552FC0EDBCFE6FFFD0EDBCFE6FFB5DFBE
:10242000E552E552E552E5CFDAFFE7CFD9FF1200DA
:102430009EA03FD0000170510CE1000E6815FF0E08
:102440006915E850CF6E6851CE6E8A888A9A010E5F
:102450001ED070050DE1000E6C15FF0E6D15016AA2
:10246000E850CF6E6C51CE6E8A988A9A020E0FD0C9
:10247000020E705D0EE1000E6A15FF0E6B15016A0B
:10248000E850CF6E6A51CE6E8A988A8A030E706FBA
:102490000FD0030E705D0CE1000E6E15FF0E6F1570
:1024A000016AE850CF6E6E51CE6E8A988A9A706B30
:1024B0009E90120023EC14F0300EE66E240EE66EB1
:1024C000000EE66E46EC14F0E552E552E5529E90A1
:1024D000D08ED09C310ECD6EF28E9F809D80939ACF
:1024E0009398956A8A9A8A98790EE66E0D0EE66E32
:1024F000E70EE66E030EE66E010EE66E2BD8006E5A
:10250000050EE15C02E2E16AE552E16E0050790EEF
:10251000E66E0D0EE66EE70EE66E030EE66E020E3A
:10252000E66E18D8006E050EE15C02E2E16AE55243
:10253000E16E0050E66A010EE66E3ED8E552E552C5
:10254000E66A020EE66E38D8E552E5520001706B7D
:1025500018EF12F0D9CFE6FFDACFE6FFE1CFD9FFCF
:10256000E2CFDAFFF29EFD0EDB04E96EEA6AD89054
:10257000E936EA36600EE926000EEA22FB0EDBCFD2
:10258000EEFFFC0EDBCFEDFFFD0EDB04E96EEA6A29
:10259000D890E936EA36640EE926000EEA22F90EF2
:1025A000DBCFEEFFFA0EDBCFEDFFF28EE552E5CF8B
:1025B000DAFFE7CFD9FF1200D9CFE6FFDACFE6FF87
:1025C000E1CFD9FFE2CFDAFFE652E652F29EFD0EEE
:1025D000DB04E96EEA6AD890E936EA36600EE9264D
:1025E000000EEA22EECF00F0EFCF01F0026A036A9C
:1025F000FD0EDB04E96EEA6AD890E936EA36640E2D
:10260000E926000EEA22EECF10F0EFCF11F0FD0E1A
:10261000DB04E96EEA6AD890E936EA36600EE9260C
:10262000000EEA22EE50105C0C6EEE5011580D6E4A
:102630000E6A0F6AFC0EDBCF08F0096A0A6A0B6AA1
:1026400008C018F009C019F00AC01AF00BC01BF03E
:102650000CC01DF00DC01EF00EC01FF00FC020F00A
:1026600098EC19F014C004F015C005F016C006F07F
:1026700017C007F0080ED890073206320532043230
:10268000E806F9E104500026055001220650022216
:102690000750032200C0DEFF01C0DDFFDECF00F0E7
:1026A000DDCF01F0FF0ED88000560156FD0EDB0491
:1026B000E96EEA6AD890E936EA36680EE926000E35
:1026C000EA2200C0EEFF01C0EDFFDECF00F0DDCF5B
:1026D00001F0980ED88000563A0E0156FF0ED880B1
:1026E00000560156FD0EDB04E96EEA6AD890E93621
:1026F000EA366C0EE926000EEA2200C0EEFF01C0A9
:10270000EDFFF28EE552E552E552E5CFDAFFE7CF75
:04271000D9FF1200DB
:0C271400E9CFE4FFEACFE4FFF6CFE4FFDA
:10272000F7CFE4FFF8CFE4FFF5CFE4FFF3CFE4FF0A
:10273000F4CFE4FFFACFE4FFFBCFE4FF00EE12F0AA
:10274000100EE80403E3EECFE4FFFBD700EE00F049
:10275000120EE80403E3EECFE4FFFBD7E652D9CF35
:10276000E6FFDACFE6FFE1CFD9FFE2CFDAFFE652AC
:10277000DF6A050EDF5C2EE2DF50030DF3CFE9FFC9
:10278000F4CFEAFF710EE926000EEA22EECF22F026
:10279000EECF23F0EFCF24F022502310241018E0C6
:1027A000DF50030DF3CFE9FFF4CFEAFF710EE92606
:1027B000000EEA22EECF22F0EECF23F0EFCF24F08E
:1027C00006D024C0FBFF23C0FAFF2250F96EF9DFC8
:1027D000DF2ACFD7E552E552E5CFDAFFE7CFD9FFC1
:1027E000E55200EE11F0120EE80403E3E5CFEDFF31
:1027F000FBD700EE21F0100EE80403E3E5CFEDFF78
:10280000FBD7E5CFFBFFE5CFFAFFE5CFF4FFE5CF40
:10281000F3FFE5CFF5FFE5CFF8FFE5CFF7FFE5CF15
:10282000F6FFE5CFEAFFE5CFE9FF1100D8CFE4FFDF
:10283000E0CFE4FFE46EE652E552E550E5CFE0FF7D
:10284000E5CFD8FF1000D9CFE6FFDACFE6FFE1CF22
:10285000D9FFE2CFDAFFE652DF6A050EDF5C0FE256
:10286000DF50030DF3CFE9FFF4CFEAFF710EE92645
:10287000000EEA22EE6AEE6AEE6ADF2AEED7E55231
:10288000E552E5CFDAFFE7CFD9FF1200D9CFE6FF57
:10289000DACFE6FFE1CFD9FFE2CFDAFFE652DF6A17
:1028A000DF50030DF3CFE9FFF4CFEAFF710EE92605
:1028B000000EEA22EECF00F0EECF01F0EFCF02F0F3
:1028C00000500110021002E0DF2AEAD7DF50030DAA
:1028D000F3CFE9FFF4CFEAFF710EE926000EEA22FA
:1028E000FB0EDBCFEEFFFC0EDBCFEEFFFD0EDBCFF2
:1028F000EEFFE552E552E5CFDAFFE7CFD9FF120050
:10290000D9CFE6FFDACFE6FFE1CFD9FFE2CFDAFF9A
:10291000E652DF6AFB0EDBCF00F0FC0EDBCF01F0EE
:10292000FD0EDBCF02F0DF50030DF3CFE9FFF4CF54
:10293000EAFF710EE926000EEA22EE50001805E1CA
:10294000EE50011802E1EE50021802E0DF2AE2D751
:10295000DF50030DF3CFE9FFF4CFEAFF710EE92654
:10296000000EEA22EE6AEE6AEE6AE552E552E5CF23
:08297000DAFFE7CFD9FF1200E6
:08297800D9CFE6FFE1CFD9FF42
:10298000020EE126CEEC1AF016EC10F050EC18F026
:102990005AEC12F0DBEC16F04D0EE66EE66A2C0EE9
:1029A000E66E18EC19F0E552E552E55251EC10F0E4
:1029B0006F0E006E350E016E026A00C0E6FF01C0A8
:1029C000E6FF02C0E6FF49EC11F0E552E552E552A0
:1029D0005E0E006E350E016E026A00C0E6FF01C099
:1029E000E6FF02C0E6FF49EC11F0E552E552E55280
:1029F0008280010E836EDF6A070EDF5C0BE2839E2E
:102A00008346320EE66EE66A34EC16F0E552E55285
:102A1000DF2AF2D7DF6A070EDF5C0BE28390834286
:102A2000320EE66EE66A34EC16F0E552E552DF2A25
:102A3000F2D7DF6A070EDF5C0CE2839E8346838059
:102A4000320EE66EE66A34EC16F0E552E552DF2A05
:102A5000F1D7C80EE66EE66A34EC16F0E552E552A0
:102A6000836AE668030EE66EF9EC16F0E552E5526D
:102A7000F40EE66E010EE66E34EC16F0E552E55209
:102A8000010EE66EFC0EE66EF9EC16F0E552E5522C
:102A9000F40EE66E010EE66E34EC16F0E552E552E9
:102AA000000EE66EE66AF9EC16F0E552E552E668CD
:102AB000030EE66E4FEC17F0E552E552F40EE66EAB
:102AC000010EE66E34EC16F0E552E552010EE66EAC
:102AD000FC0EE66E4FEC17F0E552E552F40EE66E92
:102AE000010EE66E34EC16F0E552E552000EE66E8D
:102AF000E66A4FEC17F0E552E552E66A010EE66E23
:102B0000DCEC12F0E552E552E66A020EE66EDCEC11
:102B100012F0E552E552F40EE66E010EE66E34EC6C
:102B200016F0E552E552E668010EE66EDCEC12F0B6
:102B3000E552E552E668020EE66EDCEC12F0E55274
:102B4000E552F40EE66E010EE66E34EC16F0E55238
:102B5000E552E66A010EE66EDCEC12F0E552E55253
:102B6000E66A020EE66EDCEC12F0E552E552836A8C
:102B700081B4FED781B8FED781B2FED781BAFED725
:102B800081B0FED78368FFD7020EE15C02E2E16A02
:0C2B9000E552E16EE552E7CFD9FF1200DC
:042B9C00D9CFE6FFA8
:102BA000DACFE6FFE1CFD9FFE2CFDAFFE652E65215
:102BB000E652E652D950FC0FE96EFF0EDA20EA6EBB
:102BC000EE50ED1045E05F0EF36E020EF3CFDBFF2B
:102BD000020EDB520CE0DB06020EDB5208E00000C6
:102BE00000000000000000000000DB06F5D7010E29
:102BF000DE6EDD6ADECF00F0DDCF01F0FC0EDBCF54
:102C000002F0FD0EDBCF03F001500318E8AE02D056
:102C1000033404D00250005C0350015819E2620EE4
:102C2000F36E030EF3CFDBFF030EDB520CE0DB068B
:102C3000030EDB5208E0000000000000000000006E
:102C40000000DB06F5D7DF2A010E01E3DB2AD2D72D
:102C5000040EE15C02E2E16AE552E16EE552E5CF85
:102C6000DAFFE7CFD9FF1200D9CFE6FFDACFE6FFD0
:102C7000E1CFD9FFE2CFDAFFE652E652E652E65262
:102C8000D950FC0FE96EFF0EDA20EA6EEE50ED101F
:102C900051E05E0EF36E020EF3CFDBFF020EDB524D
:102CA0000CE0DB06020EDB5208E000000000000032
:102CB000000000000000DB06F5D7090EE66EE66AAC
:102CC0006DDFE552E552010EDE6EDD6ADECF00F00B
:102CD000DDCF01F0FC0EDBCF02F0FD0EDBCF03F009
:102CE00001500318E8AE02D0033404D00250005C57
:102CF000035001581FE2600EF36E030EF3CFDBFFAB
:102D0000030EDB520CE0DB06030EDB5208E0000092
:102D100000000000000000000000DB06F5D7090EEF
:102D2000E66EE66A3BDFE552E552DF2A010E01E37B
:102D3000DB2ACCD7040EE15C02E2E16AE552E16EE7
:102D4000E552E5CFDAFFE7CFD9FF1200D9CFE6FF92
:102D5000DACFE6FFE1CFD9FFE2CFDAFFE652E65263
:102D6000DE6ADD6ADECF00F0DDCF01F0FC0EDBCFE6
:102D700002F0FD0EDBCF03F001500318E8AE02D0E5
:102D8000033404D00250005C035001580CE2E80EFA
:102D9000E66E030EE66E68DFE552E552DF2A010EAD
:102DA000E1E3DB2ADFD7E552E552E552E5CFDAFF72
:062DB000E7CFD9FF12007D
:0A2DB6009494929894929396E66824
:102DC00080EC1AF0E552E6685DEC19F0E552050E6C
:102DD000E66E65EC1AF0E552000EE66EE66A09D87A
:102DE000E552E552000EE66EE66A59D8E552E55224
:102DF0001200D9CFE6FFDACFE6FFE1CFD9FFE2CF6D
:102E0000DAFFE652FC0EDBCF00F0FD0EDBCF01F067
:102E1000013404E200500008000E015402E3000EE9
:102E200001D0010EDF6E00018A51DF5C10E0000E60
:102E3000E66EE66A36EC1AF0E552E552140EE66EDE
:102E4000E66A34EC16F0E552E552DFCF8AF0DF0493
:102E50000CE1FC0EDBCFE6FFFD0EDBCFE6FF36EC30
:102E60001AF0E552E552809813D0FC0EDBCF00F04B
:102E7000FD0EDBCF01F0FF0E0026030E012200C085
:102E8000E6FF01C0E6FF36EC1AF0E552E552808815
:102E9000E552E552E5CFDAFFE7CFD9FF1200D9CFEF
:102EA000E6FFDACFE6FFE1CFD9FFE2CFDAFFE65265
:102EB000FC0EDBCF00F0FD0EDBCF01F0013404E2AD
:102EC00000500008000E015402E3000E01D0010E74
:102ED000DF6E00018B51DF5C10E0000EE66EE66AEB
:102EE00007EC1AF0E552E552140EE66EE66A34EC91
:102EF00016F0E552E552DFCF8BF0DF040CE1FC0E5B
:102F0000DBCFE6FFFD0EDBCFE6FF07EC1AF0E55264
:102F1000E552819613D0FC0EDBCF00F0FD0EDBCF27
:102F200001F0FF0E0026030E012200C0E6FF01C0E3
:102F3000E6FF07EC1AF0E552E5528186E552E552CC
:102F4000E5CFDAFFE7CFD9FF1200000EE66EE66AA2
:102F500036EC1AF0E552E5528098000EE66EE66A0D
:0C2F600007EC1AF0E552E55281961200D1
:042F6C00D9CFE6FFD4
:102F7000DACFE6FFFA0EE3CFD9FFFB0EE3CFDAFF9D
:102F8000FD0EE35209E72D0EDE6EFC0EE31EE32A72
:102F9000FD0ED8B4E306E31EE652E652E652FD0EFD
:102FA000E124E76EFF0EE220E46EE652F70EE3CF77
:102FB000E6FFF70EE3CFE6FF26EC18F0F90EE1246A
:102FC000E96EFF0EE220EA6E16EC18F00AE113EC4F
:102FD00018F009E116EC18F008E113EC18F007E11D
:102FE00008D021EC18F01CEC18F021EC18F01CECC7
:102FF00018F021EC18F0DE6AF90EE126FF0EE2224D
:10300000FF0EE3CFDAFFE552FF0EE3CFD9FFE55223
:10301000FC0EE124E96EFF0EE220EA6EEECFF3FF34
:10302000EFCFF4FF1200EF380F0B1200EF500F0B31
:1030300002E1EE52D8841200EF380F0B300FDE6E33
:103040001200EE500F0B300FDE6E1200FC0EE3CFBD
:10305000E9FFFD0EE3CFEAFF100EE66EEE6AEE6AC0
:10306000EF6AD890FD0EE336FE0EE336ED36ED3610
:10307000EF36FF0EE30609E047EC18F0EE5247EC9E
:1030800018F0EE5247EC18F0EDD7E56E1200030E83
:10309000EF24E8B6EF6E300EEF24E8BEEF6E000CC2
:1030A00089680A0EE66E040EE66EE70EE66ED0EC58
:1030B00019F0E552E552E5521200D9CFE6FFDACF1A
:1030C000E6FFE1CFD9FFE2CFDAFFE652E652E65261
:1030D000FD0EDB50040A21E0070A19E0010A11E0A5
:1030E000030A09E0010A01E01ED0870EE66E98ECA3
:1030F0001AF0E5521BD08F0EE66E98EC1AF0E552EE
:1031000015D0970EE66E98EC1AF0E5520FD09F0E90
:10311000E66E98EC1AF0E55209D0A70EE66E98EC30
:103120001AF0E55203D0F368F4682AD07D0EF36EEE
:10313000020EF3CFDBFF020EDB520CE0DB06020EC9
:10314000DB5208E00000000000000000000000006A
:10315000DB06F5D7F0EC1AF0EBEC1AF0000901E011
:10316000FBD7DBEC1AF0F3CFDEFFF4CFDDFFDECFD1
:1031700000F0DDCF01F000C0F3FF01C0F4FF00D08C
:10318000E552E552E552E552E5CFDAFFE7CFD9FF48
:0231900012002B
:0E3192002A0EF66E200EF76E000EF86E00018B
:1031A0000900F550856F0900F550866F03E18567CA
:1031B00001D03DD00900F550806F0900F550816FB6
:1031C0000900F550826F09000900F550E96E090009
:1031D000F550EA6E090009000900F550836F0900F7
:1031E000F550846F09000900F6CF87F0F7CF88F01B
:1031F000F8CF89F080C0F6FF81C0F7FF82C0F8FFEA
:103200000001835302E1845307E00900F550EE6E9C
:103210008307F8E28407F9D787C0F6FF88C0F7FF75
:1032200089C0F8FF00018507000E865BBFD712003A
:10323000D9CFE6FFDACFE6FFE1CFD9FFE2CFDAFF61
:10324000AC6AAB6AFD0EDBB0AC88DBA202D0AC8C02
:10325000AB8CDBB4AC8EDBA602D0AB8801D0AB8AE2
:10326000DBB8AC849E98DBBAAB86DBAC02D09D8A1F
:1032700001D09D9A9E9ADBAE02D09D8801D09D9888
:10328000FB0EDB50AF6EFB0EFC0EDBCF01F001C07E
:1032900000F0016A0050B06EAC8AAB8E949C948EA4
:1032A000AC50100B04E0AC50800B01E1948CE55263
:0A32B000E5CFDAFFE7CFD9FF1200E7
:0632BA00D9CFE6FFDACFD8
:1032C000E6FFE1CFD9FFE2CFDAFFE652E652E6525F
:1032D000E652F8CF02F0F6CF03F00C0EBA6E050EF0
:1032E000F66EF76A300EF86E0800F550010B03E039
:1032F000010EDB6802D0010EDB6A010EDB5002E03A
:10330000949201D09396CA94FD0EDB50CB6ECA8482
:1033100002C0F8FF03C0F6FF040EE15C02E2E16ABE
:10332000E552E16EE552E5CFDAFFE7CFD9FF1200B3
:1033300018501D02F3CF14F0F4CF15F01E02F35015
:103340001526000EF420166E18501F02F350162694
:10335000000EF420176E18502002F3501726195053
:103360001D02F3501526F4501622000E1722195094
:103370001E02F3501626F450172219501F02F35064
:1033800017261A501D02F3501626F45017221A5011
:103390001E02F35017261B501D02F3501726120071
:1033A000D9CFE6FFDACFE6FFE1CFD9FFE2CFDAFFF0
:1033B000C26AC06AFC0EDB407F0B3C0BC26EFB0E88
:1033C000DBCFE6FFFC0EDB38F00B300BE552E710ED
:1033D000C16EFD0EDB50040DF350380B016EFD0E77
:1033E000DB380F0B070B006EFD0EDB50800B00105F
:1033F0000110C06EFC0EDBAE03D09E9C9D8CF28C47
:0E340000C280E552E5CFDAFFE7CFD9FF120018
:02340E00D9CF14
:10341000E6FFDACFE6FFE1CFD9FFE2CFDAFFE652EF
:10342000E652FC0EDBCF00F0FD0EDBCF01F0060E06
:10343000D89000360136E804FBE100C0DEFF01C091
:10344000DDFF010EDB50BB6EDF50E840E8403F0B74
:10345000300B006ECF0EBA140010BA6EE552E55272
:0C346000E552E5CFDAFFE7CFD9FF1200FC
:04346C00D9CFE6FFCF
:10347000DACFE6FFE1CFD9FFE2CFDAFFE652E6523C
:10348000FC0EDBCF00F0FD0EDBCF01F0060ED89076
:1034900000360136E804FBE100C0DEFF01C0DDFFBD
:1034A000010EDB50BE6EDF50E840E8403F0B300BB2
:1034B000006ECF0EBD140010BD6EE552E552E55210
:0A34C000E5CFDAFFE7CFD9FF1200D5
:0634CA00D9CFE6FFDACFC6
:1034D000E6FFE1CFD9FFE2CFDAFFFD0EDB50FB0BB9
:1034E000CA6ECC6A9E92FD0EDBAE02D09D8201D0E8
:1034F0009D92CA84E552E5CFDAFFE7CFD9FF1200EB
:10350000D9CFE6FFDACFE6FFE1CFD9FFE2CFDAFF8E
:103510000C0EBD129494CA94FD0EDB50CB6ECA847F
:10352000E552E5CFDAFFE7CFD9FF120094941200FD
:10353000D9CFE6FFDACFE6FFE1CFD9FFE2CFDAFF5E
:10354000C30EC214006EFD0EDB407F0B3C0B00105F
:0E355000C26EE552E5CFDAFFE7CFD9FF1200D9
:02355E002077D4
:1035600077772E6477656E676F2E6F7267200057CE
:10357000656C636F6D652032204477656E676F0000
:1035800013EE00F023EE00F0F86A139CC9EC18F07B
:0C359000F2EC1AF0BCEC14F0FBD71200B7
:04359C0016EC10F029
:1035A00051EC10F093849388938A93809382F19ED8
:0635B000956A836A120017
:0A35B600C450036E026AC3500210F5
:0835C000F36E03C0F4FF1200DA
:0835C80000EE00F00F0EEE6AA8
:0635D000EA62FDD71200C3
:0A35D600C250020B01E0010E1200CA
:0435E000C282120091
:0235E4001200D3
:020000040030CA
:0100000024DB
:010001000EF0
:0100020039C4
:010003001EDE
:010005008179
:010006008178
:010008000FE8
:01000900C036
:01000A000FE6
:01000B00E014
:01000C000FE4
:01000D0040B2
:00000001FF
