:100000000C9475010C949D010C949D010C949D0120
:100010000C949D010C949D010C949D010C949D01E8
:100020000C949D010C949D010C94FC0B0C94C80A3B
:100030000C949D010C949D010C949D010C949D01C8
:100040000C949D010C9434060C949D010C949D011C
:100050000C949D010C949D010C949D010C94F00650
:100060000C949D010C949D010C949D010C949D0198
:100070000C949D010C949D010C949D010C949D0188
:100080000C949D010C949D010C949D010C949D0178
:100090000C9465040C949D01ED07F007DF07E3075E
:1000A000E9070B08F407F807FE0702080608000036
:1000B0000005000403000000000700000208000023
:1000C0000000000000000000000000000000000030
:1000D000000000000000000000000B0A09000408F6
:1000E000048080402040201001100802010280405E
:1000F00020100804020180402010080402010102BF
:1001000004081020408001020408102040800404EC
:1001100002020402020404040202020204040505AD
:10012000050505050505060606060606060601017F
:1001300001010101010103030303030303030000A1
:100140002200250028002B002E0031000000210095
:10015000240027002A002D00300000C18081C11238
:1001600001000202000040E0D31A60000101020019
:10017000011201000200000040E0D31A60000101FA
:100180000200014477656E676F204C4C4300447752
:10019000656E6775696E6F20426F6172640004035B
:1001A0000904080B00020202010009040000010218
:1001B00002000005240010010524010101042402AD
:1001C000060524060001070581031000400904010B
:1001D00000020A0000000705020240000007058334
:1001E0000240000000000000000000002A2B280050
:1001F00000000000000000000000000000000000FF
:10020000000000002C9EB4A0A1A2A434A6A7A5AE15
:10021000362D3738271E1F20212223242526B333CD
:10022000B62EB7B89F8485868788898A8B8C8D8EF9
:100230008F909192939495969798999A9B9C9D2FC5
:100240003130A3AD350405060708090A0B0C0D0E65
:100250000F101112131415161718191A1B1C1DAFA5
:10026000B1B0B5000904020001030000000921013A
:100270000100012265000705840340000105010912
:1002800002A1010901A10085010509190129031530
:10029000002501950375018102950175058103050E
:1002A000010930093109381581257F7508950381C9
:1002B00006C0C005010906A1018502050719E0294C
:1002C000E7150025017501950881029501750881E2
:1002D0000395067508150025650507190029658130
:1002E00000C03804BC05290D7C0E11241FBECFEFC1
:1002F000D0E1DEBFCDBF11E0A0E0B1E0E2E2FDE180
:1003000002C005900D92A037B107D9F722E0A0E70F
:10031000B1E001C01D92AB3DB207E1F712E0CAEEB9
:10032000D2E004C02297FE010E948B0EC23ED1078C
:10033000C9F70E947C080C948F0E0C9400000E9458
:10034000920561E08DE00E940C088FE292E00E942D
:1003500010066CE171E08FE292E00E94CD0841E06E
:1003600060E08FE292E00E94830267E271E08FE238
:1003700092E00C94CD0861E08DE00E9445088AEA85
:1003800082B968EE73E080E090E00E945D0760E073
:100390008DE00E94450885E582B968EE73E080E053
:1003A00090E00C945D07CF93DF93EC0160E08E81C9
:1003B0000E94450881E090E00E94850761E08E81FF
:1003C0000E94450881E090E00E94850760E08E81F0
:1003D0000E94450884E690E0DF91CF910C94850758
:1003E000CF92DF92EF92FF920F931F93CF93DF9301
:1003F0007C01C0E0D0E0C62ED12C87010C0F1D1F60
:1004000061E0F80187810E940C08B6010C2E02C041
:10041000759567950A94E2F76170F80187810E94EB
:1004200045082196C430D10541F7C701DF91CF912E
:100430001F910F91FF90EF90DF90CF900C94D3011C
:10044000CF92DF92EF92FF920F931F93CF93DF93A0
:100450007C01C0E0D0E0C62ED12C87010C0F1D1FFF
:1004600061E0F80187810E940C08B6010C2E02C0E1
:10047000759567950A94E2F76170F80187810E948B
:1004800045082196C830D10541F7C701DF91CF91CA
:100490001F910F91FF90EF90DF90CF900C94D301BC
:1004A0001F93CF93DF93EC01162F642F8C810E9452
:1004B00045088D818F3F19F060E00E9445088F85C7
:1004C000612F84FF06C0CE01DF91CF911F910C9464
:1004D000200270E084E0759567958A95E1F7CE017A
:1004E0000E94F001612FCE01DF91CF911F910C94FA
:1004F000F00140E00C94500261E00E94790280ED2E
:1005000097E00C948507CF93DF93CDB7DEB728979C
:100510000FB6F894DEBF0FBECDBF28E0E4E1F1E0F6
:10052000DE01119601900D922A95E1F7FC012389D5
:10053000421710F04FEF420FFE013196E40FF11D0C
:10054000E40FF11D2081260F2068622F28960FB638
:10055000F894DEBF0FBECDBFDF91CF910C9479022E
:10056000FC016089262F2460208B6C600C9479023A
:10057000CF93DF93EC01423018F08F8588608F872E
:100580004B8B1C8A222329F0413019F48F8584601B
:100590008F8780E593EC0E94850760E08C810E9444
:1005A000450860E08E810E9445088D818F3F19F0DB
:1005B00060E00E9445086F8564FD1DC063E0CE01C8
:1005C0000E94F00184E991E10E94850763E0CE0179
:1005D0000E94F00184E991E10E94850763E0CE0169
:1005E0000E94F00186E990E00E94850762E0CE015A
:1005F0000E94F00116C06062CE010E94790284E977
:1006000091E10E9485076F856062CE010E947902A8
:1006100086E990E00E9485076F856062CE010E94A6
:1006200079026F856062CE010E94790284E0888B36
:10063000CE010E94B002CE010E947C0282E0898B32
:1006400066E0CE01DF91CF910C9479026F927F9298
:100650008F92AF92CF92EF920F931F93CF93DF932E
:10066000CDB7DEB73C01162F842F5D854E853F85C3
:100670009889F301848325830683E782C086A18657
:100680008286538744873587968761E00E940C08ED
:10069000F30185818F3F19F061E00E940C0861E051
:1006A000F30186810E940C08112319F0F3011786CB
:1006B00003C080E1F301878720E041E060E1C301EE
:1006C000DF91CF911F910F91EF90CF90AF908F90CE
:1006D0007F906F900C94B8028F92AF92CF92EF926E
:1006E0000F93CF93DF93CDB7DEB7DC0113961C9247
:1006F0001E921297E5E3F1E0ED93FC933C853F9366
:100700003B853F933A853F938F928A2CAC2CCE2C1D
:10071000E02E022F242F462F60E00E9426030F9028
:100720000F900F900F90DF91CF910F91EF90CF909E
:10073000AF908F90089541E00E94500281E090E0D8
:10074000089580919F0190E02091A001821B910962
:1007500008952091A00180919F01281750F4E22F65
:10076000F0E0EF55FE4F808190E02F5F2093A001D5
:1007700008958FEF9FEF0895E091A00180919F0170
:10078000E81730F4F0E0EF55FE4F808190E00895D7
:100790008FEF9FEF08950895CF92DF92EF92FF922F
:1007A0000F931F93CF93DF937C01CB018A0120919C
:1007B0007C01222389F0EB016B01C40ED51ECC1500
:1007C000DD0569F06991D701ED91FC910190F0810F
:1007D000E02DC7010995F3CF642F0E943C04C801A6
:1007E000DF91CF911F910F91FF90EF90DF90CF900D
:1007F0000895CF93DF931F92CDB7DEB76983209121
:100800007C012223D1F020917D01203240F021E0B3
:1008100030E0FC013383228380E090E015C08091BA
:100820007E01E82FF0E0E158FE4F998190838F5FC1
:1008300080937E0180937D0105C061E0CE01019629
:100840000E943C0481E090E00F90DF91CF910895E9
:10085000FC011382128248EE53E060E070E04483B2
:100860005583668377838DE391E091838083089538
:1008700080E791E00C942804613298F420912E02D4
:10088000243089F46093E301FC0185EE91E0DC0102
:100890002A2F281B261718F421912D93F9CF80E0D9
:1008A000089581E0089582E0089585ED8093BC006D
:1008B0008091BC0084FDFCCF10922E02089585EC3F
:1008C0008093BC0010922E0208951F920F920FB6D3
:1008D0000F9211242F933F934F935F936F937F93C6
:1008E0008F939F93AF93BF93EF93FF938091B90042
:1008F000887F803609F49CC068F5883209F45BC0B3
:1009000090F4803109F454C038F4882309F4F5C018
:10091000883009F44DC0F5C0883109F44CC08032EC
:1009200009F45DC0EEC0803409F468C048F4803337
:1009300009F455C0883309F0E4C08093C101A8C010
:10094000803509F44FC0883509F45DC0883409F05A
:10095000D8C0D5C0883909F4C6C0A8F4883709F4CE
:1009600067C038F4883609F463C0803709F460C082
:10097000C8C0883809F4B7C0803909F45FC080382E
:1009800009F0BFC05BC0803B09F485C038F4803AF1
:1009900009F466C0883A09F47EC0B3C0803C09F40B
:1009A000A6C0883C09F4A3C0883B09F489C0A9C04B
:1009B00080912D0210C09091060280910502981737
:1009C00070F5E091060281E08E0F80930602F0E060
:1009D000E95FFD4F80818093BB0085EC85C08093EB
:1009E000C1018DC0E091060281E08E0F8093060266
:1009F0008091BB00F0E0E95FFD4F8083909106029B
:100A0000809105026DC0E091060281E08E0F809317
:100A100006028091BB00F0E0E95FFD4F808380918A
:100A20002C0281116CC081E080932B0284EA60C0AB
:100A300083E080932E021092C201CFCF8091C20139
:100A4000803208F050C0E091C20181E08E0F8093A7
:100A5000C2018091BB00F0E0ED53FE4F8083BDCF1B
:100A60008091C201803230F4E091C201F0E0ED5398
:100A7000FE4F10820E9455046091C20170E0E09127
:100A80002702F091280283EC91E009951092C201AF
:100A90000E945F0436C084E080932E021092E4012D
:100AA0001092E301E0912902F0912A0209958091C8
:100AB000E301811105C081E08093E3011092E5011B
:100AC000E091E40181E08E0F8093E401F0E0EB51CE
:100AD000FE4F80818093BB009091E4018091E301FF
:100AE000981708F47ACF85E88093BC000AC085EC9B
:100AF0008093BC0010922E0204C01092C1010E948B
:100B00005504FF91EF91BF91AF919F918F917F918C
:100B10006F915F914F913F912F910F900FBE0F906A
:100B20001F90189561E084E10E94450820E042E0B2
:100B300060E18FE292E00E94B8028FE292E00E94B0
:100B400010068FEF81B912B862E083E10E940C08B1
:100B500062E082E10E940C0862E081E10E940C08E0
:100B600062E080E10E940C0862E08FE20E940C08C3
:100B700061E08EE20C940C088F92AF92CF92EF92CC
:100B80000F931F9282E28F9387E28F9386E28F9377
:100B900085E28F9384E2882E93E2A92E22E2C22E70
:100BA00031E2E32E00E225E146E167E18FE292E0E7
:100BB0000E94E5050F900F900F900F900F900F91EE
:100BC000EF90CF90AF908F9008956F927F928F9219
:100BD000AF92CF92EF920F93CF93DF93CDB7DEB763
:100BE0003C018E858F938D858F938C858F93C30168
:100BF0000E946C038DE491E0F301918380838F85E3
:100C00009889968B858B0F900F900F90DF91CF91E5
:100C10000F91EF90CF90AF908F907F906F9008954D
:100C20001F93CF93DF93EC01ED89FE89108161E082
:100C30000E947902ED89FE89108380ED97E0DF91B3
:100C4000CF911F910C9485071F93CF93DF93EC01F5
:100C5000ED89FE8910810E949B03ED89FE89108336
:100C6000DF91CF911F9108951F920F920FB60F92AF
:100C700011242F933F934F935F936F937F938F93A1
:100C80009F93AF93BF93EF93FF938091470287FFAA
:100C900005C010928500109284001AC0209147026E
:100CA000332727FD30958091460290E028173907B9
:100CB0007CF480914702992787FD9095FC01EE0F07
:100CC000FF1FE80FF91FE85BFD4F808186FD15C00F
:100CD000809147028F5F809347022091470233271C
:100CE00027FD30958091460290E028173907BCF423
:100CF000809147028C305CF112C0809147029927A5
:100D000087FD9095FC01EE0FFF1FE80FF91FE85BD0
:100D1000FD4F808160E08F730E944508D9CF80919C
:100D2000840090918500049680349C4918F480E4F6
:100D30009CE905C080918400909185000496909371
:100D40008900809388008FEF8093470238C02091FC
:100D500084003091850080914702992787FD909506
:100D6000FC01EE0FFF1FE80FF91FE85BFD4F8181CB
:100D70009281820F931F90938900809388008091C5
:100D80004702992787FD9095FC01EE0FFF1FE80FA2
:100D9000F91FE85BFD4F808186FF11C080914702FB
:100DA000992787FD9095FC01EE0FFF1FE80FF91FB3
:100DB000E85BFD4F808161E08F730E944508FF91E1
:100DC000EF91BF91AF919F918F917F916F915F91C3
:100DD0004F913F912F910F900FBE0F901F9018953C
:100DE0001F920F920FB60F9211242F933F938F9360
:100DF0009F93AF93BF9380916D0290916E02A091EB
:100E00006F02B091700230916C0223E0230F2D37F6
:100E100020F40196A11DB11D05C026E8230F0296FE
:100E2000A11DB11D20936C0280936D0290936E0200
:100E3000A0936F02B0937002809171029091720240
:100E4000A0917302B09174020196A11DB11D80930F
:100E5000710290937202A0937302B0937402BF91D7
:100E6000AF919F918F913F912F910F900FBE0F9057
:100E70001F9018953FB7F89480917102909172027B
:100E8000A0917302B091740226B5A89B05C02F3FB4
:100E900019F00196A11DB11D3FBF6627782F892F3C
:100EA0009A2F620F711D811D911D42E0660F771F01
:100EB000881F991F4A95D1F70895CF92DF92EF923C
:100EC000FF92CF93DF936B017C010E943A07EB0105
:100ED000C114D104E104F10489F00E946B0C0E945A
:100EE0003A076C1B7D0B683E734090F381E0C81A93
:100EF000D108E108F108C851DC4FEACFDF91CF916A
:100F0000FF90EF90DF90CF900895019739F0880F10
:100F1000991F880F991F02970197F1F70895789408
:100F200084B5826084BD84B5816084BD85B58260EE
:100F300085BD85B5816085BDEEE6F0E0808181608C
:100F40008083E1E8F0E0108280818260808380818C
:100F500081608083E0E8F0E0808181608083E1EB64
:100F6000F0E0808184608083E0EBF0E0808181604C
:100F70008083E1E9F0E0808182608083808181600C
:100F80008083E0E9F0E0808181608083EAE7F0E03F
:100F900080818460808380818260808380818160A1
:100FA0008083808180688083089590E0FC01319780
:100FB000EB30F10580F5E45BFF4F0C94890E8091D6
:100FC00080008F7703C0809180008F7D80938000A8
:100FD000089580918000877FF9CF84B58F7702C014
:100FE00084B58F7D84BD08958091B0008F7703C054
:100FF0008091B0008F7D8093B00008958091900023
:101000008F7707C0809190008F7D03C08091900002
:10101000877F809390000895CF93DF9390E0FC0149
:10102000E252FF4F2491FC01E25FFE4F849188233E
:1010300049F190E0880F991FFC01E45BFE4FA591F8
:10104000B491825C9E4FFC01C591D4919FB7611110
:1010500008C0F8948C91209582238C9388818223F8
:101060000AC0623051F4F8948C91322F309583236A
:101070008C938881822B888304C0F8948C91822B76
:101080008C939FBFDF91CF9108950F931F93CF93C0
:10109000DF931F92CDB7DEB7282F30E0F901E2557C
:1010A000FF4F8491F901E252FF4F1491F901E25F81
:1010B000FE4F04910023C9F0882321F069830E9428
:1010C000D5076981E02FF0E0EE0FFF1FE25CFE4FD5
:1010D000A591B4919FB7F8948C91611103C01095BC
:1010E000812301C0812B8C939FBF0F90DF91CF9103
:1010F0001F910F91089508950E948F070E947B0809
:1011000085E792E00E944A0C0E949F01C0E0D0E077
:101110000E94BB012097E1F30E940000F9CFCF921B
:10112000DF92EF92FF920F931F93CF93DF936C01A7
:101130007A01EB01E60EF71E00E010E0CE15DF05A8
:1011400061F06991D601ED91FC910190F081E02D63
:10115000C6010995080F191FF1CFC801DF91CF9182
:101160001F910F91FF90EF90DF90CF900895611540
:10117000710581F0DB010D900020E9F7AD014150D0
:101180005109461B570BDC01ED91FC910280F38164
:10119000E02D099480E090E008950C94B708409108
:1011A000790250917A0220917702309178024217A9
:1011B0005307B4F49091E8009570E1F39091E80042
:1011C00092FD19C08093F1008091790290917A028A
:1011D00001968F739927892B19F48EEF8093E8007D
:1011E0008091790290917A02019690937A0280938D
:1011F000790281E0089580E00895CF92DF92FF9216
:101200000F931F93CF93DF931F92CDB7DEB7082FB5
:10121000162F862F880F8E5F99830E94CF0883E058
:101220000E94CF08F02EC02E9981D92E8C2D8F19B7
:10123000811778F4F60184910E94CF08082F80E08E
:101240000E94CF088023FFEFCF1ADF0A8111EECF73
:1012500001C081E00F90DF91CF911F910F91FF901E
:10126000DF90CF900895615030F02091F100FC01A3
:1012700020830196F8CF84E680937C0208952FB7EF
:10128000FC012083F89467706093E9000895CF9380
:10129000DF931F92CDB7DEB7682FCE0101960E9473
:1012A0003F098091F20099819FBF0F90DF91CF910C
:1012B0000895FF920F931F93CF93DF9300D0CDB784
:1012C000DEB7F62E8A0190917B02992311F057FF29
:1012D00003C08FEF9FEF2AC0682FCE0101967A835B
:1012E0000E943F098091F20090E0A8017A81801766
:1012F00091070CF4AC01EF2DF72FF40E84E6FE16E7
:1013000031F080937C029091F1009193F8CF4115D8
:10131000510521F08091F200882321F089818FBF4F
:10132000CA0104C08BE68093E800F8CF0F900F90BD
:10133000DF91CF911F910F91FF900895CF93DF938D
:101340001F92CDB7DEB741E050E0BE016F5F7F4F27
:101350000E945909019719F4898190E002C08FEF2A
:101360009FEF0F90DF91CF910895CF93DF931F925E
:10137000CDB7DEB7682FCE0101960E943F0990914C
:10138000E800892F807295FF04C09091F20080E4FC
:10139000891B99819FBF0F90DF91CF9108956F9224
:1013A0007F928F929F92AF92BF92CF92DF92EF92F5
:1013B000FF920F931F93CF93DF931F92CDB7DEB7AA
:1013C000782E7B01C42EB52E80917B02882369F094
:1013D000042F152F8AEFD82E872D8072982E9AE32E
:1013E000A92E872D8074882E11C08FEF9FEF56C0D5
:1013F000872D0E94B509682E81110CC0DA94A9F3DB
:1014000061E070E080E090E00E945D070115110549
:1014100079F73BC0282F30E0021713070CF4602E39
:10142000672DCE0101960E943F098091E80085FF5B
:1014300029C0262D30E0021B130B992039F06A9445
:101440008FEF6816B1F01092F100F9CFF701862DF9
:1014500077FE07C0815058F094919093F100319637
:10146000F9CF815020F091919093F100FACFE20EE4
:10147000F31E8091E80085FF0EC00115110511F4DF
:10148000811009C089818FBFC1CF84E680937D021E
:101490008C2D9B2D03C0A092E800F4CF0F90DF911C
:1014A000CF911F910F91FF90EF90DF90CF90BF9061
:1014B000AF909F908F907F906F9008951092E90069
:1014C00010927A02109279029093780280937702B8
:1014D0000895CF92DF92FF920F931F93CF93DF93E4
:1014E00000D0CDB7DEB7F82E8A016B0101151105CA
:1014F000B1F0F601F7FE02C0849101C080814983FA
:101500005A830E94CF0801501109FFEFCF1ADF0A5A
:1015100049815A818111EACF8FEF9FEF01C0CA0143
:101520000F900F90DF91CF911F910F91FF90DF905F
:10153000CF9008951F93CF93DF931F92CDB7DEB75F
:10154000162F2091E80022FFFCCF612F79830E94A3
:1015500033098BEF8093E800812F7981972F0F90CB
:10156000DF91CF911F910895CF93DF931F92CDB755
:10157000DEB71982CE0101960E94C90CCE010196F8
:101580000E94640D898190E00F90DF91CF910895C2
:101590001F920F920FB60F921124EF92FF920F93AA
:1015A0001F932F933F934F935F936F937F938F93EB
:1015B0009F93AF93BF93EF93FF93CF93DF93CDB7F9
:1015C000DEB76297DEBFCDBF1092E9008091E800E0
:1015D00083FFEBC068E0CE010A960E94330982EFD8
:1015E0008093E8009A8597FF05C08091E80080FF0E
:1015F000FCCF03C08EEF8093E800892F807609F03E
:10160000B9C08B85811105C01092F1001092F100D4
:10161000C5C0282F2D7F213009F4C0C0853049F482
:101620008091E80080FFFCCF8C8580688093E30088
:10163000B5C0863009F076C02D85E888F98822305B
:1016400071F580E090E02A8B0E945E0A0E94B40A45
:1016500099E08E010F5F1F4FF801392F11923A95D3
:10166000E9F799832A892A8391E09E8390E89887F5
:101670009AEF99872091790230917A02275F3F4F44
:101680003C832B838D83C7010E945E0A49E050E0B2
:10169000B80180E00E94690A0E94B40A7FC0C701B5
:1016A0002A8B0E945E0A2A89223241F482E290E06B
:1016B0000E946F0D892B09F071C074C0213069F44C
:1016C00088899989089711F420937602809176028F
:1016D000811118C061E771E01AC0233009F062C0BF
:1016E0008C85882391F0823021F46FE08EE891E0C0
:1016F00006C0813009F056C06AE083E891E00E949C
:10170000FD084AC06FE571E002C06EE971E0611545
:10171000710509F447C0FB01449150E080E80E9444
:10172000690A3CC0873009F43DC0883021F481E06B
:101730008093F10033C0893089F5937099F5EBE51A
:10174000F1E081E021E096E38093E9002093EB0053
:1017500034913093EC009093ED008F5F319685309B
:1017600099F78EE78093EA001092EA008C858093C7
:101770007B0214C0888999890E945E0A8E85811136
:1017800005C0CE010A960E94D40C06C0823051F4E6
:10179000CE010A960E94970D882321F08EEF809348
:1017A000E80003C081E28093EB0062960FB6F894E4
:1017B000DEBF0FBECDBFDF91CF91FF91EF91BF9103
:1017C000AF919F918F917F916F915F914F913F91D9
:1017D0002F911F910F91FF90EF900F900FBE0F90E0
:1017E0001F9018958093E9008091F200882319F0EA
:1017F0008AE38093E80008951F920F920FB60F922C
:1018000011242F933F934F935F936F937F938F9305
:101810009F93AF93BF93EF93FF938091E10010925A
:10182000E10083FF0FC01092E90091E09093EB007C
:101830001092EC0092E39093ED0010927B0298E0FE
:101840009093F00082FF15C083E00E94F20B80911C
:101850007D02882329F080917D02815080937D0252
:1018600080917C02882329F080917C0281508093B2
:101870007C02FF91EF91BF91AF919F918F917F91EA
:101880006F915F914F913F912F910F900FBE0F90ED
:101890001F90189510927B028091D70081608093F1
:1018A000D70080EA8093D80088E189BD89B582603D
:1018B00089BD09B400FEFDCF61E070E080E090E0FA
:1018C0000E945D0780E98093D8008CE08093E2005D
:1018D0001092E00008950895CF93DF931F92CDB743
:1018E000DEB76983DC01ED91FC910280F381E02D8C
:1018F00041E050E0BE016F5F7F4F09950F90DF918F
:10190000CF910895CF93DF93EC018C859D8597FF50
:1019100005C082E00E949E099D878C878C859D85ED
:10192000DF91CF91089583E00C94F20BFC01848544
:10193000958597FD06C082E00E94470990E00196D8
:10194000089582E00E94470990E00895FC01848593
:10195000958597FD05C02FEF3FEF358724870895C4
:1019600082E00C949E09CF93DF93EC0180911101EA
:10197000882331F083E00E94CF091816190634F04D
:1019800081E090E09B838A8380E090E0DF91CF91BB
:101990000895FC0120812E5F208342E450E062EA3A
:1019A00071E080E80C94690AFC0181819081913A90
:1019B00059F4813209F03CC047E050E06AE071E040
:1019C00080E00E94690A43C0913291F5803239F477
:1019D00067E070E08AE091E00E949A0A06C08232D5
:1019E00009F035C082818093110180910A019091A4
:1019F0000B01A0910C01B0910D01803B9440A10519
:101A0000B105C1F48091110180FD14C087E797E70B
:101A100090930108809300082BE088E190E00FB6D6
:101A2000F894A895809360000FBE209360000FC0CB
:101A300080E0089588E10FB6F894809360001092DA
:101A400060000FBEA895109201081092000881E076
:101A50000895109281021092800288EE93E0A0E037
:101A6000B0E08093820290938302A0938402B093AB
:101A7000850285E591E090937F0280937E028FEF4F
:101A80009FEF90938B0280938A020895FF920F93A9
:101A90001F93CF93DF93EC01F62EE881F981048048
:101AA000F581E02D09958C01E881F9810680F781A7
:101AB000E02D6F2DCE010995C8019927DF91CF91B7
:101AC0001F910F91FF900895FC0120812F5F2083CB
:101AD00049E150E064E672E080E80C94690A45E66A
:101AE00050E06DE772E080E80C94690AEF92FF9293
:101AF0000F931F93CF93DF931F92CDB7DEB78983E8
:101B00008B017A0141E050E0BE016F5F7F4F84E0BE
:101B10000E94CF09A701B80184E40E94CF090F9069
:101B2000DF91CF911F910F91FF90EF900895FC01ED
:101B300091818081813A31F481E0913091F093304C
:101B400089F411C0813271F49B3021F48281809339
:101B5000130105C09A3031F482818093120181E033
:101B60000895089580E0089548E050E082E00C94E4
:101B7000760DCF93DF93DC01683818F0E8E7E60FC5
:101B800025C0E62FF0E067FF11C0E058F10981E0C1
:101B900090E001C0880FEA95EAF714969C9114979B
:101BA000982B14969C931497E0E010C0EC51FE4FD4
:101BB000E491EE2309F440C0E7FF08C014968C912D
:101BC0001497826014968C931497EF7716968C91E5
:101BD00016978E1741F117968C9117978E1719F15A
:101BE00018968C9118978E17F1F019968C91199779
:101BF0008E17C9F01A968C911A978E17A1F01B9622
:101C00008C911B978E1779F080E090E0ED01C80F62
:101C1000D91F2E81211102C0EE8305C001968630A6
:101C20009105A1F709C0BD016C5F7F4FCD010E94F6
:101C3000B40D81E090E008C081E090E013969C93A1
:101C40008E93129780E090E0DF91CF9108956838ED
:101C500018F0E8E7E60F25C0E62FF0E067FF12C0B6
:101C6000E058F10921E030E001C0220FEA95EAF7DF
:101C70002095DC0114963C911497322314963C93E2
:101C8000E0E00FC0EC51FE4FE491EE2329F1E7FFB5
:101C900008C0DC0114962C9114972D7F14962C9378
:101CA000EF7720E030E0EE2351F0DC01A20FB31F0C
:101CB00016964C9116974E1302C016961C922F5FE3
:101CC0003F4F2630310579F7BC016C5F7F4F0E9492
:101CD000B40D81E090E0089580E090E00895FC016B
:101CE0001682178210861186128613861482BC0112
:101CF0006C5F7F4F0C94B40D1092DA021092D102F7
:101D00001092D00285E691E09093CF028093CE02AC
:101D10000895EE0FFF1F0590F491E02D0994F894BB
:101D2000FFCF0000DB0280000100000000E10000A6
:101D3000000000000101000040001400540057653D
:101D40006C636F6D6520746F004477656E677569AD
:101D50006E6F00000000009B038F0800000000F978
:101D600003CC03A103A903BC03CB030000000024A0
:101D7000068F08000000006C0CB30C960CA60C82B9
:101D80000C930C00000000460D8F08B90D270E6F54
:101D90000E00FFFFFFFFFFFFFFFFFFFFFFFFFFFF43
:101DA000FFFFFFFFFFFFFFFFFFFFFFFFFFFFFFFF43
:101DB000FFFFFFFFFFFFFFFFFFFFFFFFFFFFFFFF33
:101DC000FFFFFFFFFFFFFFFFFFFFFFFFFFFFFFFF23
:101DD000FFFFFFFFFFFFFFFFFFFFFFFFFFFFFFFF13
:10F0000055C000006EC000006CC000006AC0000067
:10F0100068C0000066C0000064C0000062C000005C
:10F0200060C000005EC000009FC400005AC0000025
:10F0300058C0000056C0000054C0000052C000007C
:10F0400050C00000CCC000004CC000004AC000000E
:10F0500048C0000046C0000044C0000042C000009C
:10F0600040C000003EC000003CC000003AC00000AC
:10F0700038C0000036C0000034C0000032C00000BC
:10F0800030C000002EC000002CC000002AC00000CC
:10F0900028C0000026C000001B7E347ED87E347E4F
:10F0A000D87E697E8B7ED87EAB7EBD7E11241FBE4E
:10F0B000CFEFD0E1DEBFCDBF11E0A0E0B1E0EAE3E9
:10F0C000FEEF02C005900D92AC3AB107D9F721E0EE
:10F0D000ACEAB1E001C01D92AE3BB207E1F72AD322
:10F0E000AAC68ECF84E08093E9008091E80085FD78
:10F0F0000EC08091E8008B778093E8008091E80053
:10F1000082FDF3CF8EB38111F9CF80E00895809115
:10F11000F100089593E09093E9009091E80095FF45
:10F1200003C08093F10008959091E8009E7790933A
:10F13000E8009091E80090FDF4CF9EB39111F9CFD3
:10F140000895F89410926F0010928100109285003B
:10F150001092840081E085BF15BE29980C940000B0
:10F1600008958091B2019091B30101969093B301FB
:10F170008093B201292F97FF02C02EEF291B281779
:10F1800010F429980895299A089584B7877F84BF39
:10F1900088E10FB6F89480936000109260000FBE73
:10F1A00090E080E80FB6F89480936100909361003E
:10F1B0000FBE81E085BF82E085BF219AE1E6F0E0E5
:10F1C00090E8908310822998109289009AEF90938A
:10F1D000880080936F0083E080938100AFC31F920B
:10F1E0000F920FB60F9211242F938F939F93EF934B
:10F1F000FF931092850010928400E0E0F0E085918A
:10F200009491019649F08091AC019091AD010196E5
:10F210009093AD018093AC01FF91EF919F918F91FD
:10F220002F910F900FBE0F901F90189542E061EC48
:10F2300082E012D342E161E883E00ED342E160E86C
:10F2400084E00AC38091B601982F9F77913239F5F7
:10F250009091B701903291F0913209F5813AF9F429
:10F260008091E800877F8093E80067E070E083E0AA
:10F2700091E02BD48091E8008B770FC0813279F434
:10F280008091E800877F8093E80067E070E083E08A
:10F2900091E072D48091E8008E778093E800089521
:10F2A0004F925F926F927F928F929F92AF92BF9296
:10F2B000CF92DF92EF92FF92CF93DF9384E080931F
:10F2C000E9008091E80082FF26C20CDFD82F853448
:10F2D00081F48CE49DE19093AD018093AC0107B67D
:10F2E00000FCFDCFF999FECF81E180935700E895AE
:10F2F00003C0843521F4F6DE8DE00CDFE3C18C34ED
:10F30000D9F38035C9F3843711F484E46AC08136B7
:10F3100011F489E5F2CF813491F4E4DEC82FE2DE06
:10F3200090E0880F991F2C2F30E0322F2227330FC7
:10F33000822B932BAA2797FDA095BA2F97C18037D0
:10F3400011F483E5DACF833549F4C2EAD1E089913B
:10F35000E1DE21E0C93AD207D1F7B4C1863521F404
:10F3600081E3D8DE80E3C9CF833731F482E8D2DE8F
:10F3700086E9D0DE8EE1C1CF8536B1F4E0E0F0E081
:10F3800083E095E080935700E89507B600FCFDCF39
:10F3900090935700E89507B600FCFDCFF395E11573
:10F3A00020EFF20779F7A8CF823719F4E1E0F0E017
:10F3B0000EC0863419F4E0E0F0E009C08E3419F490
:10F3C000E3E0F0E004C0813539F4E2E0F0E089E008
:10F3D00080935700849191CF823631F489E59ADE8B
:10F3E00081E098DE80E089CF823419F0873609F019
:10F3F000D5C01092AD011092AC0174DED82E72DE31
:10F40000E82E70DEC82F8BEB8C0F823010F08FE36C
:10F4100074CFF12CFD2810926F00D73609F045C04B
:10F4200081E180935700E8955701912CD1E0A11418
:10F43000B10409F4AFC0C090AE01D090AF01E0902C
:10F44000B001F090B101C634B9F4E92DF0E0EC2937
:10F45000FD2984915FDE992069F082E0C80ED11CFD
:10F46000E11CF11CC092AE01D092AF01E092B0015C
:10F47000F092B1019D2615C0D701C601B695A7959A
:10F4800097958795C2D446DEE2E0CE0ED11CE11CF2
:10F49000F11CC092AE01D092AF01E092B001F092A7
:10F4A000B101F1E0AF1AB108C2CF8090AE019090E7
:10F4B000AF01A090B001B090B101C63421F0C12CD1
:10F4C000D12CD1E030C083E0F40180935700E8955F
:10F4D00007B600FCFDCFF3CFC63461F5DD2039F16E
:10F4E0004090AE015090AF016090B0017090B101BA
:10F4F000F9DD2C2D30E0382BF2010901D0935700B3
:10F50000E8951124F2E04F0E511C611C711C4092D1
:10F51000AE015092AF016092B0017092B101DD2650
:10F5200021E0E21AF108E114F104B1F627C0DADDB6
:10F53000C82EF5CFD7DD682F8091AE019091AF0135
:10F54000A091B001B091B101B695A7959795879517
:10F5500064D44091AE015091AF016091B0017091BF
:10F56000B1014E5F5F4F6F4F7F4F4093AE0150939D
:10F57000AF016093B0017093B101D2CFC63441F4B2
:10F5800085E0F40180935700E89507B600FCFDCFB5
:10F590008DE0C0DD82E080936F0094C0833471F40D
:10F5A000C091AE01D091AF019DDD90E021E0FE0160
:10F5B0000C0120935700E89511249ECE833601F567
:10F5C000C090AE01D090AF01E090B001F090B101D9
:10F5D00089DDF601E16090E021E00C012093570005
:10F5E000E8951124F2E0CF0ED11CE11CF11CC09271
:10F5F000AE01D092AF01E092B001F092B1017CCEA9
:10F600008D3661F4E091AE01F091AF0185E0809319
:10F610005700E89507B600FCFDCF6ECE823551F459
:10F62000E091AE01F091AF01C591D4918D2F72DDC3
:10F630008C2F63CE843419F555DD682F8091AE018F
:10F640009091AF01A091B001B091B101B695A7958D
:10F6500097958795E2D38091AE019091AF01A091EB
:10F66000B001B091B1010296A11DB11D8093AE0110
:10F670009093AF01A093B001B093B1013DCE843619
:10F68000F1F4C090AE01D090AF01E090B001F090E5
:10F69000B101D701C601B695A79597958795B5D3C2
:10F6A00039DD22E0C20ED11CE11CF11CC092AE017A
:10F6B000D092AF01E092B001F092B10103C08B3162
:10F6C00009F0A5CE83E08093E9009091E800809155
:10F6D000E8008E778093E80095FD11C08091E800E6
:10F6E00080FD04C08EB38111F9CF15C08091E80070
:10F6F0008E778093E80003C08EB3882361F08091F9
:10F70000E80080FFF9CF84E08093E9008091E80071
:10F710008B778093E800DF91CF91FF90EF90DF909F
:10F72000CF90BF90AF909F908F907F906F905F90A1
:10F730004F9008958091000890910108109201085F
:10F740001092000844B714BE28E10FB6F894209335
:10F750006000109260000FBE6A98729AEFE9FFE0B5
:10F760003197F1F700C0000041FF0BC0629B09C058
:10F77000E0E0F0E0259134912F3F3F4F11F0E1DCC4
:10F7800018C040FF07C0E0E0F0E0259134912F3F22
:10F790003F4FA9F743FF0DC02091000130910101B7
:10F7A0008217930731F0E0E0F0E0859194910196A3
:10F7B00031F7EBDC78941092AD011092AC0180919E
:10F7C0000201882369F06CDD09D38091AC0190912E
:10F7D000AD0181349F4110F010920201C2DCEFCFE5
:10F7E0008091E00081608093E000ABDC80E090E0FD
:10F7F0000895292F30E02230310539F023303105CA
:10F8000049F02130310561F410C08EE390E022E52B
:10F8100031E01EC0882371F0813089F08230A1F080
:10F8200080E090E020E030E013C082E190E020E949
:10F8300031E00EC084E090E02EE431E009C08AE2BD
:10F8400090E022E231E004C086E190E02AE031E07D
:10F85000FA013183208308958093E900EBEEF0E014
:10F86000808181608083EDEEF0E010826093EC0097
:10F8700040838091EE00881F8827881F089580911B
:10F88000B60187FD05C08091E80080FF0DC010C063
:10F890008091E80082FD04C08EB38111F9CF0895F4
:10F8A0008091E8008B7707C08EB38111ECCF08956B
:10F8B0008091E8008E778093E80008950F931F935E
:10F8C000CF93DF9344D04BD0C8EDD0E088818F77C1
:10F8D000888388818068888388818F7D8883E7ED2D
:10F8E000F0E080818068808319BC1EBA1092B40158
:10F8F00000EE10E0F80180818B7F80838881816039
:10F90000888342E060E080E0A7DFE1EEF0E0808104
:10F910008E7F8083E2EEF0E0808181608083808151
:10F9200088608083F80180818E7F808388818061F8
:10F930008883DF91CF911F910F910895E7EDF0E05B
:10F9400080818160808381E08093B501B7CFE8ED4D
:10F95000F0E080818C7F80831092E2000895109205
:10F96000DA001092E10008951F920F920FB60F92E5
:10F9700011242F933F934F935F936F937F938F93B4
:10F980009F93AF93BF93EF93FF938091DA0080FF33
:10F990001BC08091D80080FF17C08091DA008E7F55
:10F9A0008093DA008091D90080FF0BC088E189BD87
:10F9B0008AE189BD09B400FEFDCF81E08EBB0DD286
:10F9C00003C019BC1EBA09D28091E10080FF17C0A4
:10F9D0008091E20080FF13C08091E2008E7F8093CF
:10F9E000E2008091E20080618093E2008091D80083
:10F9F00080628093D80019BC85E08EBBEED18091E7
:10FA0000E10084FF2CC08091E20084FF28C088E1DF
:10FA100089BD8AE189BD09B400FEFDCF8091D8007F
:10FA20008F7D8093D8008091E1008F7E8093E100EC
:10FA30008091E2008F7E8093E2008091E2008160FD
:10FA40008093E2008091B401811104C08091E300B1
:10FA500087FF02C084E001C081E08EBBBED18091EF
:10FA6000E10083FF21C08091E20083FF1DC08091EF
:10FA7000E100877F8093E10082E08EBB1092B401A9
:10FA80008091E1008E7F8093E1008091E2008E7F83
:10FA90008093E2008091E20080618093E20042E086
:10FAA00060E080E0D9DE99D1FF91EF91BF91AF91F5
:10FAB0009F918F917F916F915F914F913F912F9186
:10FAC0000F900FBE0F901F9018952091BC013091A0
:10FAD000BD012617370748F06115710539F42091EB
:10FAE000E8002E772093E80001C0B901FC0120E076
:10FAF0006115710591F18EB38823D1F18530D1F173
:10FB00008091E80083FD32C08091E80082FF06C04A
:10FB10008091E80082FF24C080E008958091E80091
:10FB200080FFE6CF8091F2009091F300611571059E
:10FB300051F08830910538F421912093F100615003
:10FB400071090196F3CF21E0089709F020E0809138
:10FB5000E8008E778093E800CBCF2111CCCFD8CFAF
:10FB60008EB3882329F0853099F604C081E008958A
:10FB700082E0089583E008956115710529F42091CC
:10FB8000E8002B772093E8006115710521F12EB371
:10FB9000222351F1253051F12091E80023FD20C0AE
:10FBA0002091E80022FFF3CFFC01CF012091F20069
:10FBB0003091F300232B19F38091F1008193CF0151
:10FBC000615071096115710581F7D9CF8EB3882312
:10FBD00059F0853059F08091E80080FFF7CF02C0DE
:10FBE00081E0089580E0089582E0089583E008951B
:10FBF0000F931F93CF93DF9300D0CDB7DEB7E6EB23
:10FC0000F1E08091F100819381E0EE3BF807C9F7C4
:10FC100019DB8091E80083FFCBC02091B6013091C1
:10FC2000B701832F90E08A30910508F0C1C0FC0134
:10FC3000E45BF748E4C0223809F0BAC08091BA0109
:10FC400087708093E9009091EB001092E900809119
:10FC5000E800877F8093E80095FB882780F98093F0
:10FC6000F1001092F10082C0822F8D7F09F0A0C0B8
:10FC7000223009F09DC08091B801811124C02091EB
:10FC8000BA01277009F494C02093E9008091EB0039
:10FC900080FF19C08091EB00333011F4806211C0F5
:10FCA00080618093EB0081E090E0022E01C0880F1C
:10FCB0000A94EAF78093EA001092EA008091EB0040
:10FCC00088608093EB001092E9008091E800877FC4
:10FCD00050C021116DC01091B8011F770FB7F89473
:10FCE0008091E800877F8093E800C9DD8091E8007B
:10FCF00080FFFCCF8091E3008078812B8093E3002C
:10FD000080688093E300112311F083E001C082E05A
:10FD10008EBB0FBF4DC02058223008F049C0AE0145
:10FD20004F5F5F4F6091BA018091B8019091B90126
:10FD300060DD009709F43CC02091E800277F209304
:10FD4000E800BC0189819A81C0DE8091E8008B7750
:10FD50008093E8002DC0203859F58091E800877F16
:10FD60008093E8008091B4018093F1008091E800D5
:10FD70008E778093E80083DD1BC0211119C090911C
:10FD8000B8019230A8F48091E800877F8093E80062
:10FD90009093B40174DD8091B401811104C080910D
:10FDA000E30087FF02C084E001C081E08EBB3EDA41
:10FDB0008091E80083FF0AC08091EB00806280930D
:10FDC000EB008091E800877F8093E8000F900F9010
:10FDD000DF91CF911F910F9108950895CF938EB326
:10FDE000882359F0C091E900C7701092E900809112
:10FDF000E80083FDFDDEC093E900CF910895EE0F8A
:10FE0000FF1F0590F491E02D0994F999FECF92BD62
:10FE100081BDF89A992780B50895262FF999FECFCC
:10FE20001FBA92BD81BD20BD0FB6F894FA9AF99A17
:10FE30000FBE01960895F894FFCF77770100000078
:10FE40000000000816034400770065006E0067009C
:10FE50006F0020004C004C00430000002A034400C7
:10FE6000770065006E006700750069006E006F0026
:10FE7000200042006F006F0074006C006F00610092
:10FE800064006500720000000403090409023E00DA
:10FE90000201008032090400000102020100052471
:10FEA0000010010424020405240600010705820352
:10FEB0000800FF09040100020A000000070504020F
:10FEC0001000010705830210000112011001020059
:10FED0000008E0D31B6001000201000143415445CA
:06FEE00052494E410000F2
:00000001FF
