:100000000C9495010C94BD010C94BD010C94BD01A0
:100010000C94BD010C94BD010C94BD010C94BD0168
:100020000C94BD010C94BD010C9440080C9469091A
:100030000C94BD010C94BD010C94BD010C94BD0148
:100040000C94BD010C94BD010C94BD010C94BD0138
:100050000C94BD010C94BD010C94BD010C94C20420
:100060000C94BD010C94BD010C94BD010C94BD0118
:100070000C94BD010C94BD010C94BD010C94BD0108
:100080000C94BD010C94BD010C94BD010C94BD01F8
:100090000C94BD010C94BD01000021002400270038
:1000A0002A002D00300000002200250028002B002F
:1000B0002E003100000020002300260029002C0023
:1000C0002F000404020204020204040402020202D9
:1000D00004040505050505050505060606060606CC
:1000E00006060101010101010101030303030303EA
:1000F00003030408048080402040201001100802FF
:1001000001028040201008040201804020100804F1
:10011000020101020408102040800102040810209E
:1001200040800000000500040300000000070000FC
:1001300002080000000000000000000000000000B5
:1001400000000000000000000000000000000B0A9A
:10015000090007060504030201001F1F1F1F1F1FC0
:100160001F1F1F1F1F1F1F1F1F1F0706050403023E
:1001700001001F1F1F1F1F1F1F1F1F1F1F1F1F1FCC
:100180001F1F08090A0B0C0D0E0F10111213141566
:10019000161718191A1B1C1D1E1F04030904447787
:1001A000656E6775696E6F20426F61726400447797
:1001B000656E676F204C4C43001201000200000086
:1001C00040E0D31A600001010200011201000202A6
:1001D000000040E0D31A6000010102000100C1806C
:1001E00081C1080B000202020100090400000102A3
:1001F000020000052400100105240101010424026D
:1002000006052406000107058103100040090401CA
:1002100000020A00000007050202400000070583F3
:100220000240000005010902A1010901A1008501A8
:10023000050919012903150025019503750181029E
:1002400095017505810305010930093109381581CA
:10025000257F750895038106C0C005010906A10127
:100260008502050719E029E71500250175019508A4
:1002700081029501750881039506750815002565AD
:100280000507190029658100C00904020001030067
:1002900000000921010100012265000705840340D7
:1002A000000100000000000000002A2B28000000D0
:1002B000000000000000000000000000000000003E
:1002C00000002C9EB4A0A1A2A434A6A7A5AE362DF2
:1002D0003738271E1F20212223242526B333B62E8C
:1002E000B7B89F8485868788898A8B8C8D8E8F90FE
:1002F0009192939495969798999A9B9C9D2F3130C3
:10030000A3AD350405060708090A0B0C0D0E0F10E6
:100310001112131415161718191A1B1C1DAFB1B0A2
:10032000B5005E048608CF0AD90B11241FBECFEF9B
:10033000D0E1DEBFCDBF11E0A0E0B1E0E4EDF9E136
:1003400002C005900D92A635B107D9F711E0A6E5D8
:10035000B1E001C01D92A03EB107E1F713E0CAE28F
:10036000D3E004C02297FE010E94E40CC232D10700
:10037000C9F70E9483060C94E80C0C9400008DE0F1
:1003800061E00E944F0668EE73E080E090E00E941A
:100390005A058DE060E00E944F0668EE73E080E051
:1003A00090E00E945A0508950F931F930E949B04AA
:1003B0008DE061E00E94C20506E511E0C8010E94DF
:1003C0001004C80160E071E00E94DE06C80160E030
:1003D00041E00E94BF02C8016BE071E00E94DE06AE
:1003E0008AEA82B91F910F9108950F931F938C0190
:1003F000FC01868160E00E944F0681E090E00E944F
:100400000A05F801868161E00E944F0681E090E0D4
:100410000E940A05F801868160E00E944F0684E68A
:1004200090E00E940A051F910F910895CF92DF92EC
:10043000EF92FF920F931F93CF93DF93D82EC92E85
:10044000282F392FC9018C01C0E0D0E0E62EFF240F
:10045000F801878161E00E94C205B7010C2E02C03D
:10046000759567950A94E2F76170F80187810E949B
:100470004F0621960F5F1F4FC830D10549F78D2DCC
:100480009C2D0E94F501DF91CF911F910F91FF905C
:10049000EF90DF90CF900895CF92DF92EF92FF928E
:1004A0000F931F93CF93DF93D82EC92E282F392F68
:1004B000C9018C01C0E0D0E0E62EFF24F80187815D
:1004C00061E00E94C205B7010C2E02C075956795C8
:1004D0000A94E2F76170F80187810E944F06219625
:1004E0000F5F1F4FC430D10549F78D2D9C2D0E9401
:1004F000F501DF91CF911F910F91FF90EF90DF9069
:10050000CF9008951F93CF93DF93EC01162F8C812A
:10051000642F0E944F068D818F3F19F060E00E948A
:100520004F068F8584FF05C0CE01612F0E94160201
:100530000EC0612F70E084E0759567958A95E1F7AC
:10054000CE010E944C02CE01612F0E944C02DF912D
:10055000CF911F91089541E00E94820281E090E0D6
:10056000089540E00E9482020895FC016089862F70
:100570008460808B6C60CF010E94B1020895DF938C
:10058000CF93CDB7DEB728970FB6F894DEBF0FBE76
:10059000CDBF9C01FE013196A7E2B1E088E00D904D
:1005A00001928150E1F7F9018389481710F0482F33
:1005B0004150E42FF0E0EE0FFF1FEC0FFD1F818193
:1005C000680F6068C9010E94B10228960FB6F894BE
:1005D000DEBF0FBECDBFCF91DF91089561E00E94D5
:1005E000B10280ED97E00E940A050895CF93DF9352
:1005F000EC01423018F08F8588608F874B8B1C8A06
:10060000222329F0413019F48F8584608F8780E59B
:1006100093EC0E940A058C8160E00E944F068E8157
:1006200060E00E944F068D818F3F19F060E00E94CC
:100630004F066F8564FD1DC0CE0163E00E944C0231
:1006400084E991E10E940A05CE0163E00E944C0218
:1006500084E991E10E940A05CE0163E00E944C0208
:1006600086E990E00E940A05CE0162E00E944C02F9
:1006700016C06062CE010E94B10284E991E10E943D
:100680000A056F856062CE010E94B10286E990E0A2
:100690000E940A056F856062CE010E94B1026F85DB
:1006A0006062CE010E94B10284E0888BCE010E947C
:1006B000B502CE010E94EE0282E0898BCE0166E097
:1006C0000E94B102DF91CF9108956F927F928F9235
:1006D000AF92CF92EF920F931F93DF93CF93CDB74B
:1006E000DEB73C01162F842FF30144832583068354
:1006F000E782C086A18682869D8593879E859487A2
:100700009F8595879889968761E00E94C205F301CD
:1007100085818F3F19F061E00E94C205F301868157
:1007200061E00E94C205112319F0F301178603C08E
:1007300080E1F3018787C30160E141E020E00E948E
:10074000F602CF91DF911F910F91EF90CF90AF9074
:100750008F907F906F9008956F927F928F92AF925B
:10076000BF92CF92DF92EF92FF920F931F93DF938E
:10077000CF93CDB7DEB7DC01362F542F722F102F59
:10078000FE2CDC2CBA2C13961C921E92129783E23C
:1007900091E011969C938E9300D000D06DB67EB6FA
:1007A0000894611C711CEDB7FEB781828889F30142
:1007B0008183898982838A898383CD0160E0432F85
:1007C000252F072FE12ECF2CAD2C8B2C0E946503FB
:1007D0000F900F900F900F90CF91DF911F910F917D
:1007E000FF90EF90DF90CF90BF90AF908F907F9071
:1007F0006F900895FF920F931F938C01DC01559623
:10080000ED91FC915697F0800E94AB02D80155966D
:10081000ED91FC915697F0821F910F91FF900895F2
:10082000FF920F931F938C01DC015596ED91FC9183
:100830005697F08061E00E94B102D8015596ED9183
:10084000FC915697F08280ED97E00E940A051F9177
:100850000F91FF9008956F927F928F92AF92CF92F7
:10086000EF920F93DF93CF93CDB7DEB73C0100D06B
:100870000F92EDB7FEB731968C85ADB7BEB7119626
:100880008C938D8581838E858283C3010E94AC0306
:1008900083E391E0F301918380838F859889968B20
:1008A000858B0F900F900F90CF91DF910F91EF906C
:1008B000CF90AF908F907F906F9008958F92AF926E
:1008C000CF92EF920F9300D000D00F92EDB7FEB70A
:1008D000319685E2ADB7BEB711968C9386E28183DF
:1008E00087E2828382E290E09483838386E591E0CD
:1008F00067E146E125E100E2E1E2EE2E72E2C72E79
:1009000053E2A52E34E2832E0E942B049CE29093A6
:100910006D018BE280936E0190936F018093700163
:100920000F900F900F900F900F900F91EF90CF902E
:10093000AF908F90089584E161E00E944F0686E5B4
:1009400091E060E142E020E00E94F6028FEF81B981
:1009500012B883E162E00E94C20582E162E00E9477
:10096000C20581E162E00E94C20580E162E00E946E
:10097000C2058FE262E00E94C2058EE261E00E9441
:10098000C20508951F920F920FB60F9211242F9354
:100990003F938F939F93AF93BF93809175019091F5
:1009A0007601A0917701B09178013091790101969B
:1009B000A11DB11D232F2D5F2D3720F02D5701963E
:1009C000A11DB11D2093790180937501909376014B
:1009D000A0937701B0937801809171019091720199
:1009E000A0917301B09174010196A11DB11D809376
:1009F000710190937201A0937301B0937401BF9140
:100A0000AF919F918F913F912F910F900FBE0F90BB
:100A10001F901895019739F0880F991F880F991F1B
:100A200002970197F1F70895789484B5826084BDA8
:100A300084B5816084BD85B5826085BD85B58160E2
:100A400085BDEEE6F0E0808181608083E1E8F0E042
:100A50001082808182608083808181608083E0E871
:100A6000F0E0808181608083E1EBF0E08081846050
:100A70008083E0EBF0E0808181608083E1E9F0E059
:100A8000808182608083808181608083E0E9F0E002
:100A9000808181608083EAE7F0E0808184608083E8
:100AA0008081826080838081816080838081806892
:100AB00080830895EF92FF920F931F93CF93DF935C
:100AC0007B018C013FB7F894809171019091720184
:100AD000A0917301B091740126B5A89B05C02F3F6A
:100AE00019F00196A11DB11D3FBFBA2FA92F982F54
:100AF0008827820F911DA11DB11D52E0880F991FFB
:100B0000AA1FBB1F5A95D1F7EC0130C00E94B60A4C
:100B10003FB7F8948091710190917201A091730197
:100B2000B091740126B5A89B05C02F3F19F001961E
:100B3000A11DB11D3FBFBA2FA92F982F8827820F63
:100B4000911DA11DB11D32E0880F991FAA1FBB1F67
:100B50003A95D1F78C1B9D0B885E9340B8F20894B0
:100B6000E108F10801091109C851DC4FE114F10451
:100B70000105110559F6DF91CF911F910F91FF905B
:100B8000EF900895CF93DF93482F50E0CA018E5025
:100B90009F4FFC0134914E535F4FFA01849188239B
:100BA00069F190E0880F991FFC01E856FF4FA5916D
:100BB000B491FC01EA55FF4FC591D491662351F4DD
:100BC0002FB7F8948C91932F909589238C938881DB
:100BD00089230BC0623061F42FB7F8948C91932F66
:100BE000909589238C938881832B88832FBF06C09F
:100BF0009FB7F8948C91832B8C939FBFDF91CF91FB
:100C00000895853029F1863068F4823051F18330BF
:100C100020F4813009F042C021C0833089F0843053
:100C2000E9F512C0893059F18A3028F48730E9F0AB
:100C30008830A1F51EC08A3031F18B3079F529C09A
:100C4000809180008F7707C0809180008F7D03C0E6
:100C500080918000877F80938000089584B58F778E
:100C600002C084B58F7D84BD08958091B0008F77D8
:100C700003C08091B0008F7D8093B0000895809173
:100C800090008F7703C0809190008F7D80939000BB
:100C9000089580919000877F809390000895FF923F
:100CA0000F931F93F62E482F50E0CA018E5D9E4F82
:100CB000FC012491CA018E509F4FFC0114914E53A8
:100CC0005F4FFA0104910023C9F0222319F0822F0B
:100CD0000E940106E02FF0E0EE0FFF1FEA55FF4FE4
:100CE000A591B4919FB7F894FF2021F48C911095B1
:100CF000812302C08C91812B8C939FBF1F910F91F8
:100D0000FF9008950895CF93DF930E9414050E94E9
:100D1000820682E891E00E9487080E94D401C0E028
:100D2000D0E00E94BF012097E1F30E940000F9CFBC
:100D3000CF92DF92EF92FF920F931F93CF93DF93A7
:100D40007C016B018A01C0E0D0E00FC0D6016D913B
:100D50006D01D701ED91FC910190F081E02DC7016B
:100D60000995C80FD91F015010400115110571F7E1
:100D7000CE01DF91CF911F910F91FF90EF90DF9007
:100D8000CF900895CF93DF93EC016115710519F4AD
:100D900020E030E00FC0DB010D900020E9F7119753
:100DA000A61BB70BE881F9810280F381E02DAD012C
:100DB00009959C01C901DF91CF9108950E94C20657
:100DC00008959FB7F89487708093E9008091F200AE
:100DD0009FBF0895282F80917C018823B9F057FF89
:100DE00019C014C090937B018091F1008193E217A8
:100DF000F307C1F74115510539F08091F2008823BE
:100E000019F48BE68093E800AFBF02C04FEF5FEFAD
:100E1000CA010895AFB7F89427702093E900809134
:100E2000F200282F30E0241735070CF4A901FB014C
:100E30009B01240F311D94E6DACFDF93CF930F92FD
:100E4000CDB7DEB7BE016F5F7F4F41E050E00E943B
:100E5000EA06019719F02FEF3FEF03C08981282F91
:100E600030E0C9010F90CF91DF910895FF920F9369
:100E70001F93F82E142F052F40917F015091800170
:100E8000212F302FC901DC01FB016EEF29C0F7FED5
:100E900002C0949101C0908120917D0130917E012A
:100EA00024173507ACF48091E8008570E1F3809158
:100EB000E80082FF03C02FEF3FEF17C09093F100CF
:100EC000C90101968F739070892B11F46093E8002B
:100ED0002F5F3F4F30937E0120937D011197319614
:100EE0001097A9F6812F902F9C01C9011F910F9196
:100EF000FF9008951F93782FE92F162F20917D01E1
:100F000030917E01A0917F01B09180012A173B07AB
:100F1000C4F48091E8008570E1F38091E80082FDDF
:100F200016C0812F90E00196880F991F8093F100E1
:100F3000C90101968F739070892B19F48EEF8093FD
:100F4000E8002F5F3F4F30937E0120937D01209179
:100F50007D0130917E012A173B07A4F48091E800BF
:100F60008570E1F38091E80082FD12C083E08093F8
:100F7000F100C90101968F739070892B19F48EEFDF
:100F80008093E8002F5F3F4F30937E0120937D01D7
:100F900040917D0150917E01872F9E2FFC0170E0D2
:100FA0006EEF43C094914A175B07A4F48091E80068
:100FB0008570E1F38091E80082FF02C020E00DC05F
:100FC0009093F100CA0101968F739070892B11F4F0
:100FD0006093E8004F5F5F4F21E04A175B07A4F47E
:100FE0008091E8008570E1F38091E80082FF02C003
:100FF00080E00DC01092F100CA0101968F739070CD
:10100000892B11F46093E8004F5F5F4F81E03196C8
:1010100090E030E082239323892B31F450937E01BA
:1010200040937D0180E009C07F5F711708F4BACF5B
:1010300050937E0140937D0181E01F9108959C01B2
:101040008091E80082FFFCCFF901260F311D03C01B
:101050008091F1008193E217F307D1F784E6809342
:101060007B018BEF8093E800CB0108958093E9002A
:101070008091F200882319F08AE38093E8000895B4
:101080001F920F920FB60F9211248F939F9380910E
:10109000E1001092E100982F83FF0FC01092E90049
:1010A00081E08093EB001092EC0082E38093ED00EE
:1010B00010927C0188E08093F00092FF20C083E0D2
:1010C0008093E9008091F200882319F08AE38093ED
:1010D000E80080917A01882339F080917A0181506B
:1010E00080937A0180917A0180917B01882339F085
:1010F00080917B01815080937B0180917B019F9146
:101100008F910F900FBE0F901F9018950895109219
:101110007C018091D70081608093D70080EA809322
:10112000D80088E189BD89B5826089BD09B400FE17
:10113000FDCF61E070E080E090E00E945A0580E918
:101140008093D8008CE08093E2001092E000089534
:101150005F926F927F928F929F92AF92BF92CF9247
:10116000DF92EF92FF920F931F93CF93DF93E82EBE
:10117000842E752E80917C01882371F18B01242FA0
:10118000352FC901EC01AAEFFA2EF7E09F2E9E2021
:10119000E0E45E2E8E2D90E070E2A72EB12CA82206
:1011A000B9226AE3662E50E4C52ED12CC822D9227A
:1011B0005CC09FB7F8949092E9008091E80085FDAB
:1011C00002C020E004C08091F200252D281B9FBFA3
:1011D000222361F4FA9419F42FEF3FEF50C061E03D
:1011E00070E080E090E00E945A053FC0822F90E0BE
:1011F000C817D9070CF42C2F4FB7F8949092E90038
:101200008091E80085FF30C0C21BD109A114B10450
:1012100021F406C01092F10021502223D9F719C001
:10122000E7FC03C0F801922F10C0C801322F06C09E
:10123000FC010196E491E093F10031503323C1F7B2
:1012400006C081918093F10091509923D1F7020F4C
:10125000111D8091E80085FF05C0209729F4C11475
:10126000D10411F06092E8004FBF209709F0A1CFA0
:1012700084E680937A01282D372DC9019C01C9018C
:10128000DF91CF911F910F91FF90EF90DF90CF9062
:10129000BF90AF909F908F907F906F905F900895D8
:1012A0000F931F93DF93CF930F92CDB7DEB71982C1
:1012B0008E010F5F1F4FC8010E943E0BC8010E94A4
:1012C000D60C898190E00F90CF91DF911F910F9103
:1012D00008951F920F920FB60F921124EF92FF9272
:1012E0001F932F933F934F935F936F937F938F93AE
:1012F0009F93AF93BF93EF93FF93DF93CF93CDB7BC
:10130000DEB76197DEBFCDBF1092E9008091E800A3
:1013100083FF13C1FE0131969E01275F3F4F03C03B
:101320008091F1008193E217F307D1F784E680936F
:101330007B0182EF8093E800998197FF05C080913F
:10134000E80080FFFCCF03C08EEF8093E800292FD8
:1013500030E0C90180769070892B09F0C7C08A817E
:10136000882329F41092F1001092F100DBC0813043
:1013700009F4D8C0833009F4D5C0853049F4809190
:10138000E80080FFFCCF8B8180688093E300CAC0B7
:10139000863009F081C01C81EF80F8841230C1F5DD
:1013A0001092E90010927E0110927D01109280014E
:1013B00010927F010E94500999E0FE013996DF01E9
:1013C000292F1D922A95E9F799871A8791E09E8720
:1013D00090E8988B9AEF998B20917D0130917E0156
:1013E000275F3F4F3C872B878D871092E900109233
:1013F0007E0110927D01F0928001E0927F0180E0F9
:10140000BF0149E050E00E9436070E9450098AC09F
:101410001092E90010927E0110927D01F0928001FD
:10142000E0927F01123241F482E290E00E94CE0C01
:10143000892B09F47BC076C0113079F488E0E81676
:10144000F10419F481E08093810180918101882366
:1014500009F070C0E9EBF1E018C0133009F066C084
:101460008B81882319F4EAE9F1E00FC0823021F47E
:101470008EE991E06FE006C0813009F057C08EEA36
:1014800091E06AE00E947A074BC0449180E8BF0176
:1014900050E00E94360746C0873009F447C08830C4
:1014A00021F481E08093F1003DC08930D9F52370AB
:1014B0003070232BD9F5EEEDF1E091E031E026E339
:1014C0009093E9003093EB0084918093EC0020939B
:1014D000ED009F5F3196953099F78EE78093EA0093
:1014E0001092EA008B8180937C011CC08F819885CB
:1014F0001092E90010927E0110927D01909380017C
:1015000080937F018D81882329F4CE0101960E946A
:101510004A0B06C0823051F4CE0101960E949F0B07
:10152000882321F08EEF8093E80007C081E280934A
:10153000EB0003C0EBECF1E0A8CF6196DEBFCDBFBE
:10154000CF91DF91FF91EF91BF91AF919F918F91DB
:101550007F916F915F914F913F912F911F91FF90DC
:10156000EF900F900FBE0F901F9018950895DF9386
:10157000CF930F92CDB7DEB7FC016983A081B18113
:1015800012962D913C911397BE016F5F7F4F41E002
:1015900050E0F90109950F90CF91DF9108951092D5
:1015A00086011092850188EE93E0A0E0B0E0809380
:1015B000870190938801A0938901B0938A018BE3FE
:1015C00091E090938401809383018FEF9FEF90933C
:1015D000900180938F010895CF93DF93EC01809168
:1015E0001C01882341F083E00E94A8081816190600
:1015F00014F49C0106C081E090E09B838A8320E084
:1016000030E0C901DF91CF91089583E00E94360850
:101610000895FC012485358537FD05C08FEF9FEFC8
:101620009587848704C082E00E941D079C01C90140
:101630000895CF93DF93EC018C859D8597FF05C0BE
:1016400082E00E941D079D878C878C859D85DF9198
:10165000CF910895FC018485958597FD08C082E0AF
:101660000E94E106282F30E02F5F3F4F05C082E047
:101670000E94E106282F30E0C9010895FC01808115
:101680008E5F808380E862EE71E042E450E00E9469
:1016900036070895FC0181819081913A59F4813295
:1016A00009F03CC080E065E171E047E050E00E9455
:1016B000360743C0913291F5803239F485E191E0EB
:1016C00067E070E00E941F0806C0823209F035C052
:1016D000828180931C018091150190911601A09147
:1016E0001701B0911801805B9440A040B040C1F454
:1016F00080911C0180FD14C087E797E79093010853
:10170000809300082BE088E190E00FB6F894A8954C
:10171000809360000FBE209360000FC080E00895AA
:1017200088E10FB6F89480936000109260000FBEBD
:10173000A895109201081092000881E00895FC011C
:1017400091818081813A31F4913089F080E0933049
:1017500089F40DC0813269F49B3021F48281809339
:101760001D0105C09A3029F4828180931E0181E019
:10177000089580E00895EF92FF920F931F938C01DC
:10178000E62EDC01ED91FC910480F581E02D0995B8
:10179000F82ED801ED91FC910680F781E02DC8016B
:1017A0006E2D09958F2D90E01F910F91FF90EF9076
:1017B00008951092D3011092D7011092D6018BE4B4
:1017C00091E09093D5018093D4010895EF92FF9218
:1017D0000F931F93DF93CF930F92CDB7DEB789831B
:1017E0008B017A0184E0BE016F5F7F4F41E050E0E2
:1017F0000E94A80884E4B801A7010E94A8080F90DD
:10180000CF91DF911F910F91FF90EF90089582E0AB
:1018100048E050E00E94E60B0895FC011682178212
:10182000108611861286138614823496BF010E9498
:10183000070C0895DC01683810F0685829C0E62FBD
:10184000F0E067FF13C0E058F04081E090E002C094
:10185000880F991FEA95E2F7809514962C911497BA
:10186000282314962C93149760E012C0EE55FD4F78
:101870006491662319F420E030E01DC067FF08C0C2
:1018800014968C9114978D7F14968C9314976F7780
:10189000FD0190E0662321F08681861709F4168207
:1018A0009F5F31969630B1F7CD011496BD010E942D
:1018B000070C21E030E0C9010895CF93DF93DC01EC
:1018C000683810F0685825C0E62FF0E067FF12C0B6
:1018D000E058F04081E090E002C0880F991FEA953F
:1018E000E2F714962C911497282B14962C931497A6
:1018F00060E00FC0EE55FD4F64916623D9F167FF9C
:1019000008C014968C911497826014968C93149747
:101910006F7716968C9116978617A9F117968C916A
:101920001797861781F118968C911897861759F199
:1019300019968C911997861731F11A968C911A97EE
:10194000861709F11B968C911B978617E1F0ED0124
:10195000E0E0F0E09E2F8E81882321F4EA0FFB1F48
:10196000668306C09F5F31962196E630F10591F7B8
:10197000963049F481E090E013969C938E931297F1
:1019800020E030E007C0CD011496BD010E94070C95
:1019900021E030E0C901DF91CF91089580E864E251
:1019A00072E045E650E00E9436070895FC01808110
:1019B0008F5F808380E869E872E049E150E00E942F
:1019C00036070895EE0FFF1F0590F491E02D09945E
:1019D000F894FFCF57656C636F6D6520746F00449A
:1019E00077656E6775696E6F0000E10000000000AA
:1019F00000010100000000AB029806000040001446
:101A000000540000000000FA03980600000000B730
:101A10000AEC0A2A0B090B190B050B00000000BB8E
:101A20000B98065D0C1A0C0D0C00FFFFFFFFFFFF6B
:101A3000FFFFFFFFFFFFFFFFFFFFFFFFFFFFFFFFB6
:101A4000FFFFFFFFFFFFFFFFFFFFFFFFFFFFFFFFA6
:101A5000FFFFFFFFFFFFFFFFFFFFFFFFFFFFFFFF96
:101A6000FFFFFFFFFFFFFFFFFFFFFFFFFFFFFFFF86
:10F0000055C000006EC000006CC000006AC0000067
:10F0100068C0000066C0000064C0000062C000005C
:10F0200060C000005EC000009FC400005AC0000025
:10F0300058C0000056C0000054C0000052C000007C
:10F0400050C00000CCC000004CC000004AC000000E
:10F0500048C0000046C0000044C0000042C000009C
:10F0600040C000003EC000003CC000003AC00000AC
:10F0700038C0000036C0000034C0000032C00000BC
:10F0800030C000002EC000002CC000002AC00000CC
:10F0900028C0000026C000001B7E347ED87E347E4F
:10F0A000D87E697E8B7ED87EAB7EBD7E11241FBE4E
:10F0B000CFEFD0E1DEBFCDBF11E0A0E0B1E0EAE3E9
:10F0C000FEEF02C005900D92AC3AB107D9F721E0EE
:10F0D000ACEAB1E001C01D92AE3BB207E1F72AD322
:10F0E000AAC68ECF84E08093E9008091E80085FD78
:10F0F0000EC08091E8008B778093E8008091E80053
:10F1000082FDF3CF8EB38111F9CF80E00895809115
:10F11000F100089593E09093E9009091E80095FF45
:10F1200003C08093F10008959091E8009E7790933A
:10F13000E8009091E80090FDF4CF9EB39111F9CFD3
:10F140000895F89410926F0010928100109285003B
:10F150001092840081E085BF15BE29980C940000B0
:10F1600008958091B2019091B30101969093B301FB
:10F170008093B201292F97FF02C02EEF291B281779
:10F1800010F429980895299A089584B7877F84BF39
:10F1900088E10FB6F89480936000109260000FBE73
:10F1A00090E080E80FB6F89480936100909361003E
:10F1B0000FBE81E085BF82E085BF219AE1E6F0E0E5
:10F1C00090E8908310822998109289009AEF90938A
:10F1D000880080936F0083E080938100AFC31F920B
:10F1E0000F920FB60F9211242F938F939F93EF934B
:10F1F000FF931092850010928400E0E0F0E085918A
:10F200009491019649F08091AC019091AD010196E5
:10F210009093AD018093AC01FF91EF919F918F91FD
:10F220002F910F900FBE0F901F90189542E061EC48
:10F2300082E012D342E161E883E00ED342E160E86C
:10F2400084E00AC38091B601982F9F77913239F5F7
:10F250009091B701903291F0913209F5813AF9F429
:10F260008091E800877F8093E80067E070E083E0AA
:10F2700091E02BD48091E8008B770FC0813279F434
:10F280008091E800877F8093E80067E070E083E08A
:10F2900091E072D48091E8008E778093E800089521
:10F2A0004F925F926F927F928F929F92AF92BF9296
:10F2B000CF92DF92EF92FF92CF93DF9384E080931F
:10F2C000E9008091E80082FF26C20CDFD82F853448
:10F2D00081F48CE49DE19093AD018093AC0107B67D
:10F2E00000FCFDCFF999FECF81E180935700E895AE
:10F2F00003C0843521F4F6DE8DE00CDFE3C18C34ED
:10F30000D9F38035C9F3843711F484E46AC08136B7
:10F3100011F489E5F2CF813491F4E4DEC82FE2DE06
:10F3200090E0880F991F2C2F30E0322F2227330FC7
:10F33000822B932BAA2797FDA095BA2F97C18037D0
:10F3400011F483E5DACF833549F4C2EAD1E089913B
:10F35000E1DE21E0C93AD207D1F7B4C1863521F404
:10F3600081E3D8DE80E3C9CF833731F482E8D2DE8F
:10F3700086E9D0DE8EE1C1CF8536B1F4E0E0F0E081
:10F3800083E095E080935700E89507B600FCFDCF39
:10F3900090935700E89507B600FCFDCFF395E11573
:10F3A00020EFF20779F7A8CF823719F4E1E0F0E017
:10F3B0000EC0863419F4E0E0F0E009C08E3419F490
:10F3C000E3E0F0E004C0813539F4E2E0F0E089E008
:10F3D00080935700849191CF823631F489E59ADE8B
:10F3E00081E098DE80E089CF823419F0873609F019
:10F3F000D5C01092AD011092AC0174DED82E72DE31
:10F40000E82E70DEC82F8BEB8C0F823010F08FE36C
:10F4100074CFF12CFD2810926F00D73609F045C04B
:10F4200081E180935700E8955701912CD1E0A11418
:10F43000B10409F4AFC0C090AE01D090AF01E0902C
:10F44000B001F090B101C634B9F4E92DF0E0EC2937
:10F45000FD2984915FDE992069F082E0C80ED11CFD
:10F46000E11CF11CC092AE01D092AF01E092B0015C
:10F47000F092B1019D2615C0D701C601B695A7959A
:10F4800097958795C2D446DEE2E0CE0ED11CE11CF2
:10F49000F11CC092AE01D092AF01E092B001F092A7
:10F4A000B101F1E0AF1AB108C2CF8090AE019090E7
:10F4B000AF01A090B001B090B101C63421F0C12CD1
:10F4C000D12CD1E030C083E0F40180935700E8955F
:10F4D00007B600FCFDCFF3CFC63461F5DD2039F16E
:10F4E0004090AE015090AF016090B0017090B101BA
:10F4F000F9DD2C2D30E0382BF2010901D0935700B3
:10F50000E8951124F2E04F0E511C611C711C4092D1
:10F51000AE015092AF016092B0017092B101DD2650
:10F5200021E0E21AF108E114F104B1F627C0DADDB6
:10F53000C82EF5CFD7DD682F8091AE019091AF0135
:10F54000A091B001B091B101B695A7959795879517
:10F5500064D44091AE015091AF016091B0017091BF
:10F56000B1014E5F5F4F6F4F7F4F4093AE0150939D
:10F57000AF016093B0017093B101D2CFC63441F4B2
:10F5800085E0F40180935700E89507B600FCFDCFB5
:10F590008DE0C0DD82E080936F0094C0833471F40D
:10F5A000C091AE01D091AF019DDD90E021E0FE0160
:10F5B0000C0120935700E89511249ECE833601F567
:10F5C000C090AE01D090AF01E090B001F090B101D9
:10F5D00089DDF601E16090E021E00C012093570005
:10F5E000E8951124F2E0CF0ED11CE11CF11CC09271
:10F5F000AE01D092AF01E092B001F092B1017CCEA9
:10F600008D3661F4E091AE01F091AF0185E0809319
:10F610005700E89507B600FCFDCF6ECE823551F459
:10F62000E091AE01F091AF01C591D4918D2F72DDC3
:10F630008C2F63CE843419F555DD682F8091AE018F
:10F640009091AF01A091B001B091B101B695A7958D
:10F6500097958795E2D38091AE019091AF01A091EB
:10F66000B001B091B1010296A11DB11D8093AE0110
:10F670009093AF01A093B001B093B1013DCE843619
:10F68000F1F4C090AE01D090AF01E090B001F090E5
:10F69000B101D701C601B695A79597958795B5D3C2
:10F6A00039DD22E0C20ED11CE11CF11CC092AE017A
:10F6B000D092AF01E092B001F092B10103C08B3162
:10F6C00009F0A5CE83E08093E9009091E800809155
:10F6D000E8008E778093E80095FD11C08091E800E6
:10F6E00080FD04C08EB38111F9CF15C08091E80070
:10F6F0008E778093E80003C08EB3882361F08091F9
:10F70000E80080FFF9CF84E08093E9008091E80071
:10F710008B778093E800DF91CF91FF90EF90DF909F
:10F72000CF90BF90AF909F908F907F906F905F90A1
:10F730004F9008958091000890910108109201085F
:10F740001092000844B714BE28E10FB6F894209335
:10F750006000109260000FBE6A98729AEFE9FFE0B5
:10F760003197F1F700C0000041FF0BC0629B09C058
:10F77000E0E0F0E0259134912F3F3F4F11F0E1DCC4
:10F7800018C040FF07C0E0E0F0E0259134912F3F22
:10F790003F4FA9F743FF0DC02091000130910101B7
:10F7A0008217930731F0E0E0F0E0859194910196A3
:10F7B00031F7EBDC78941092AD011092AC0180919E
:10F7C0000201882369F06CDD09D38091AC0190912E
:10F7D000AD0181349F4110F010920201C2DCEFCFE5
:10F7E0008091E00081608093E000ABDC80E090E0FD
:10F7F0000895292F30E02230310539F023303105CA
:10F8000049F02130310561F410C08EE390E022E52B
:10F8100031E01EC0882371F0813089F08230A1F080
:10F8200080E090E020E030E013C082E190E020E949
:10F8300031E00EC084E090E02EE431E009C08AE2BD
:10F8400090E022E231E004C086E190E02AE031E07D
:10F85000FA013183208308958093E900EBEEF0E014
:10F86000808181608083EDEEF0E010826093EC0097
:10F8700040838091EE00881F8827881F089580911B
:10F88000B60187FD05C08091E80080FF0DC010C063
:10F890008091E80082FD04C08EB38111F9CF0895F4
:10F8A0008091E8008B7707C08EB38111ECCF08956B
:10F8B0008091E8008E778093E80008950F931F935E
:10F8C000CF93DF9344D04BD0C8EDD0E088818F77C1
:10F8D000888388818068888388818F7D8883E7ED2D
:10F8E000F0E080818068808319BC1EBA1092B40158
:10F8F00000EE10E0F80180818B7F80838881816039
:10F90000888342E060E080E0A7DFE1EEF0E0808104
:10F910008E7F8083E2EEF0E0808181608083808151
:10F9200088608083F80180818E7F808388818061F8
:10F930008883DF91CF911F910F910895E7EDF0E05B
:10F9400080818160808381E08093B501B7CFE8ED4D
:10F95000F0E080818C7F80831092E2000895109205
:10F96000DA001092E10008951F920F920FB60F92E5
:10F9700011242F933F934F935F936F937F938F93B4
:10F980009F93AF93BF93EF93FF938091DA0080FF33
:10F990001BC08091D80080FF17C08091DA008E7F55
:10F9A0008093DA008091D90080FF0BC088E189BD87
:10F9B0008AE189BD09B400FEFDCF81E08EBB0DD286
:10F9C00003C019BC1EBA09D28091E10080FF17C0A4
:10F9D0008091E20080FF13C08091E2008E7F8093CF
:10F9E000E2008091E20080618093E2008091D80083
:10F9F00080628093D80019BC85E08EBBEED18091E7
:10FA0000E10084FF2CC08091E20084FF28C088E1DF
:10FA100089BD8AE189BD09B400FEFDCF8091D8007F
:10FA20008F7D8093D8008091E1008F7E8093E100EC
:10FA30008091E2008F7E8093E2008091E2008160FD
:10FA40008093E2008091B401811104C08091E300B1
:10FA500087FF02C084E001C081E08EBBBED18091EF
:10FA6000E10083FF21C08091E20083FF1DC08091EF
:10FA7000E100877F8093E10082E08EBB1092B401A9
:10FA80008091E1008E7F8093E1008091E2008E7F83
:10FA90008093E2008091E20080618093E20042E086
:10FAA00060E080E0D9DE99D1FF91EF91BF91AF91F5
:10FAB0009F918F917F916F915F914F913F912F9186
:10FAC0000F900FBE0F901F9018952091BC013091A0
:10FAD000BD012617370748F06115710539F42091EB
:10FAE000E8002E772093E80001C0B901FC0120E076
:10FAF0006115710591F18EB38823D1F18530D1F173
:10FB00008091E80083FD32C08091E80082FF06C04A
:10FB10008091E80082FF24C080E008958091E80091
:10FB200080FFE6CF8091F2009091F300611571059E
:10FB300051F08830910538F421912093F100615003
:10FB400071090196F3CF21E0089709F020E0809138
:10FB5000E8008E778093E800CBCF2111CCCFD8CFAF
:10FB60008EB3882329F0853099F604C081E008958A
:10FB700082E0089583E008956115710529F42091CC
:10FB8000E8002B772093E8006115710521F12EB371
:10FB9000222351F1253051F12091E80023FD20C0AE
:10FBA0002091E80022FFF3CFFC01CF012091F20069
:10FBB0003091F300232B19F38091F1008193CF0151
:10FBC000615071096115710581F7D9CF8EB3882312
:10FBD00059F0853059F08091E80080FFF7CF02C0DE
:10FBE00081E0089580E0089582E0089583E008951B
:10FBF0000F931F93CF93DF9300D0CDB7DEB7E6EB23
:10FC0000F1E08091F100819381E0EE3BF807C9F7C4
:10FC100019DB8091E80083FFCBC02091B6013091C1
:10FC2000B701832F90E08A30910508F0C1C0FC0134
:10FC3000E45BF748E4C0223809F0BAC08091BA0109
:10FC400087708093E9009091EB001092E900809119
:10FC5000E800877F8093E80095FB882780F98093F0
:10FC6000F1001092F10082C0822F8D7F09F0A0C0B8
:10FC7000223009F09DC08091B801811124C02091EB
:10FC8000BA01277009F494C02093E9008091EB0039
:10FC900080FF19C08091EB00333011F4806211C0F5
:10FCA00080618093EB0081E090E0022E01C0880F1C
:10FCB0000A94EAF78093EA001092EA008091EB0040
:10FCC00088608093EB001092E9008091E800877FC4
:10FCD00050C021116DC01091B8011F770FB7F89473
:10FCE0008091E800877F8093E800C9DD8091E8007B
:10FCF00080FFFCCF8091E3008078812B8093E3002C
:10FD000080688093E300112311F083E001C082E05A
:10FD10008EBB0FBF4DC02058223008F049C0AE0145
:10FD20004F5F5F4F6091BA018091B8019091B90126
:10FD300060DD009709F43CC02091E800277F209304
:10FD4000E800BC0189819A81C0DE8091E8008B7750
:10FD50008093E8002DC0203859F58091E800877F16
:10FD60008093E8008091B4018093F1008091E800D5
:10FD70008E778093E80083DD1BC0211119C090911C
:10FD8000B8019230A8F48091E800877F8093E80062
:10FD90009093B40174DD8091B401811104C080910D
:10FDA000E30087FF02C084E001C081E08EBB3EDA41
:10FDB0008091E80083FF0AC08091EB00806280930D
:10FDC000EB008091E800877F8093E8000F900F9010
:10FDD000DF91CF911F910F9108950895CF938EB326
:10FDE000882359F0C091E900C7701092E900809112
:10FDF000E80083FDFDDEC093E900CF910895EE0F8A
:10FE0000FF1F0590F491E02D0994F999FECF92BD62
:10FE100081BDF89A992780B50895262FF999FECFCC
:10FE20001FBA92BD81BD20BD0FB6F894FA9AF99A17
:10FE30000FBE01960895F894FFCF77770100000078
:10FE40000000000816034400770065006E0067009C
:10FE50006F0020004C004C00430000002A034400C7
:10FE6000770065006E006700750069006E006F0026
:10FE7000200042006F006F0074006C006F00610092
:10FE800064006500720000000403090409023E00DA
:10FE90000201008032090400000102020100052471
:10FEA0000010010424020405240600010705820352
:10FEB0000800FF09040100020A000000070504020F
:10FEC0001000010705830210000112011001020059
:10FED0000008E0D31B6001000201000143415445CA
:06FEE00052494E410000F2
:00000001FF
