:10F0000059C0000054C2000052C2000050C20000AB
:10F010004EC200004CC200004AC2000048C20000BC
:10F0200046C2000044C2000067C5000040C20000A4
:10F030003EC200003CC200003AC2000038C20000DC
:10F0400036C20000CBC2000029C3000030C200005D
:10F050002EC200002CC200002AC2000028C20000FC
:10F0600026C2000024C2000022C2000020C200000C
:10F070001EC200001CC200001AC2000018C200001C
:10F0800016C2000014C2000012C2000010C200002C
:10F090000EC200000CC200004C554641434443825E
:10F0A000961E1201000202000040E0D31B60000225
:10F0B0000102030184B780930D028091FE109091AC
:10F0C000FF1090930F0280930E0211241FBECFEF0A
:10F0D000D0E1DEBFCDBF11E0A0E0B1E0EEEDFEEF8C
:10F0E00002C005900D92AA3BB107D9F722E0AAEB26
:10F0F000B1E001C01D92AB30B207E1F701D0EDC61F
:10F1000014BE88E1809360001092600080E88093D4
:10F110006100109261006D98759A8FE99FE00197E8
:10F12000F1F700C000001092FF101092FE10E0E016
:10F13000F0E08591949120910D02019619F489E8EF
:10F1400091E008C0EEEFFFEE85919491019639F4BD
:10F150008CE891E090930201809301011BC08FEF36
:10F160008093BD01822F857091F480910E028737C4
:10F1700019F48AEA91E0EECF21FF0AC0659903C035
:10F180008FE891E0E7CF1092FF101092FE1097D118
:10F1900023FDFDCF206820930D0281E085BF82E032
:10F1A00085BF219AE3D2739883E991E0F5D28091EB
:10F1B000010190910201F0D261E081E0F9D281EA8F
:10F1C00091E0EAD261E081E0F3D212B888E0809366
:10F1D000C40177D486E080936F008BE08093810038
:10F1E0008AEF90E09093890080938800659903C02E
:10F1F00080E69AEE02C080E49FE15AD153E0552E9A
:10F200000EEF1FEE6FE4862E6BE4962EC12C7FEE80
:10F21000D72E80910B0290910C02892B09F43AC1F0
:10F2200044E0242E2092E9008091E80082FF30C162
:10F2300081D1C82F853421F484EF91E039D107C002
:10F2400088E88C0F823010F0C43521F473D18DE042
:10F250009AD109C1C03551F4F894F6015092570083
:10F26000E895789407B600FCFDCF19C0CC34C9F4FA
:10F27000F80185919491019651F7F89422242394F2
:10F28000F801040120925700E895112485E0F60169
:10F2900080935700E895789407B600FCFDCF1DD108
:10F2A000D6CFC43711F481E962C0C13611F489E5C3
:10F2B000CFCFC13489F43ED1809313023BD18093E8
:10F2C00012028091120290911302880F991F90935D
:10F2D000110280931002BBCFC03711F483E5B8CF81
:10F2E000C33541F48DEA91E057D212B867E088E95E
:10F2F00090EF0BC0C63521F482E345D180E3A8CF5F
:10F30000C33729F463E08FE990EF4FD1ACC0C53625
:10F3100071F4E0E0F0EFFA95F89450925700E89518
:10F32000789407B600FCFDCF3097A9F7B8CFC23765
:10F3300021F489E0E1E0F0E011C0C63421F489E075
:10F34000E0E0F0E00BC0CE3421F489E0E3E0F0E04F
:10F3500005C0C13539F489E0E2E0F0E08093570060
:10F36000849176CFC23631F489E50DD181E00BD19D
:10F3700080E06ECFC23419F0C73609F071C0DAD020
:10F38000F82ED8D0E82ED6D066246394863409F0BF
:10F39000612C8554823010F08FE35ACFA090100278
:10F3A000B090110277247394C23409F0712C462C6A
:10F3B000472079F0F50183E0A2D00BC0F894BAD0D1
:10F3C000682F809112029091130275D57894A2D083
:10F3D0007E01E7012197E114F10409F42DC07720A3
:10F3E000A9F0662059F3A6D0282EA4D0382E91017A
:10F3F000F894E0911002F091110233243394090142
:10F4000030925700E895112478940CC0662069F07A
:10F41000E0911002F0911102C591D4918C2FB3D0DC
:10F420008D2FB1D0E7012297D2CF80911202909117
:10F43000130239D5A8D0CBCF442041F085E05FD06E
:10F440004CD0AB2819F48FEF8093BD01F999FECF12
:10F45000772011F08DE097D080E49FE129D003C0A0
:10F46000CB3109F099CF5092E900C091E8007BD0F0
:10F4700081110EC0C5FF09C024E02093E9008091EE
:10F48000E8008B778093E80003C06DD08823A1F358
:10F49000EFD4BFCE8FE99FE00197F1F700C00000E5
:10F4A0008091E00081608093E00056D170CEA8CDBD
:10F4B000F89490930C0280930B0278940895F8943A
:10F4C00010926F0010928100219881E085BF15BED7
:10F4D00080910D02282E0C940000F89481E1809315
:10F4E0005700E895789408958091BC01811106C079
:10F4F00081E08093BC0182E080936F000895F894CE
:10F50000F89480935700E8957894789407B600FCB7
:10F51000FDCF08958091120290911302019690936D
:10F52000130280931202880F991F90931102809307
:10F530001002089584E08093E9008091E80085FD41
:10F540000EC08091E8008B778093E8008091E800FE
:10F5500082FDF3CF8EB38111F9CF80E00895C4DF2F
:10F560008091F10008958091E8008E778093E80003
:10F570008091E80080FD05C08EB38111F9CF8FEF37
:10F58000089580E00895CF93C82F83E08093E90029
:10F590008091E80085FF04C0A7DFC093F10003C09D
:10F5A000E2DF8823C9F3CF9108950F931F93CF9380
:10F5B000DF931F92CDB7DEB78C01680F601741F063
:10F5C000F80184916983DFDF0F5F1F4F6981F6CFF8
:10F5D0000F90DF91CF911F910F9108951F920F927D
:10F5E0000FB60F9211248F939F938091BD018823B2
:10F5F00079F080910B0290910C02892B49F0809157
:10F600000B0290910C02019790930C0280930B02D5
:10F610008091BB018F5F8093BB018091BC018823E7
:10F6200071F08091BB01883288F18091BB018C33ED
:10F6300058F11092BC0186E080936F0028C0809141
:10F64000BB018430D8F01092BB01809100019091F1
:10F65000BA01890F8093BA01889FC0011124892FB4
:10F66000992790938B0080938A008091BA01811131
:10F6700005C08091000181958093000180918A00EE
:10F6800090918B00892B11F4299801C0299A9F91A0
:10F690008F910F900FBE0F901F9018951F920F9291
:10F6A0000FB60F92112429980F900FBE0F901F9044
:10F6B000189542E061EC82E091D142E161E883E09B
:10F6C0008DD142E160E884E089C1809103028132FA
:10F6D000D1F480910402803271F48091E800877F38
:10F6E0008093E80067E070E08EEB91E03BD1809181
:10F6F000E8008E771BC08232D9F48091E800877FC2
:10F700008093E8007FC1813A99F4809104028132AC
:10F7100079F48091E800877F8093E80067E070E0EB
:10F720008EEB91E0C3D08091E8008B778093E80066
:10F730000895882311F0709801C0709A62B9729A86
:10F7400085E08A95F1F70000729887EC90E00197C8
:10F75000F1F700C00000089561E081E0EADF8FE882
:10F760009AE10197F1F700C0000008958FEF81B989
:10F770008DB18F608DB971988FE59AEE0197F1F791
:10F7800000C0000068E381E0D4DF6CE081E0D1DFFD
:10F7900066E081E0CEDFE0CFCF93DF93EC016991AB
:10F7A000662319F080E0C5DFFACFDF91CF9108958D
:10F7B000811180E4680F606881E0BBCFFC0120818B
:10F7C00021110AC0FB012491DC01FB01215020F032
:10F7D00084918D933196FACF0895CF93DF93EA0108
:10F7E000913051F462EA70EF85EC91E0E7DF8091AF
:10F7F000C50125EC31E054C0923009F43EC093308D
:10F8000009F04BC0882309F43CC0813009F43DC0A5
:10F81000823009F43EC0833009F03FC08093D801A4
:10F820008AE28093D701A9EDB1E0EEE0F0E041E299
:10F83000409357002491322F32953F702F70832FC1
:10F8400090E03A3010F4C09601C0C79611969C9390
:10F850008E93822F90E02A3010F4C09601C0C79694
:10F8600013969C938E93129731961496E831F10576
:10F87000F9F68AE227ED31E013C08EE32BE431E0A4
:10F880000FC084E027E431E00BC086E12FE231E0D5
:10F8900007C08AE223E031E003C080E020E030E0EE
:10F8A0003983288390E0DF91CF9108952091090258
:10F8B00030910A022617370748F06115710539F4AF
:10F8C0002091E8002E772093E80001C0B901FC01E7
:10F8D00020E06115710599F18EB38823E9F1853037
:10F8E000E9F18091E80083FD3BC08091E80082FF50
:10F8F00006C08091E80082FF25C080E008958091D5
:10F90000E80080FFE6CF8091F2009091F30061154E
:10F91000710551F08034910538F421912093F10064
:10F92000615071090196F3CF21E08034910509F00F
:10F9300020E08091E8008E778093E800CACF211103
:10F94000CBCFD7CF8EB3882339F0853039F0809173
:10F95000E80083FFCECF04C082E0089583E00895DD
:10F9600081E008956115710529F42091E8002B7755
:10F970002093E8006115710521F12EB3222351F186
:10F98000253051F12091E80023FD20C02091E800AE
:10F9900022FFF3CFFC01CF012091F2003091F30060
:10F9A000232B19F38091F1008193CF0161507109EC
:10F9B0006115710581F7D9CF8EB3882359F0853051
:10F9C00059F08091E80080FFF7CF02C081E00895F0
:10F9D00080E0089582E0089583E008958F70809319
:10F9E000E900EBEEF0E0808181608083EDEEF0E0F5
:10F9F00010826093EC0040838091EE00881F88277E
:10FA0000881F08958091030287FD05C08091E8005A
:10FA100080FF0DC010C08091E80082FD04C08EB34D
:10FA20008111F9CF08958091E8008B7707C08EB3DC
:10FA30008111ECCF08958091E8008E778093E800E3
:10FA400008950F931F93CF93DF9349D050D0C8ED03
:10FA5000D0E088818F7788838881806888838881D7
:10FA60008F7D8883E7EDF0E080818068808319BC1A
:10FA70001EBA1092010200EE10E0F80180818B7F27
:10FA8000808388818160888342E360E080E0A6DF34
:10FA9000E1EEF0E080818E7F8083E2EEF0E0808115
:10FAA00081608083808188608083F80180818E7F7F
:10FAB0008083888180618883DF91CF911F910F912E
:10FAC0000895E8EDF0E080818F7E8083E7EDF0E03F
:10FAD00080818160808381E080930202B2CFE8ED73
:10FAE000F0E080818C7F80831092E2000895109274
:10FAF000DA001092E10008951F920F920FB60F9254
:10FB000011242F933F934F935F936F937F938F9322
:10FB10009F93AF93BF93EF93FF938091DA0080FFA1
:10FB20001BC08091D80080FF17C08091DA008E7FC3
:10FB30008093DA008091D90080FF0BC088E189BDF5
:10FB40008AE189BD09B400FEFDCF81E08EBB8FD173
:10FB500003C019BC1EBA8BD18091E10080FF17C091
:10FB60008091E20080FF13C08091E2008E7F80933D
:10FB7000E2008091E20080618093E2008091D800F1
:10FB800080628093D80019BC85E08EBB70D18091D3
:10FB9000E10084FF2EC08091E20084FF2AC088E14A
:10FBA00089BD8AE189BD09B400FEFDCF8091D800EE
:10FBB0008F7D8093D8008091E1008F7E8093E1005B
:10FBC0008091E2008F7E8093E2008091E20081606C
:10FBD0008093E20080910102882311F084E007C045
:10FBE0008091E30087FF02C083E001C081E08EBB0B
:10FBF0003ED18091E10083FF21C08091E20083FF2C
:10FC00001DC08091E100877F8093E10082E08EBB80
:10FC1000109201028091E1008E7F8093E10080913B
:10FC2000E2008E7F8093E2008091E2008061809309
:10FC3000E20042E360E080E0D1DE19D1FF91EF9174
:10FC4000BF91AF919F918F917F916F915F914F91F4
:10FC50003F912F910F900FBE0F901F9018951F93FB
:10FC6000CF93DF9300D0CDB7DEB7E3E0F2E0809131
:10FC7000F100819382E0EB30F807C9F726DD80912F
:10FC8000E80083FFE0C09091030280910402853078
:10FC900009F46DC030F4813071F168F0833059F1AE
:10FCA000D2C0883009F4A5C0893009F4B1C08630CB
:10FCB00009F0C9C07DC0903899F0923809F0C3C0EE
:10FCC000809107028F70873008F0BDC08093E900F3
:10FCD0009091EB0095FB992790F91092E90001C0F3
:10FCE00090E08091E800877F8093E8009093F10096
:10FCF0001092F10089C0292F2D7F09F0A4C0923005
:10FD000009F0A1C090910502911128C0209107022D
:10FD10002F709FEF920F963008F095C02093E90066
:10FD20009091EB0090FF1AC0833021F48091EB009A
:10FD3000806212C08091EB0080618093EB0081E0D3
:10FD400090E001C0880F2A95EAF78093EA001092AC
:10FD5000EA008091EB0088608093EB001092E9004C
:10FD60008091E800877F8093E8004CDE6CC09111A1
:10FD70006AC0109105021F778091E3008078812B83
:10FD80008093E3008091E800877F8093E8003ADE6B
:10FD90008091E80080FFFCCF8091E3008068809331
:10FDA000E300112311F083E001C082E08EBB4BC061
:10FDB0009058923008F047C0609107027091080295
:10FDC000AE014F5F5F4F809105029091060205DD05
:10FDD0000097C9F12091E800277F2093E800BC013B
:10FDE00089819A8163DD8091E8008B778093E800B8
:10FDF0002AC0903841F58091E800877F8093E80021
:10FE0000809101028093F1008091E8008E77ABCF62
:10FE1000911119C0909105029230A8F48091E800E8
:10FE2000877F8093E80090930102ECDD80910102CE
:10FE3000811104C08091E30087FF02C084E001C00B
:10FE400081E08EBB36DC8091E80083FF0AC08091A0
:10FE5000E800877F8093E8008091EB0080628093C8
:10FE6000EB000F900F90DF91CF911F9108950895AF
:10FE7000CF938EB38823A9F08091E9008F70909181
:10FE8000EC0090FF02C090E801C090E0C92FC82BA1
:10FE90001092E9008091E80083FDE1DECF70C0930D
:10FEA000E900CF910895F999FECF92BD81BDF89AEE
:10FEB000992780B50895262FF999FECF92BD81BD6F
:10FEC000F89A019700B4021639F01FBA20BD0FB698
:0EFED000F894FA9AF99A0FBE0895F894FFCFAD
:10FEDE0001A0012A034400770065006E00670075DB
:10FEEE000069006E006F00200042006F006F00740A
:10FEFE00006C006F00610064006500720000001667
:10FF0E00034400770065006E0067006F0020004C10
:10FF1E00004C00430000000403090409023E0002E5
:10FF2E0001008032090400000102020000052400D5
:10FF3E0010010424020205240600010705820308AD
:10FF4E0000FF09040100020A000000070504021068
:10FF5E000005070583021000054E41004341005283
:10FF6E00535400426F6F746C6F6164657220A520EC
:10FF7E00004177616974696E672050430050726F5B
:0AFF8E006772616D6D696E67000017
:04FFFC0000DFFBDC4B
:040000030000F00009
:00000001FF
