:10F0000059C0000059C2000057C2000055C200009C
:10F0100053C2000051C200004FC200004DC20000A8
:10F020004BC2000049C200006BC5000045C2000091
:10F0300043C2000041C200003FC200003DC20000C8
:10F040003BC20000C8C2000026C3000035C2000059
:10F0500033C2000031C200002FC200002DC20000E8
:10F060002BC2000029C2000027C2000025C20000F8
:10F0700023C2000021C200001FC200001DC2000008
:10F080001BC2000019C2000017C2000015C2000018
:10F0900013C2000011C200004C5546414344438254
:10F0A000961E1201000202000040E0D31B60000225
:10F0B0000102030184B78093FF018091FE109091BB
:10F0C000FF10909301028093000211241FBECFEF26
:10F0D000D0E1DEBFCDBF11E0A0E0B1E0E6EEFEEF93
:10F0E00002C005900D92AC3AB107D9F721E0ACEA25
:10F0F000B1E001C01D92AD3FB207E1F701D0F1C60A
:10F1000014BE88E1809360001092600080E88093D4
:10F110006100109261006D98759A8FE99FE00197E8
:10F12000F1F700C000001092FF101092FE10E0E016
:10F13000F0E0259134918091FF012F3F3F4FA9F0DE
:10F140009FEF9093AF01982F957061F4909100021A
:10F15000973759F081FF07C0659B07C01092FF10D9
:10F160001092FE10B1D183FDFDCF80688093FF0126
:10F1700081E085BF82E085BF219AF5D2739887E848
:10F1800091E007D361E081E010D383E991E001D3FE
:10F1900061E081E00AD312B888E08093B60195D48B
:10F1A00086E080936F008BE0809381008AEF90E08F
:10F1B0009093890080938800659903C080E69AEE59
:10F1C00002C080E49FE179D1F4E0EF2EA9E05A2E4D
:10F1D000A12CB12C88248394912C8091FD019091D5
:10F1E000FE01892B09F45BC1E092E9008091E800FF
:10F1F00082FF53C1A4D1C82F853421F484EF91E05C
:10F200005CD107C088E88C0F823010F0C43521F43F
:10F2100096D18DE0BCD12CC1C035D9F3CC34C9F323
:10F22000C43711F481E95FC0C13611F489E5F2CF2A
:10F23000C13489F484D18093050281D18093040282
:10F240008091040290910502880F991F9093030208
:10F2500080930202DECFC03711F483E5DBCFC335E4
:10F2600041F48FE991E095D212B867E088E990EF18
:10F270000BC0C63521F482E38AD180E3CBCFC337FC
:10F2800029F463E08FE990EF94D1F2C0C53689F498
:10F29000E0E0F0EFFA95F89473E0C72EC0925700C3
:10F2A000E895789407B600FCFDCF309799F71AD10E
:10F2B000B0CFC23711F4F4010DC0C63411F4F5011A
:10F2C00009C0CE3419F4E3E0F0E004C0C13531F4F4
:10F2D000E2E0F0E05092570084919CCFC23631F4C6
:10F2E00089E555D181E053D180E094CFC23419F043
:10F2F000C73609F0BAC023D1782E21D1682E1FD18C
:10F3000044244394863429F0412C853401F18FE361
:10F3100081CFF1E06F167F06B0F5209104023091A5
:10F320000502A90141505109C3010196969587959F
:10F33000840F951F8217930730F12827392722273A
:10F34000232B09F521E081159847D0F018C081E002
:10F35000681688E07806B8F420910402309105021E
:10F36000211598E0390778F4C9010197860D971D9A
:10F370008217930740F021E08115984008F020E0C3
:10F38000F22EF19401C0F12C0091020210910302BF
:10F3900033243394C23409F0312C242C23202F2021
:10F3A000A9F0F80183E0B0D011C0332051F1411031
:10F3B00013C0FF2049F0F894C2D0682F8091040256
:10F3C000909105027CD57894AAD03E01E301219763
:10F3D0006114710451F735C0B2D0C82EB0D0D82E08
:10F3E000A601FF2001F1F894E0910202F0910302DE
:10F3F000DD24D3940A01D0925700E8951124789423
:10F4000012C0442099F0FF2049F0E0910202F091EF
:10F41000030245915491842FC52F02C08FEFCFEF87
:10F42000B6D08C2FB4D0E3012297CECFFF2031F09D
:10F4300080910402909105023AD501C08FEFA7D0C8
:10F44000C3CF222041F085E05FD04CD0012B19F4CE
:10F450003FEF3093AF01F999FECF332011F08DE0EB
:10F4600096D080E49FE129D003C0CB3109F04FCF83
:10F4700083E08093E900C091E80079D081110DC04C
:10F48000C5FF08C0E092E9008091E8008B77809387
:10F49000E80003C06CD08823A9F3F0D49ECEEFE936
:10F4A000FFE03197F1F700C000008091E00081603B
:10F4B0008093E0004ED156CEA3CDF8949093FE01F8
:10F4C0008093FD0178940895F89410926F00109243
:10F4D0008100219881E085BF15BE8091FF01282E13
:10F4E0000C940000F89481E180935700E89578949B
:10F4F00008958091AE01811106C081E08093AE0134
:10F5000082E080936F000895F894F89480935700F8
:10F51000E8957894789407B600FCFDCF0895809123
:10F5200004029091050201969093050280930402D3
:10F53000880F991F9093030280930202089584E03C
:10F540008093E9008091E80085FD0DC08091E8007E
:10F550008B778093E8008091E80082FDF3CF8EB333
:10F560008111F9CF03C0C5DF8091F100089580912A
:10F57000E8008E778093E8008091E80080FD05C068
:10F580008EB38111F9CF8FEF089580E00895CF9366
:10F59000C82F83E08093E9008091E80085FF04C0D4
:10F5A000A8DFC093F10003C0E2DF8823C9F3CF9145
:10F5B00008951F93CF93DF93C82FD92F162F180FBD
:10F5C0001C1729F0FE018491E2DF2196F9CFDF912B
:10F5D000CF911F9108951F920F920FB60F92112491
:10F5E0008F939F938091AF01882379F08091FD01E3
:10F5F0009091FE01892B49F08091FD019091FE01CF
:10F6000001979093FE018093FD018091AD018F5F82
:10F610008093AD018091AE01882371F08091AD019E
:10F62000883288F18091AD018C3358F11092AE018F
:10F6300086E080936F0028C08091AD018430D8F0BF
:10F640001092AD01909100018091AC01890F8093DF
:10F65000AC01889FC0011124892F992790938B00BA
:10F6600080938A008091AC01811105C080910001D6
:10F6700081958093000180918A0090918B00892B65
:10F6800011F4299801C0299A9F918F910F900FBE74
:10F690000F901F9018951F920F920FB60F92112482
:10F6A00029980F900FBE0F901F90189542E061ECC3
:10F6B00082E09AD142E161E883E096D142E160E8DC
:10F6C00084E092C18091F5018132D1F48091F601FC
:10F6D000803271F48091E800877F8093E80067E0D2
:10F6E00070E080EB91E044D18091E8008E771BC000
:10F6F0008232D9F48091E800877F8093E80088C146
:10F70000813A99F48091F601813279F48091E80090
:10F71000877F8093E80067E070E080EB91E0C9D0DC
:10F720008091E8008B778093E8000895882311F09A
:10F73000709801C0709A62B9729A85E08A95F1F763
:10F740000000729887EC90E00197F1F700C000008C
:10F75000089561E081E0EADF8FE89AE10197F1F72F
:10F7600000C0000008958FEF81B98DB18F608DB911
:10F7700071988FE59AEE0197F1F700C0000068E3F9
:10F7800081E0D4DF6CE081E0D1DF66E081E0CEDFB4
:10F79000E0CFCF93DF93EC016991662319F080E00D
:10F7A000C5DFFACFDF91CF910895882311F080E46F
:10F7B00001C080E0680F606881E0B8CFFC01208163
:10F7C000211109C0FB012491DC01215020F084911A
:10F7D0008D933196FACF0895CF93DF93EA0191305C
:10F7E00051F462EA70EF87EB91E0E8DF8091B701B6
:10F7F00027EB31E058C0923009F442C0933009F051
:10F800004FC0882309F440C0813009F441C08230E0
:10F8100009F442C0833009F043C08093CA018AE2F0
:10F820008093C901A9ECB1E020E030E051E2F90198
:10F830003E9650935700E4914E2F42954F70EF70D3
:10F84000842F90E04A3010F4C09601C0C7961396FA
:10F850009C938E9312978E2F90E0EA3010F4C0960E
:10F8600001C0C79615969C938E9314972F5F3F4FB8
:10F8700014962A303105D9F68AE229EC31E013C01A
:10F880008EE329E431E00FC084E025E431E00BC0D1
:10F8900086E12DE231E007C08AE221E031E003C0D9
:10F8A00080E020E030E03983288390E0DF91CF9141
:10F8B00008952091FB013091FC012617370748F08D
:10F8C0006115710539F42091E8002E772093E80046
:10F8D00001C0B90140E06115710591F12EB32223F9
:10F8E00009F440C0253009F43FC02091E80023FD11
:10F8F0003DC02091E80022FD2FC02091E80020FFAC
:10F90000EACF2091F2003091F300FC01CF016115A4
:10F91000710559F02034310540F481918093F10054
:10F92000615071092F5F3F4FF1CF41E02034310525
:10F9300009F040E02091E8002E772093E800CBCF3B
:10F940004111CCCF09C08EB3882361F0853061F0BE
:10F950008091E80083FD0AC08091E80082FFF3CF28
:10F9600080E0089582E0089583E0089581E008959D
:10F970006115710529F42091E8002B772093E800A8
:10F98000FC016115710521F18EB3882349F18530A1
:10F9900049F18091E80083FD21C08091E80082FF59
:10F9A000F0CF8091F2009091F300892B31F080919B
:10F9B000F100819361507109A1F78091E8008B7784
:10F9C0008093E800DECF8EB3882351F0853051F06C
:10F9D0008091E80080FFF7CF80E0089581E00895EE
:10F9E00082E0089583E008958F708093E900EBEE44
:10F9F000F0E0808181608083EDEEF0E01082609322
:10FA0000EC0040838091EE00881F8827881F0895AE
:10FA10008091F50187FF0FC08091E80082FD04C04E
:10FA20008EB38111F9CF10C08091E8008B770AC0A6
:10FA30008EB3882349F08091E80080FFF9CF809150
:10FA4000E8008E778093E80008950F931F93CF937B
:10FA5000DF9349D050D0C8EDD0E088818F7788837C
:10FA600088818068888388818F7D8883E7EDF0E0D6
:10FA700080818068808319BC1EBA1092F30100EE69
:10FA800010E0F80180818B7F80838881816088838A
:10FA900042E360E080E0A8DFE1EEF0E080818E7F6D
:10FAA0008083E2EEF0E080818160808380818860E5
:10FAB0008083F80180818E7F808388818061888344
:10FAC000DF91CF911F910F910895E8EDF0E08081D3
:10FAD0008F7E8083E7EDF0E080818160808381E02C
:10FAE0008093F401B2CFE8EDF0E080818C7F8083D9
:10FAF0001092E20008951092DA001092E100089549
:10FB00001F920F920FB60F9211242F933F934F9392
:10FB10005F936F937F938F939F93AF93BF93EF9375
:10FB2000FF938091DA0080FF1BC08091D80080FF96
:10FB300017C08091DA008E7F8093DA008091D9001F
:10FB400080FF0BC088E189BD8AE189BD09B400FE50
:10FB5000FDCF81E08EBB91D103C019BC1EBA8DD1FF
:10FB60008091E10080FF17C08091E20080FF13C008
:10FB70008091E2008E7F8093E2008091E2008061BC
:10FB80008093E2008091D80080628093D80019BCF5
:10FB900085E08EBB72D18091E10084FF2EC0809100
:10FBA000E20084FF2AC088E189BD8AE189BD09B4E9
:10FBB00000FEFDCF8091D8008F7D8093D80080918A
:10FBC000E1008F7E8093E1008091E2008F7E809340
:10FBD000E2008091E20081608093E2008091F30175
:10FBE000882311F084E007C08091E30087FD02C004
:10FBF00081E001C083E08EBB40D18091E10083FFB2
:10FC000021C08091E20083FF1DC08091E100877FC9
:10FC10008093E10082E08EBB1092F3018091E100BD
:10FC20008E7F8093E1008091E2008E7F8093E200DE
:10FC30008091E20080618093E20042E360E080E036
:10FC4000D3DE1BD1FF91EF91BF91AF919F918F9127
:10FC50007F916F915F914F913F912F910F900FBEC8
:10FC60000F901F9018951F93CF93DF9300D0CDB7BF
:10FC7000DEB7E5EFF1E088E08E0F9091F10091930F
:10FC80008E13FBCF1FDD8091E80083FFE2C08091DF
:10FC9000F5019091F601953009F46FC030F4913080
:10FCA00071F168F0933059F1D4C0983009F4A7C0CD
:10FCB000993009F4B3C0963009F0CBC07FC08038CA
:10FCC00099F0823809F0C5C08091F9018F708730B2
:10FCD00008F0BFC08093E9008091EB0085FB882786
:10FCE00080F91092E90001C080E09091E800977FD0
:10FCF0009093E8008093F1001092F1008BC0282FC0
:10FD00002D7F09F0A6C0823009F0A3C08091F701D1
:10FD100081112AC08091F9018F702FEF280F2630B2
:10FD200008F097C08093E9002091EB0020FF1CC0F1
:10FD3000933021F48091EB00806214C09091EB002D
:10FD400090619093EB0021E030E0A90102C0440FE4
:10FD5000551F8A95E2F74093EA001092EA008091DD
:10FD6000EB0088608093EB001092E9008091E8003E
:10FD7000877F8093E8004CDE6CC081116AC01091CF
:10FD8000F7011F778091E3008078812B8093E30057
:10FD90008091E800877F8093E8003ADE8091E80058
:10FDA00080FFFCCF8091E30080688093E300111115
:10FDB00002C082E001C083E08EBB4BC0805882301D
:10FDC00008F047C06091F9017091FA01AE014F5FF0
:10FDD0005F4F8091F7019091F801FEDCBC01892B07
:10FDE000C1F19091E800977F9093E80089819A8112
:10FDF00060DD8091E8008B778093E8002AC080382E
:10FE000041F58091E800877F8093E8008091F301BD
:10FE10008093F1008091E8008E77ABCF811119C0FB
:10FE20009091F7019230A8F48091E800877F809349
:10FE3000E8009093F301ECDD8091F301811106C09D
:10FE40008091E30087FD02C081E001C084E08EBBA9
:10FE50002DDC8091E80083FF0AC08091E800877F55
:10FE60008093E8008091EB0080628093EB000F901C
:10FE70000F90DF91CF911F9108950895CF938EB386
:10FE8000882399F0C091E900CF709091EC00892F00
:10FE9000817090FD80E8C82B1092E9008091E80005
:10FEA00083FDE1DECF70C093E900CF910895F99909
:10FEB000FECF92BD81BDF89A992780B50895262F6F
:10FEC000F999FECF92BD81BDF89A019700B4021650
:10FED00039F01FBA20BD0FB6F894FA9AF99A0FBEFE
:06FEE0000895F894FFCF25
:10FEE600012A034400770065006E0067007500690B
:10FEF600006E006F00200042006F006F0074006CFF
:10FF0600006F006100640065007200000016034483
:10FF160000770065006E0067006F0020004C004C03
:10FF260000430000000403090409023E0002010028
:10FF360080320904000001020200000524001001BD
:10FF4600042402020524060001070582030800FFB7
:10FF560009040100020A000000070504021000055A
:10FF660007058302100005426F6F746C6F6164654C
:10FF7600723A004177616974696E67205043005098
:0CFF8600726F6772616D6D696E6700003C
:08FFF800A2F0000000DFFBDCB9
:040000030000F00009
:00000001FF
