:10F0000059C0000088C2000086C2000084C200000F
:10F0100082C2000080C200007EC200007CC20000EC
:10F020007AC2000078C200009AC5000074C20000D5
:10F0300072C2000070C200006EC200006CC200000C
:10F040006AC20000F7C2000055C3000064C200009D
:10F0500062C2000060C200005EC200005CC200002C
:10F060005AC2000058C2000056C2000054C200003C
:10F0700052C2000050C200004EC200004CC200004C
:10F080004AC2000048C2000046C2000044C200005C
:10F0900042C2000040C200004C55464143444382F6
:10F0A000961E1201000202000040E0D31B60000225
:10F0B0000102030184B7809301028091FE109091B8
:10F0C000FF10909303028093020211241FBECFEF22
:10F0D000D0E1DEBFCDBF11E0A0E0B1E0E4E4FFEF9E
:10F0E00002C005900D92AE3AB107D9F721E0AEEA21
:10F0F000B1E001C01D92AF3FB207E1F701D020C7D8
:10F1000014BE88E1809360001092600080E88093D4
:10F110006100109261006D98759A8FE99FE00197E8
:10F12000F1F700C000001092FF101092FE10E0E016
:10F13000F0E025913491809101022F3F3F4FE1F0A3
:10F14000EEEFFFEE259134912F3F3F4FA9F09FEF57
:10F150009093B101982F957061F4909102029737C6
:10F1600059F081FF07C0659B07C01092FF101092F5
:10F17000FE10D9D183FDFDCF80688093010281E02C
:10F1800085BF82E085BF219A1DD3739887E891E0FF
:10F190002FD361E081E038D385E991E029D361E0A4
:10F1A00081E032D312B888E08093B801BDD486E004
:10F1B00080936F008BE0809381008AEF90E09093C2
:10F1C000890080938800659903C080E69AEE02C0AA
:10F1D00080E49FE1A1D1E4E0EE2EF3E04F2E0EEFAC
:10F1E0001FEEAFE48A2EABE49A2E8091FF0190913E
:10F1F0000002892B09F482C1E092E9008091E800C5
:10F2000082FF7AC1CBD1C82F853421F484EF91E0FD
:10F2100083D107C088E88C0F823010F0C43521F408
:10F22000BDD18DE0E3D154C1C03559F4F894E0E08C
:10F23000FFEE40925700E895789407B600FCFDCFAA
:10F240001AC0CC34D1F4F80185919491019649F714
:10F25000F894AA24A394F8010401A0925700E89519
:10F26000112485E0E0E0FFEE80935700E895789464
:10F2700007B600FCFDCF65D1D4CFC43711F481E9C6
:10F2800062C0C13611F489E5CDCFC13489F486D18D
:10F290008093070283D180930602809106029091A9
:10F2A0000702880F991F9093050280930402B9CF3B
:10F2B000C03711F483E5B6CFC33541F481EA91E05C
:10F2C00097D212B867E088E990EF0BC0C63521F4F9
:10F2D00082E38CD180E3A6CFC33729F463E08FE9C2
:10F2E00090EF96D1F5C0C53671F4E0E0F0EFFA95F5
:10F2F000F89440925700E895789407B600FCFDCF4B
:10F300003097A9F7B8CFC23721F489E0E1E0F0E007
:10F3100011C0C63421F489E0E0E0F0E00BC0CE3447
:10F3200021F489E0E3E0F0E005C0C13539F489E07B
:10F33000E2E0F0E080935700849174CFC23631F45C
:10F3400089E554D181E052D180E06CCFC23419F00C
:10F35000C73609F0BAC022D1782E20D1682E1ED12E
:10F3600055245394863429F0512C853401F18FE3D0
:10F3700059CFF1E06F167F06B0F52091060230916B
:10F380000702A90141505109C3010196969587953D
:10F39000840F951F8217930730F1282739272227DA
:10F3A000232B09F521E081159847D0F018C081E0A2
:10F3B000681688E07806B8F42091060230910702BA
:10F3C000211598E0390778F4C9010197860D971D3A
:10F3D0008217930740F021E08115984008F020E063
:10F3E000F22EF19401C0F12CC0900402D0900502DD
:10F3F00033243394C23409F0312C252C23202F20C0
:10F40000A9F0F60183E0AFD011C0332051F15110C3
:10F4100013C0FF2049F0F894C1D0682F80910602F4
:10F42000909107027BD57894A9D03E01E301219702
:10F430006114710451F735C0B1D0A82EAFD0B82EE9
:10F44000A501FF2001F1F894E0910402F09105027A
:10F45000BB24B3940A01B0925700E8951124789424
:10F4600012C0552099F0FF2049F0E0910402F0917C
:10F47000050245915491842FC52F02C08FEFCFEF25
:10F48000B5D08C2FB3D0E3012297CECFFF2031F03F
:10F49000809106029091070239D501C08FEFA6D066
:10F4A000C3CF222041F085E05ED04BD0CD2819F4A7
:10F4B0008FEF8093B101F999FECF332011F08DE0E9
:10F4C00095D080E49FE128D003C0CB3109F04FCF25
:10F4D0004092E900C091E80079D081110DC0C5FFCC
:10F4E00008C0E092E9008091E8008B778093E80003
:10F4F00003C06CD08823A9F3F0D477CE8FE99FE0C6
:10F500000197F1F700C000008091E00081608093D6
:10F51000E0004ED12ECE74CDF894909300028093EB
:10F52000FF0178940895F89410926F001092810072
:10F53000219881E085BF15BE80910102282E0C9490
:10F540000000F89481E180935700E895789408953D
:10F550008091B001811106C081E08093B00182E00A
:10F5600080936F000895F894F89480935700E8957D
:10F570007894789407B600FCFDCF08958091060238
:10F580009091070201969093070280930602880FDC
:10F59000991F9093050280930402089584E080935C
:10F5A000E9008091E80085FD0DC08091E8008B772F
:10F5B0008093E8008091E80082FDF3CF8EB3811143
:10F5C000F9CF03C0C5DF8091F10008958091E80074
:10F5D0008E778093E8008091E80080FD05C08EB3AF
:10F5E0008111F9CF8FEF089580E00895CF93C82F50
:10F5F00083E08093E9008091E80085FF04C0A8DFE4
:10F60000C093F10003C0E2DF8823C9F3CF910895CE
:10F610001F93CF93DF93C82FD92F162F180F1C17C6
:10F6200029F0FE018491E2DF2196F9CFDF91CF919D
:10F630001F9108951F920F920FB60F9211248F936E
:10F640009F938091B101882379F08091FF0190917F
:10F650000002892B49F08091FF01909100020197EF
:10F66000909300028093FF018091AF018F5F8093A0
:10F67000AF018091B001882371F08091AF01883291
:10F6800088F18091AF018C3358F11092B00186E07F
:10F6900080936F0028C08091AF018430D8F0109221
:10F6A000AF01909100018091AE01890F8093AE016E
:10F6B000889FC0011124892F992790938B008093F4
:10F6C0008A008091AE01811105C080910001819571
:10F6D0008093000180918A0090918B00892B11F416
:10F6E000299801C0299A9F918F910F900FBE0F907A
:10F6F0001F9018951F920F920FB60F921124299800
:10F700000F900FBE0F901F90189542E061EC82E0C1
:10F710009AD142E161E883E096D142E160E884E079
:10F7200092C18091F7018132D1F48091F801803249
:10F7300071F48091E800877F8093E80067E070E0D3
:10F7400082EB91E044D18091E8008E771BC0823239
:10F75000D9F48091E800877F8093E80088C1813ADE
:10F7600099F48091F801813279F48091E800877FE3
:10F770008093E80067E070E082EB91E0C9D080916F
:10F78000E8008B778093E8000895882311F0709843
:10F7900001C0709A62B9729A85E08A95F1F700000B
:10F7A000729887EC90E00197F1F700C0000008958F
:10F7B00061E081E0EADF8FE89AE10197F1F700C0AC
:10F7C000000008958FEF81B98DB18F608DB9719868
:10F7D0008FE59AEE0197F1F700C0000068E381E041
:10F7E000D4DF6CE081E0D1DF66E081E0CEDFE0CF06
:10F7F000CF93DF93EC016991662319F080E0C5DFB8
:10F80000FACFDF91CF910895882311F080E401C0F1
:10F8100080E0680F606881E0B8CFFC012081211191
:10F8200009C0FB012491DC01215020F084918D93CB
:10F830003196FACF0895CF93DF93EA01913051F4D6
:10F8400062EA70EF89EB91E0E8DF8091B90129EB82
:10F8500031E058C0923009F442C0933009F04FC0F3
:10F86000882309F440C0813009F441C0823009F492
:10F8700042C0833009F043C08093CC018AE2809378
:10F88000CB01ABECB1E020E030E051E2F9013E9673
:10F8900050935700E4914E2F42954F70EF70842F94
:10F8A00090E04A3010F4C09601C0C79613969C931E
:10F8B0008E9312978E2F90E0EA3010F4C09601C01C
:10F8C000C79615969C938E9314972F5F3F4F14966F
:10F8D0002A303105D9F68AE22BEC31E013C08EE3F1
:10F8E00029E431E00FC084E025E431E00BC086E17B
:10F8F0002DE231E007C08AE221E031E003C080E080
:10F9000020E030E03983288390E0DF91CF910895A3
:10F910002091FD013091FE012617370748F061154F
:10F92000710539F42091E8002E772093E80001C09A
:10F93000B90140E06115710591F12EB3222309F45C
:10F9400040C0253009F43FC02091E80023FD3DC0B0
:10F950002091E80022FD2FC02091E80020FFEACF8F
:10F960002091F2003091F300FC01CF016115710587
:10F9700059F02034310540F481918093F1006150B9
:10F9800071092F5F3F4FF1CF41E02034310509F07D
:10F9900040E02091E8002E772093E800CBCF411182
:10F9A000CCCF09C08EB3882361F0853061F080919F
:10F9B000E80083FD0AC08091E80082FFF3CF80E079
:10F9C000089582E0089583E0089581E00895611527
:10F9D000710529F42091E8002B772093E800FC01C1
:10F9E0006115710521F18EB3882349F1853049F104
:10F9F0008091E80083FD21C08091E80082FFF0CF74
:10FA00008091F2009091F300892B31F08091F10008
:10FA1000819361507109A1F78091E8008B77809301
:10FA2000E800DECF8EB3882351F0853051F080910D
:10FA3000E80080FFF7CF80E0089581E0089582E03C
:10FA4000089583E008958F708093E900EBEEF0E075
:10FA5000808181608083EDEEF0E010826093EC00A5
:10FA600040838091EE00881F8827881F0895809129
:10FA7000F70187FF0FC08091E80082FD04C08EB3BC
:10FA80008111F9CF10C08091E8008B770AC08EB346
:10FA9000882349F08091E80080FFF9CF8091E80049
:10FAA0008E778093E80008950F931F93CF93DF9391
:10FAB00049D050D0C8EDD0E088818F778883888185
:10FAC0008068888388818F7D8883E7EDF0E080817E
:10FAD0008068808319BC1EBA1092F50100EE10E018
:10FAE000F80180818B7F808388818160888342E3F5
:10FAF00060E080E0A8DFE1EEF0E080818E7F80832F
:10FB0000E2EEF0E080818160808380818860808384
:10FB1000F80180818E7F8083888180618883DF9176
:10FB2000CF911F910F910895E8EDF0E080818F7ED5
:10FB30008083E7EDF0E080818160808381E08093C5
:10FB4000F601B2CFE8EDF0E080818C7F80831092E7
:10FB5000E20008951092DA001092E10008951F92D9
:10FB60000F920FB60F9211242F933F934F935F93F1
:10FB70006F937F938F939F93AF93BF93EF93FF9375
:10FB80008091DA0080FF1BC08091D80080FF17C0F1
:10FB90008091DA008E7F8093DA008091D90080FF17
:10FBA0000BC088E189BD8AE189BD09B400FEFDCFA3
:10FBB00081E08EBB91D103C019BC1EBA8DD180915A
:10FBC000E10080FF17C08091E20080FF13C08091A8
:10FBD000E2008E7F8093E2008091E200806180935A
:10FBE000E2008091D80080628093D80019BC85E043
:10FBF0008EBB72D18091E10084FF2EC08091E20023
:10FC000084FF2AC088E189BD8AE189BD09B400FE6C
:10FC1000FDCF8091D8008F7D8093D8008091E10046
:10FC20008F7E8093E1008091E2008F7E8093E200DE
:10FC30008091E20081608093E2008091F501882349
:10FC400011F084E007C08091E30087FD02C081E0ED
:10FC500001C083E08EBB40D18091E10083FF21C0D1
:10FC60008091E20083FF1DC08091E100877F809337
:10FC7000E10082E08EBB1092F5018091E1008E7F61
:10FC80008093E1008091E2008E7F8093E20080917A
:10FC9000E20080618093E20042E360E080E0D3DE36
:10FCA0001BD1FF91EF91BF91AF919F918F917F9168
:10FCB0006F915F914F913F912F910F900FBE0F90D9
:10FCC0001F9018951F93CF93DF9300D0CDB7DEB769
:10FCD000E7EFF1E088E08E0F9091F10091938E13A1
:10FCE000FBCF1FDD8091E80083FFE2C08091F70128
:10FCF0009091F801953009F46FC030F4913071F1B2
:10FD000068F0933059F1D4C0983009F4A7C0993005
:10FD100009F4B3C0963009F0CBC07FC0803899F0A9
:10FD2000823809F0C5C08091FB018F70873008F0E0
:10FD3000BFC08093E9008091EB0085FB882780F9A4
:10FD40001092E90001C080E09091E800977F9093C5
:10FD5000E8008093F1001092F1008BC0282F2D7FD6
:10FD600009F0A6C0823009F0A3C08091F901811189
:10FD70002AC08091FB018F702FEF280F263008F0EA
:10FD800097C08093E9002091EB0020FF1CC09330C6
:10FD900021F48091EB00806214C09091EB0090619F
:10FDA0009093EB0021E030E0A90102C0440F551F01
:10FDB0008A95E2F74093EA001092EA008091EB0006
:10FDC00088608093EB001092E9008091E800877FC3
:10FDD0008093E8004CDE6CC081116AC01091F9017B
:10FDE0001F778091E3008078812B8093E3008091DE
:10FDF000E800877F8093E8003ADE8091E80080FF8A
:10FE0000FCCF8091E30080688093E300111102C071
:10FE100082E001C083E08EBB4BC08058823008F086
:10FE200047C06091FB017091FC01AE014F5F5F4FD5
:10FE30008091F9019091FA01FEDCBC01892BC1F19E
:10FE40009091E800977F9093E80089819A8160DD26
:10FE50008091E8008B778093E8002AC0803841F5D4
:10FE60008091E800877F8093E8008091F50180937E
:10FE7000F1008091E8008E77ABCF811119C090918D
:10FE8000F9019230A8F48091E800877F8093E80020
:10FE90009093F501ECDD8091F501811106C0809110
:10FEA000E30087FD02C081E001C084E08EBB2DDC51
:10FEB0008091E80083FF0AC08091E800877F8093EB
:10FEC000E8008091EB0080628093EB000F900F9030
:10FED000DF91CF911F9108950895CF938EB388231A
:10FEE00099F0C091E900CF709091EC00892F81705A
:10FEF00090FD80E8C82B1092E9008091E80083FD16
:10FF0000E1DECF70C093E900CF910895F999FECF5B
:10FF100092BD81BDF89A992780B50895262FF99949
:10FF2000FECF92BD81BDF89A019700B4021639F058
:10FF30001FBA20BD0FB6F894FA9AF99A0FBE089529
:04FF4000F894FFCF63
:10FF4400012A034400770065006E006700750069AC
:10FF5400006E006F00200042006F006F0074006CA0
:10FF6400006F006100640065007200000016034425
:10FF740000770065006E0067006F0020004C004CA5
:10FF840000430000000403090409023E00020100CA
:10FF9400803209040000010202000005240010015F
:10FFA400042402020524060001070582030800FF59
:10FFB40009040100020A00000007050402100005FC
:10FFC40007058302100005426F6F746C6F616465EE
:10FFD4007220A520004177616974696E67205043DF
:0EFFE4000050726F6772616D6D696E6700008C
:08FFF800A2F0000000DFFBDCB9
:040000030000F00009
:00000001FF
