:200000000C94E8000C9410010C9410010C9410010C9410010C9410010C9410010C94100181
:200020000C9410010C9410010C94B4030C941D040C9410010C9410010C9410010C94100182
:200040000C9410010C9410010C9410010C9410010C9410010C9410010C9410010C943308EE
:200060000C9410010C9410010C9410010C9410010C9410010C9410010C9410010C941001F8
:200080000C9410010C9410010C9410010C9410010C947D080C9410017507780767076B07EB
:2000A0006F0793077C07800786078A078E07080B0002020201000904000001020200000542
:2000C0002400100105240101010424020605240600010705810310004009040100020A0065
:2000E00000000705020240000007058302400000040309041201000202020040E0D31A6045
:200100000002010203014477656E676F204C4C43004477656E6775696E6F20426F617264BF
:200120000000002100240027002A002D00300000002200250028002B002E003100040402C9
:2001400002040202040404020202020404050505050505050506060606060606060101011E
:20016000010101010103030303030303030408048080402040201001100802010280402084
:20018000100804020180402010080402010102040810204080010204081020408000000043
:2001A000050004030000000007000002080000000000000000000000000000000000000022
:2001C0000000000000000000000B0A090000470A11241FBECFEFD0E1DEBFCDBF11E0A0E095
:2001E000B1E0ECE4F7E102C005900D92A436B107D9F722E0A4E6B1E001C01D92A836B2074A
:20020000E1F710E0C8EED0E004C02197FE010E94990BC73ED107C9F70E94A20A0C94A40BB5
:200220000C940000FC0180916B01811103C08FEF9FEF08959FB7F89482E08093E9002091B5
:20024000F20030E01216130614F421E030E02115310551F084E6809393018091F10080837F
:200260008091F200882319F09FBFC90108958BE68093E800F9CF2FB7F89483E08093E900FD
:200280009091E800892F807295FF04C09091F20080E4891B2FBF089580918B0181110DC0B1
:2002A00082E08093870184E08093880110928A011092890181E080938B0187E891E008956B
:2002C000CF93DF931F92CDB7DEB76983DC01ED91FC910280F381E02D41E050E0BE016F5FCB
:2002E0007F4F09950F90DF91CF91089583E08093E9008091F200882319F08AE38093E80008
:2003000008950E943B0190E00895CF93DF931F92CDB7DEB7FC018485958597FD05C02FEF20
:200320003FEF358724870BC0CE0101960E941201019719F4898190E002C08FEF9FEF0F90B6
:20034000DF91CF9108950F931F93CF93DF931F92CDB7DEB78C01FC018485958597FF0EC02D
:20036000CE0101960E941201019719F4298130E002C02FEF3FEFF80135872487F801848593
:2003800095850F90DF91CF911F910F910895FC018485958597FD0BC09FB7F89482E0809311
:2003A000E9008091F2009FBF90E0019608959FB7F89482E08093E9008091F2009FBF90E03E
:2003C00008958F929F92AF92BF92CF92DF92EF92FF920F931F93CF93DF935C016B017A014C
:2003E00080910B01882309F459C080916B01882309F454C080916A0180FF05C08091E00035
:2004000082608093E000E70110E00AEF83E0882E9AE3992E2097D1F10E943B01811109C027
:200420000150E1F161E070E080E090E00E94F907F1CF282F30E0C217D3070CF48C2F4FB7FB
:20044000F8948092E9009091E80095FF1DC0282F30E0C21BD30BF601982F915020F08191B8
:200460008093F100FACFC20ED31E112319F09092E80009C08091E80085FD06C09092E80093
:2004800011E0209709F010E04FBFC4CF1111C4CF84E6809386011E141F0444F081E090E017
:2004A000F5019383828380E090E001C0C701DF91CF911F910F91FF90EF90DF90CF90BF9087
:2004C000AF909F908F900895CF92DF92EF92FF920F931F93CF93DF931F92CDB7DEB7182FD5
:2004E000062FE42E862F880F8E5F99830E941C0783E00E941C07F12EC12E9981D92E8C2D8B
:200500008F19801798F4F601E7FE02C0849101C080810E941C07182F80E00E941C078123C6
:20052000FFEFCF1ADF0A8111EACF01C081E00F90DF91CF911F910F91FF90EF90DF90CF90F3
:200540000895DF92EF92FF920F931F93CF93DF93D82E8A017B01E40EF51EEB01CE15DF058E
:2005600071F0D7FE03C0FE01849101C088810E941C0721968111F2CF8FEF9FEF01C0C8013F
:20058000DF91CF911F910F91FF90EF90DF9008950F931F93CF93DF931F92CDB7DEB782E0CD
:2005A000898342E450E06EEA70E080E80E94A1020E944C01DC0112960D911C911397011505
:2005C000110569F0D801ED91FC910280F381E02DBE016F5F7F4FC801099597FF07C089819C
:2005E0000F90DF91CF911F910F910895F80100851185E5CF1F93CF93DF93CCE6D1E0E88D79
:20060000F98D108161E0CE010E94440AE88DF98D10838BE39FE10197F1F7DF91CF911F9147
:200620000895EF92FF920F931F93CF93DF93EC01623018F08F8588608F876B8B1C8A80E44A
:200640008D8B80E18E8B80E58F8B61E08C810E94BD078D818F3F19F061E00E94BD0761E008
:200660008E810E94BD077E0187E0E80EF11C00E010E08F8584FD03C084E090E002C088E0F6
:2006800090E0081719074CF461E0F70181917F010E94BD070F5F1F4FECCF8BE39DE0019720
:2006A000F1F760E08C810E944A0760E08E810E944A078D818F3F19F060E00E944A076F85C4
:2006C00064FD1DC063E0CE010E94AB090BE416E4C8010197F1F763E0CE010E94AB09C80111
:2006E0000197F1F763E0CE010E94AB0983E592E00197F1F762E0CE010E94AB0916C06062B9
:20070000CE010E94440A8BE496E40197F1F76F856062CE010E94440A83E592E00197F1F7E2
:200720006F856062CE010E94440A6F856062CE010E94440A84E0888B6CE0CE010E94440A4D
:2007400061E0CE010E94440A8BE39FE10197F1F782E0898B66E0CE01DF91CF911F910F9180
:20076000FF90EF900C94440A1F920F920FB60F9211248F939F938091E1009091E100937F36
:200780009093E10083FF0FC01092E90091E09093EB001092EC0092E39093ED0010926B01D9
:2007A00098E09093F00082FF1CC093E09093E9009091F200992319F09AE39093E800909151
:2007C0008601992329F09091860191509093860190919301992329F0909193019150909347
:2007E000930184FF10C08091E2008E7E81608093E2008091E1008F7E8093E10080916A01CE
:200800008E7E806111C080FF11C08091E2008E7E80618093E2008091E1008E7E8093E10003
:2008200080916A018E7E816080936A019F918F910F900FBE0F901F9018951F920F920FB603
:200840000F921124CF92DF92EF92FF920F931F932F933F934F935F936F937F938F939F93BA
:20086000AF93BF93EF93FF93CF93DF93CDB7DEB76C97DEBFCDBF1092E9008091E80083FFB1
:2008800001C2FE017596DE2ECF2E88E08E0F8E1729F09091F10090833196F9CF84E680938E
:2008A000930182EF8093E8008D8987FF05C09091E80090FFFCCF03C09EEF9093E800982F52
:2008C000907609F0C5C09E892F89188D91110CC0803829F4809169018093F10002C01092EA
:2008E000F1001092F1004FC1422F50E0512B913051F4811148C14130510509F044C18091D0
:2009000069018D7F0BC0933061F481113CC14130510509F038C1809169018260809369015C
:2009200032C1953041F48091E80080FFFCCF20682093E30028C1963009F05EC0EB8CFC8CA4
:200940001092E9001092670110926601123091F510926501109264010E94C80299E0BE017E
:200960006F5F7F4FDB01E92F1D92EA95E9F799831A8391E09E8390EA98879AEF998720919B
:20098000660130916701275F3F4F3C832B838D831092E9001092670110926601F0926501B0
:2009A000E092640149E050E080E00E94A1020E94C802E9C0F0926501E09264010E944C019F
:2009C000DC011296ED90FC901397E114F10409F4C7C0D701ED91FC910480F581E02D6D2DED
:2009E0007C2DC7010995009719F00CF0CCC0CFC0F701E084F184E9CF973009F4C8C0983094
:200A000021F481E08093F100BEC0993009F0BBC0837009F0BCC0EDE0F1E081E021E036E320
:200A20009081992361F08093E9002093EB0091919093EC003093ED008F5F873089F78EE783
:200A40008093EA001092EA008F8980936B019BC08B8D9C8D1092E90010926701109266013C
:200A60009093650180936401898D81115FC08E899D89913A59F4813209F089C047E050E00D
:200A800064E071E080E00E94A1027DC0913209F07EC0833289F4888D90E0982F88272F8900
:200AA000822BA0E0B0E08093000190930101A0930201B093030167C08032B1F48091E8004C
:200AC00082FFFCCFE4E0F1E087E08E0F8E1729F09091F10090833196F9CF84E680939301AE
:200AE0008BEF8093E80006C0823209F04CC08F8980930B0180916801882319F0EEEFF0E1EF
:200B000002C0E0E0F8E08091040190910501A0910601B0910701803B9440A105B10509F0D9
:200B20007CC080910B0180FF94C077C00E944C01DC0112960D911C9113970115110539F193
:200B4000D801ED91FC910190F081E02D6D2D7C2DC8010995811117C0F80100851185EDCFBF
:200B6000113009F44FC0133091F48F89882309F446C0823081F440E86FE081E191E00E9487
:200B80006402882321F08EEF8093E8007BC081E28093EB0077C0813029F440E86AE086E042
:200BA00091E0EDCF833099F7DE01119640E050E0CD0161E2FA013E9660935700E4912E2FF3
:200BC00030E074E0359527957A95E1F7EF702A30310514F4205D01C0295C2C93EA3010F4AD
:200BE000E05D01C0E95C1196EC9311974F5F5F4F12964A305105F1F640E064E1C0CF60EFE6
:200C000070E002C064EF70E06115710509F4BFCFFB01449150E080E836CF0FB6F894A895AC
:200C200080916000886180936000109260000FBEA895EE3F20E1F20739F08091FE1090914B
:200C4000FF10918380839FCF1092FF101092FE109ACFEE3F80E1F80731F080819181909352
:200C6000FF108093FE1087E797E7918380839BE088E10FB6F894A895809360000FBE90936C
:200C8000600081CF6C960FB6F894DEBF0FBECDBFDF91CF91FF91EF91BF91AF919F918F919B
:200CA0007F916F915F914F913F912F911F910F91FF90EF90DF90CF900F900FBE0F901F90DE
:200CC0001895CF92DF92EF92FF920F931F93CF93DF936C017A018B01C0E0D0E0CE15DF05D0
:200CE00089F0D8016D918D01D601ED91FC910190F081E02DC6010995892B11F47E0102C0C6
:200D00002196ECCFC701DF91CF911F910F91FF90EF90DF90CF9008953FB7F8948091640207
:200D200090916502A0916602B091670226B5A89B05C02F3F19F00196A11DB11D3FBFBA2F84
:200D4000A92F982F8827820F911DA11DB11DBC01CD0142E0660F771F881F991F4A95D1F7BC
:200D6000089585ED8093BC008091BC0084FDFCCF10923902089540911302262F30E0240F84
:200D8000311D21323105DCF4209139022430C9F4FC0180E090E0861758F430911302219171
:200DA000DC01AF50BE4FA30FB11D2C930196F3CF80911302680F6093130280E0089581E0AF
:200DC000089582E0089508958FEF9FEF08958FEF9FEF08958091F00190E091958195910940
:200DE0000895CF93DF9300D0CDB7DEB7CB01642F49835A830E94BB064981842F5A81952F12
:200E00000F900F90DF91CF910895CF93DF931F92CDB7DEB7698361E0CE0101960E94BB0693
:200E200081E090E00F90DF91CF910895089580E090E008950E949F0B4091660150916701FE
:200E4000209164013091650142175307B4F49091E8009570E1F39091E80092FD19C0809394
:200E6000F100809166019091670101968F739927892B19F48EEF8093E80080916601909155
:200E800067010196909367018093660181E0089580E00895362F90E0FC01E356FE4F449126
:200EA000FC01E359FE4F2491FC01E35CFE4F8491882309F44BC04423B1F150E0FA013197AA
:200EC000EB30F10580F5E45BFF4F0C94990B909180009F7707C0909180009F7D03C090919C
:200EE0008000977F909380001EC094B59F7702C094B59F7D94BD17C09091B0009F7703C083
:200F00009091B0009F7D9093B0000DC0909190009F7707C0909190009F7D03C09091900075
:200F2000977F90939000E82FF0E0EE0FFF1FE15DFE4FA591B4918FB7F894EC91311103C08C
:200F400020952E2301C02E2B2C938FBF0895CF93DF93EC0160E08E810E944A0761E08E8174
:200F60000E944A0760E08E810E944A078BE891E00197F1F7DF91CF910895CF93DF9390E027
:200F8000FC01E359FE4F2491FC01E35CFE4F8491882361F190E0880F991FFC01EF5DFE4F26
:200FA000C591D491FC01E15DFE4FA591B491611109C09FB7F8948881209582238883EC916B
:200FC0002E230BC0623061F49FB7F8943881822F809583238883EC912E2B2C939FBF06C043
:200FE0008FB7F894E8812E2B28838FBFDF91CF9108958F929F92AF92BF92CF92DF92EF92C0
:20100000FF926B017C010E948C064B015C01C114D104E104F104F1F00E948C06DC01CB0137
:2010200088199909AA09BB09883E9340A105B10570F321E0C21AD108E108F10888EE880EFA
:2010400083E0981EA11CB11CC114D104E104F10419F7DDCFFF90EF90DF90CF90BF90AF9043
:201060009F908F9008951F920F920FB60F9211242F933F938F939F93AF93BF9380916002A9
:2010800090916102A0916202B091630230915F0223E0230F2D3720F40196A11DB11D05C0DA
:2010A00026E8230F0296A11DB11D20935F028093600290936102A0936202B093630280916D
:2010C000640290916502A0916602B09167020196A11DB11D8093640290936502A09366021E
:2010E000B0936702BF91AF919F918F913F912F910F900FBE0F901F9018951F920F920FB656
:201100000F9211242F933F934F935F936F937F938F939F93AF93BF93EF93FF938091B900B7
:20112000887F803609F49CC068F5883209F45BC090F4803109F454C038F4882309F4F6C09A
:20114000883009F44DC0F6C0883109F44CC0803209F45DC0EFC0803409F468C048F4803312
:2011600009F455C0883309F0E5C080933802D8C0803509F44FC0883509F45DC0883409F0D2
:20118000D9C0D6C0883909F4C7C0A8F4883709F467C038F4883609F463C0803709F460C07E
:2011A000C9C0883809F4B8C0803909F45FC0803809F0C0C05BC0803B09F486C038F4803A6C
:2011C00009F466C0883A09F47FC0B4C0803C09F4A7C0883C09F4A4C0883B09F48AC0AAC0C1
:2011E00080915E0210C090915D0280915C02981770F5E0915D0281E08E0F80935D02F0E09B
:20120000E45CFD4F80818093BB0085EC86C0809338028EC0E0915D0281E08E0F80935D02E1
:201220008091BB00F0E0E45CFD4F808390915D0280915C026EC0E0915D0281E08E0F809385
:201240005D028091BB00F0E0E45CFD4F808380913B0281116DC081E080933A0284EA61C0B8
:2012600083E08093390210923702CFCF80913702803208F051C0E091370281E08E0F809384
:2012800037028091BB00F0E0E95EFD4F8083BDCF85EC8093BC00109239028091370280323E
:2012A00030F4E0913702F0E0E95EFD4F10826091370270E0E0911502F091160287E192E0F6
:2012C00009951092370236C084E0809339021092140210921302E0911102F09112020995C7
:2012E00080911302811105C081E0809313021092F101E091140281E08E0F80931402F0E0D6
:20130000EF50FE4F80818093BB009091140280911302981708F479CF85E88093BC000AC01C
:2013200085EC8093BC001092390204C0109238020E94B106FF91EF91BF91AF919F918F91A7
:201340007F916F915F914F913F912F910F900FBE0F901F901895CF92DF92EF92FF920F9330
:201360001F93CF93DF937C016C0187E0C80ED11CC0E0D0E0062F10E0B8010C2E02C075959F
:2013800067950A94E2F76170F60181916F010E944A072196C430D10579F7C701DF91CF9114
:2013A0001F910F91FF90EF90DF90CF900C94A707CF92DF92EF92FF920F931F93CF93DF93A7
:2013C000EC01F62E642F8C810E944A078D818F3F19F060E00E944A078F850F2D10E084FF8E
:2013E00025C06E0187E0C80ED11CE12CF12CB8010E2C02C0759567950A94E2F76170F6014B
:2014000081916F010E944A07FFEFEF1AFF0A88E0E816F10461F7CE01DF91CF911F910F91B5
:20142000FF90EF90DF90CF900C94A707B80184E0759567958A95E1F7CE010E94AB096F2DA7
:20144000CE01DF91CF911F910F91FF90EF90DF90CF900C94AB0941E00E94D80981E090E0F8
:2014600008951F93CF93DF93EC01E88DF98D108141E00E94D809E88DF98D108381E090E0CD
:20148000DF91CF911F91089540E00C94D809CF92DF92EF92FF92CF93DF93E4E9F1E01382A3
:2014A000128288EEC82E83E0D82EE12CF12CC482D582E682F78287E191E0918380838FEFAD
:2014C0009FEF95878487CCE6D1E01B821A8289E291E09983888387E18C8386E18D8385E164
:2014E0008E8380E28F8381E2888782E2898783E28A8784E28B8785E28C8786E28D8787E234
:201500008E8780E18F8761E0CE010E94110385E391E09983888382E290E0998F888FE4EE94
:20152000F1E013821282C482D582E682F78281E491E091838083DF91CF91FF90EF90DF90F9
:20154000CF900895789484B5826084BD84B5816084BD85B5826085BD85B5816085BD809100
:201560006E00816080936E0010928100809181008260809381008091810081608093810069
:20158000809180008160809380008091B10084608093B1008091B00081608093B000809166
:2015A0009100826080939100809191008160809391008091900081608093900080917A003D
:2015C000846080937A0080917A00826080937A0080917A00816080937A0080917A00806834
:2015E00080937A0010926B011092690110926A018091D70081608093D70080EA8093D8002F
:2016000089B5837E886189BD89B5826089BD09B400FEFDCF61E070E080E090E00E94F9076C
:201620008091D8008F7C80618093D8008091E000887F8093E0008091E1008E7E8093E1000D
:201640008DE08093E200EEEFFFEF859194918B3F9C4D19F481E08093680161E084E10E943D
:201660004A0762E08CE691E00E9411030E94FA028FEF81B912B862E083E10E94BD0762E0D0
:2016800082E10E94BD0762E081E10E94BD0762E080E10E94BD0762E08FE20E94BD0761E014
:2016A0008EE20E94BD0761E08DE00E94BD070E94FA024AE050E06FE471E08CE691E00E941F
:2016C0006106E0917F01E23010F4E15001C0E1E0F0E0E459FE4F648960688CE691E00E9455
:2016E000440A49E050E06AE571E08CE691E00E946106CAEAD5E500E010E061E08DE00E9429
:201700004A07C2B968EE73E080E090E00E94F90760E08DE00E944A07D2B968EE73E080E0AE
:2017200090E00E94F9070115110539F30E940000E4CFEE0FFF1F0590F491E02D099481E0AA
:2017400090E0F8940C94A40BF894FFCFFFFFFFFF00E100000000000000C180810000000045
:201760000000006001E10181017601C7018501A301000000002B0A61061707160700000064
:2017800000310A610617071607000000000507F1061707E306EA06E706E40657656C636FA1
:2017A0006D6520746F004477656E6775696E6F00FFFFFFFFFFFFFFFFFFFFFFFFFFFFFFFFB4
:2017C000FFFFFFFFFFFFFFFFFFFFFFFFFFFFFFFFFFFFFFFFFFFFFFFFFFFFFFFFFFFFFFFF29
:2017E000FFFFFFFFFFFFFFFFFFFFFFFFFFFFFFFFFFFFFFFFFFFFFFFFFFFFFFFFFFFFFFFF09
:20180000FFFFFFFFFFFFFFFFFFFFFFFFFFFFFFFFFFFFFFFFFFFFFFFFFFFFFFFFFFFFFFFFE8
:20182000FFFFFFFFFFFFFFFFFFFFFFFFFFFFFFFFFFFFFFFFFFFFFFFFFFFFFFFFFFFFFFFFC8
:20EFE000FFFFFFFFFFFFFFFFFFFFFFFFFFFFFFFFFFFFFFFFFFFFFFFFFFFFFFFFFFFF4F4B95
:20F0000059C000005FC200005DC200005BC2000059C2000057C2000055C2000053C200001A
:20F0200051C200004FC2000072C500004BC2000049C2000047C2000045C2000043C2000048
:20F0400041C20000D6C2000034C300003BC2000039C2000037C2000035C2000033C2000041
:20F0600031C200002FC200002DC200002BC2000029C2000027C2000025C2000023C2000030
:20F0800021C200001FC200001DC200001BC2000019C2000017C200004C55464143444382C8
:20F0A000961E1201000202000040E0D31B6000020102030184B780930E028091FE10909170
:20F0C000FF109093100280930F0211241FBECFEFD0E1DEBFCDBF11E0A0E0B1E0E4EFFEEF5C
:20F0E00002C005900D92AA3BB107D9F722E0AAEBB1E001C01D92AC30B207E1F701D0F8C619
:20F1000014BE88E1809360001092600080E880936100109261006D98759A8FE99FE00197BD
:20F12000F1F700C000001092FF101092FE10E0E0F0E08591949120910E02019619F489E825
:20F1400091E00BC0EEEFFFEE85919491019651F481E08093BD018CE891E090930201809342
:20F1600001011BC08FEF8093BE01822F857091F480910F02873719F48AEA91E0EECF21FF88
:20F180000AC0659903C08FE891E0E7CF1092FF101092FE109FD123FDFDCF206820930E023E
:20F1A00081E085BF82E085BF219AEBD2739883E991E0FDD28091010190910201F8D261E093
:20F1C00081E001D381EA91E0F2D261E081E0FBD212B888E08093C5017FD486E080936F00A5
:20F1E0008BE0809381008AEF90E09093890080938800659903C080E69AEE02C080E49FE18B
:20F2000062D153E0552E0EEF1FEE6FE4862E6BE4962EC12C7FEED72E80910C0290910D0233
:20F22000892B09F442C144E0242E2092E9008091E80082FF32C189D1C82F853421F484EF0A
:20F2400091E041D107C088E88C0F823010F0C43521F47BD18DE0A2D10BC1C03551F4F894DB
:20F26000F60150925700E895789407B600FCFDCF19C0CC34C9F4F80185919491019651F7A7
:20F28000F89422242394F801040120925700E895112485E0F60180935700E895789407B620
:20F2A00000FCFDCF25D1D6CFC43711F481E964C0C13611F489E5CFCFC13489F446D18093B9
:20F2C000140243D1809313028091130290911402880F991F9093120280931102BBCFC03752
:20F2E00011F483E5B8CFC33551F41092BD018DEA91E05DD212B867E088E990EF0BC0C6359F
:20F3000021F482E34BD180E3A6CFC33729F463E08FE990EF55D1ACC0C53671F4E0E0F0EF9D
:20F32000FA95F89450925700E895789407B600FCFDCF3097A9F7B6CFC23721F489E0E1E047
:20F34000F0E011C0C63421F489E0E0E0F0E00BC0CE3421F489E0E3E0F0E005C0C13539F43E
:20F3600089E0E2E0F0E080935700849174CFC23631F489E513D181E011D180E06CCFC2348D
:20F3800019F0C73609F071C0E0D0F82EDED0E82EDCD066246394863409F0612C85548230AB
:20F3A00010F08FE358CFA0901102B090120277247394C23409F0712C462C472079F0F501B7
:20F3C00083E0A8D00BC0F894C0D0682F80911302909114027BD57894A8D07E01E701219784
:20F3E000E114F10409F42DC07720A9F0662059F3ACD0282EAAD0382E9101F894E0911102E3
:20F40000F091120233243394090130925700E895112478940CC0662069F0E0911102F091A8
:20F420001202C591D4918C2FB9D08D2FB7D0E7012297D2CF80911302909114023FD5AED045
:20F44000CBCF442041F085E065D052D0AB2819F48FEF8093BE01F999FECF772011F08DE02D
:20F460009DD080E49FE12FD003C0CB3109F099CF5092E900C091E80081D081110EC0C5FFA3
:20F4800009C024E02093E9008091E8008B778093E80003C073D08823A1F3F5D48091BD0130
:20F4A000882309F4B9CE6599B7CE8FE99FE00197F1F700C000008091E00081608093E0009E
:20F4C00056D168CE9DCDF89490930D0280930C0278940895F89410926F0010928100219864
:20F4E00081E085BF15BE80910E02282E0C940000F89481E180935700E895789408958091EE
:20F50000BC01811106C081E08093BC0182E080936F000895F894F89480935700E895789419
:20F52000789407B600FCFDCF0895809113029091140201969093140280931302880F991FF9
:20F540009093120280931102089584E08093E9008091E80085FD0EC08091E8008B778093FA
:20F56000E8008091E80082FDF3CF8EB38111F9CF80E00895C4DF8091F10008958091E80096
:20F580008E778093E8008091E80080FD05C08EB38111F9CF8FEF089580E00895CF93C82F24
:20F5A00083E08093E9008091E80085FF04C0A7DFC093F10003C0E2DF8823C9F3CF910895F9
:20F5C0000F931F93CF93DF931F92CDB7DEB78C01680F601741F0F80184916983DFDF0F5F67
:20F5E0001F4F6981F6CF0F90DF91CF911F910F9108951F920F920FB60F9211248F939F9351
:20F600008091BE01882379F080910C0290910D02892B49F080910C0290910D0201979093C0
:20F620000D0280930C028091BB018F5F8093BB018091BC01882371F08091BB01883288F136
:20F640008091BB018C3358F11092BC0186E080936F0028C08091BB018430D8F01092BB01FF
:20F66000809100019091BA01890F8093BA01889FC0011124892F992790938B0080938A0056
:20F680008091BA01811105C08091000181958093000180918A0090918B00892B11F429984A
:20F6A00001C0299A9F918F910F900FBE0F901F9018951F920F920FB60F92112429980F90C2
:20F6C0000FBE0F901F90189542E061EC82E091D142E161E883E08DD142E160E884E089C1E9
:20F6E000809104028132D1F480910502803271F48091E800877F8093E80067E070E08FEB41
:20F7000091E03BD18091E8008E771BC08232D9F48091E800877F8093E8007FC1813A99F490
:20F7200080910502813279F48091E800877F8093E80067E070E08FEB91E0C3D08091E80089
:20F740008B778093E8000895882311F0709801C0709A62B9729A85E08A95F1F700007298F3
:20F7600087EC90E00197F1F700C00000089561E081E0EADF8FE89AE10197F1F700C000002C
:20F7800008958FEF81B98DB18F608DB971988FE59AEE0197F1F700C0000068E381E0D4DFFD
:20F7A0006CE081E0D1DF66E081E0CEDFE0CFCF93DF93EC016991662319F080E0C5DFFACFCF
:20F7C000DF91CF910895811180E4680F606881E0BBCFFC01208121110AC0FB012491DC0174
:20F7E000FB01215020F084918D933196FACF0895CF93DF93EA01913051F462EA70EF86EC48
:20F8000091E0E7DF8091C60126EC31E054C0923009F43EC0933009F04BC0882309F43CC07A
:20F82000813009F43DC0823009F43EC0833009F03FC08093D9018AE28093D801AAEDB1E058
:20F84000EEE0F0E041E2409357002491322F32953F702F70832F90E03A3010F4C09601C0EB
:20F86000C79611969C938E93822F90E02A3010F4C09601C0C79613969C938E9312973196D8
:20F880001496E831F105F9F68AE228ED31E013C08EE32BE431E00FC084E027E431E00BC0B0
:20F8A00086E12FE231E007C08AE223E031E003C080E020E030E03983288390E0DF91CF919E
:20F8C000089520910A0230910B022617370748F06115710539F42091E8002E772093E8005B
:20F8E00001C0B901FC0120E06115710599F18EB38823E9F18530E9F18091E80083FD3BC051
:20F900008091E80082FF06C08091E80082FF25C080E008958091E80080FFE6CF8091F2001B
:20F920009091F3006115710551F08034910538F421912093F100615071090196F3CF21E035
:20F940008034910509F020E08091E8008E778093E800CACF2111CBCFD7CF8EB3882339F04B
:20F96000853039F08091E80083FFCECF04C082E0089583E0089581E008956115710529F4C7
:20F980002091E8002B772093E8006115710521F12EB3222351F1253051F12091E80023FDDB
:20F9A00020C02091E80022FFF3CFFC01CF012091F2003091F300232B19F38091F100819357
:20F9C000CF01615071096115710581F7D9CF8EB3882359F0853059F08091E80080FFF7CFAF
:20F9E00002C081E0089580E0089582E0089583E008958F708093E900EBEEF0E080818160C5
:20FA00008083EDEEF0E010826093EC0040838091EE00881F8827881F08958091040287FDD0
:20FA200005C08091E80080FF0DC010C08091E80082FD04C08EB38111F9CF08958091E8007F
:20FA40008B7707C08EB38111ECCF08958091E8008E778093E80008950F931F93CF93DF93F4
:20FA600049D050D0C8EDD0E088818F77888388818068888388818F7D8883E7EDF0E080810D
:20FA80008068808319BC1EBA1092020200EE10E0F80180818B7F808388818160888342E329
:20FAA00060E080E0A6DFE1EEF0E080818E7F8083E2EEF0E080818160808380818860808300
:20FAC000F80180818E7F8083888180618883DF91CF911F910F910895E8EDF0E080818F7EB7
:20FAE0008083E7EDF0E080818160808381E080930302B2CFE8EDF0E080818C7F808310922A
:20FB0000E20008951092DA001092E10008951F920F920FB60F9211242F933F934F935F9375
:20FB20006F937F938F939F93AF93BF93EF93FF938091DA0080FF1BC08091D80080FF17C031
:20FB40008091DA008E7F8093DA008091D90080FF0BC088E189BD8AE189BD09B400FEFDCFA5
:20FB600081E08EBB8FD103C019BC1EBA8BD18091E10080FF17C08091E20080FF13C0809111
:20FB8000E2008E7F8093E2008091E20080618093E2008091D80080628093D80019BC85E0C8
:20FBA0008EBB70D18091E10084FF2EC08091E20084FF2AC088E189BD8AE189BD09B400FEDD
:20FBC000FDCF8091D8008F7D8093D8008091E1008F7E8093E1008091E2008F7E8093E20091
:20FBE0008091E20081608093E20080910202882311F084E007C08091E30087FF02C083E0B1
:20FC000001C081E08EBB3ED18091E10083FF21C08091E20083FF1DC08091E100877F8093B8
:20FC2000E10082E08EBB109202028091E1008E7F8093E1008091E2008E7F8093E200809199
:20FC4000E20080618093E20042E360E080E0D1DE19D1FF91EF91BF91AF919F918F917F918E
:20FC60006F915F914F913F912F910F900FBE0F901F9018951F93CF93DF9300D0CDB7DEB74E
:20FC8000E4E0F2E08091F100819382E0EC30F807C9F726DD8091E80083FFE0C09091040236
:20FCA00080910502853009F46DC030F4813071F168F0833059F1D2C0883009F4A5C089305C
:20FCC00009F4B1C0863009F0C9C07DC0903899F0923809F0C3C0809108028F70873008F0E1
:20FCE000BDC08093E9009091EB0095FB992790F91092E90001C090E08091E800877F8093D8
:20FD0000E8009093F1001092F10089C0292F2D7F09F0A4C0923009F0A1C0909106029111C3
:20FD200028C0209108022F709FEF920F963008F095C02093E9009091EB0090FF1AC083307B
:20FD400021F48091EB00806212C08091EB0080618093EB0081E090E001C0880F2A95EAF73A
:20FD60008093EA001092EA008091EB0088608093EB001092E9008091E800877F8093E80093
:20FD80004CDE6CC091116AC0109106021F778091E3008078812B8093E3008091E800877F75
:20FDA0008093E8003ADE8091E80080FFFCCF8091E30080688093E300112311F083E001C0C2
:20FDC00082E08EBB4BC09058923008F047C06091080270910902AE014F5F5F4F8091060299
:20FDE0009091070205DD0097C9F12091E800277F2093E800BC0189819A8163DD8091E800B1
:20FE00008B778093E8002AC0903841F58091E800877F8093E800809102028093F1008091D9
:20FE2000E8008E77ABCF911119C0909106029230A8F48091E800877F8093E8009093020238
:20FE4000ECDD80910202811104C08091E30087FF02C084E001C081E08EBB36DC8091E80058
:20FE600083FF0AC08091E800877F8093E8008091EB0080628093EB000F900F90DF91CF9152
:20FE80001F9108950895CF938EB38823A9F08091E9008F709091EC0090FF02C090E801C001
:20FEA00090E0C92FC82B1092E9008091E80083FDE1DECF70C093E900CF910895F999FECF4D
:20FEC00092BD81BDF89A992780B50895262FF999FECF92BD81BDF89A019700B4021639F011
:20FEE0001FBA20BD0FB6F894FA9AF99A0FBE0895F894FFCF01A0012A034400770065006EB3
:20FF0000006700750069006E006F00200042006F006F0074006C006F006100640065007294
:20FF200000000016034400770065006E0067006F0020004C004C004300000004030904092C
:20FF4000023E000201008032090400000102020000052400100104240202052406000107FD
:20FF60000582030800FF09040100020A00000007050402100005070583021000054E41007A
:20FF800043410052535400426F6F746C6F6164657220A520004177616974696E672050430D
:20FFA0000050726F6772616D6D696E670000FFFFFFFFFFFFFFFFFFFFFFFFFFFFFFFFFFFFD0
:20FFC000FFFFFFFFFFFFFFFFFFFFFFFFFFFFFFFFFFFFFFFFFFFFFFFFFFFFFFFFFFFFFFFF41
:20FFE000FFFFFFFFFFFFFFFFFFFFFFFFFFFFFFFFFFFFFFFFFFFFFFFFFFFFFFFF00DFFBDC67
:00F000010F
