:200000000C94E8000C9410010C9410010C9410010C9410010C9410010C9410010C94100181
:200020000C9410010C9410010C94B4030C941D040C9410010C9410010C9410010C94100182
:200040000C9410010C9410010C9410010C9410010C9410010C9410010C9410010C943308EE
:200060000C9410010C9410010C9410010C9410010C9410010C9410010C9410010C941001F8
:200080000C9410010C9410010C9410010C9410010C947D080C9410017507780767076B07EB
:2000A0006F0793077C07800786078A078E07080B0002020201000904000001020200000542
:2000C0002400100105240101010424020605240600010705810310004009040100020A0065
:2000E00000000705020240000007058302400000040309041201000202020040E0D31A6045
:200100000002010203014477656E676F204C4C43004477656E6775696E6F20426F617264BF
:200120000000002100240027002A002D00300000002200250028002B002E003100040402C9
:2001400002040202040404020202020404050505050505050506060606060606060101011E
:20016000010101010103030303030303030408048080402040201001100802010280402084
:20018000100804020180402010080402010102040810204080010204081020408000000043
:2001A000050004030000000007000002080000000000000000000000000000000000000022
:2001C0000000000000000000000B0A090000470A11241FBECFEFD0E1DEBFCDBF11E0A0E095
:2001E000B1E0ECE4F7E102C005900D92A436B107D9F722E0A4E6B1E001C01D92A836B2074A
:20020000E1F710E0C8EED0E004C02197FE010E94990BC73ED107C9F70E94A20A0C94A40BB5
:200220000C940000FC0180916B01811103C08FEF9FEF08959FB7F89482E08093E9002091B5
:20024000F20030E01216130614F421E030E02115310551F084E6809393018091F10080837F
:200260008091F200882319F09FBFC90108958BE68093E800F9CF2FB7F89483E08093E900FD
:200280009091E800892F807295FF04C09091F20080E4891B2FBF089580918B0181110DC0B1
:2002A00082E08093870184E08093880110928A011092890181E080938B0187E891E008956B
:2002C000CF93DF931F92CDB7DEB76983DC01ED91FC910280F381E02D41E050E0BE016F5FCB
:2002E0007F4F09950F90DF91CF91089583E08093E9008091F200882319F08AE38093E80008
:2003000008950E943B0190E00895CF93DF931F92CDB7DEB7FC018485958597FD05C02FEF20
:200320003FEF358724870BC0CE0101960E941201019719F4898190E002C08FEF9FEF0F90B6
:20034000DF91CF9108950F931F93CF93DF931F92CDB7DEB78C01FC018485958597FF0EC02D
:20036000CE0101960E941201019719F4298130E002C02FEF3FEFF80135872487F801848593
:2003800095850F90DF91CF911F910F910895FC018485958597FD0BC09FB7F89482E0809311
:2003A000E9008091F2009FBF90E0019608959FB7F89482E08093E9008091F2009FBF90E03E
:2003C00008958F929F92AF92BF92CF92DF92EF92FF920F931F93CF93DF935C016B017A014C
:2003E00080910B01882309F459C080916B01882309F454C080916A0180FF05C08091E00035
:2004000082608093E000E70110E00AEF83E0882E9AE3992E2097D1F10E943B01811109C027
:200420000150E1F161E070E080E090E00E94F907F1CF282F30E0C217D3070CF48C2F4FB7FB
:20044000F8948092E9009091E80095FF1DC0282F30E0C21BD30BF601982F915020F08191B8
:200460008093F100FACFC20ED31E112319F09092E80009C08091E80085FD06C09092E80093
:2004800011E0209709F010E04FBFC4CF1111C4CF84E6809386011E141F0444F081E090E017
:2004A000F5019383828380E090E001C0C701DF91CF911F910F91FF90EF90DF90CF90BF9087
:2004C000AF909F908F900895CF92DF92EF92FF920F931F93CF93DF931F92CDB7DEB7182FD5
:2004E000062FE42E862F880F8E5F99830E941C0783E00E941C07F12EC12E9981D92E8C2D8B
:200500008F19801798F4F601E7FE02C0849101C080810E941C07182F80E00E941C078123C6
:20052000FFEFCF1ADF0A8111EACF01C081E00F90DF91CF911F910F91FF90EF90DF90CF90F3
:200540000895DF92EF92FF920F931F93CF93DF93D82E8A017B01E40EF51EEB01CE15DF058E
:2005600071F0D7FE03C0FE01849101C088810E941C0721968111F2CF8FEF9FEF01C0C8013F
:20058000DF91CF911F910F91FF90EF90DF9008950F931F93CF93DF931F92CDB7DEB782E0CD
:2005A000898342E450E06EEA70E080E80E94A1020E944C01DC0112960D911C911397011505
:2005C000110569F0D801ED91FC910280F381E02DBE016F5F7F4FC801099597FF07C089819C
:2005E0000F90DF91CF911F910F910895F80100851185E5CF1F93CF93DF93CCE6D1E0E88D79
:20060000F98D108161E0CE010E94440AE88DF98D10838BE39FE10197F1F7DF91CF911F9147
:200620000895EF92FF920F931F93CF93DF93EC01623018F08F8588608F876B8B1C8A80E44A
:200640008D8B80E18E8B80E58F8B61E08C810E94BD078D818F3F19F061E00E94BD0761E008
:200660008E810E94BD077E0187E0E80EF11C00E010E08F8584FD03C084E090E002C088E0F6
:2006800090E0081719074CF461E0F70181917F010E94BD070F5F1F4FECCF8BE39DE0019720
:2006A000F1F760E08C810E944A0760E08E810E944A078D818F3F19F060E00E944A076F85C4
:2006C00064FD1DC063E0CE010E94AB090BE416E4C8010197F1F763E0CE010E94AB09C80111
:2006E0000197F1F763E0CE010E94AB0983E592E00197F1F762E0CE010E94AB0916C06062B9
:20070000CE010E94440A8BE496E40197F1F76F856062CE010E94440A83E592E00197F1F7E2
:200720006F856062CE010E94440A6F856062CE010E94440A84E0888B6CE0CE010E94440A4D
:2007400061E0CE010E94440A8BE39FE10197F1F782E0898B66E0CE01DF91CF911F910F9180
:20076000FF90EF900C94440A1F920F920FB60F9211248F939F938091E1009091E100937F36
:200780009093E10083FF0FC01092E90091E09093EB001092EC0092E39093ED0010926B01D9
:2007A00098E09093F00082FF1CC093E09093E9009091F200992319F09AE39093E800909151
:2007C0008601992329F09091860191509093860190919301992329F0909193019150909347
:2007E000930184FF10C08091E2008E7E81608093E2008091E1008F7E8093E10080916A01CE
:200800008E7E806111C080FF11C08091E2008E7E80618093E2008091E1008E7E8093E10003
:2008200080916A018E7E816080936A019F918F910F900FBE0F901F9018951F920F920FB603
:200840000F921124CF92DF92EF92FF920F931F932F933F934F935F936F937F938F939F93BA
:20086000AF93BF93EF93FF93CF93DF93CDB7DEB76C97DEBFCDBF1092E9008091E80083FFB1
:2008800001C2FE017596DE2ECF2E88E08E0F8E1729F09091F10090833196F9CF84E680938E
:2008A000930182EF8093E8008D8987FF05C09091E80090FFFCCF03C09EEF9093E800982F52
:2008C000907609F0C5C09E892F89188D91110CC0803829F4809169018093F10002C01092EA
:2008E000F1001092F1004FC1422F50E0512B913051F4811148C14130510509F044C18091D0
:2009000069018D7F0BC0933061F481113CC14130510509F038C1809169018260809369015C
:2009200032C1953041F48091E80080FFFCCF20682093E30028C1963009F05EC0EB8CFC8CA4
:200940001092E9001092670110926601123091F510926501109264010E94C80299E0BE017E
:200960006F5F7F4FDB01E92F1D92EA95E9F799831A8391E09E8390EA98879AEF998720919B
:20098000660130916701275F3F4F3C832B838D831092E9001092670110926601F0926501B0
:2009A000E092640149E050E080E00E94A1020E94C802E9C0F0926501E09264010E944C019F
:2009C000DC011296ED90FC901397E114F10409F4C7C0D701ED91FC910480F581E02D6D2DED
:2009E0007C2DC7010995009719F00CF0CCC0CFC0F701E084F184E9CF973009F4C8C0983094
:200A000021F481E08093F100BEC0993009F0BBC0837009F0BCC0EDE0F1E081E021E036E320
:200A20009081992361F08093E9002093EB0091919093EC003093ED008F5F873089F78EE783
:200A40008093EA001092EA008F8980936B019BC08B8D9C8D1092E90010926701109266013C
:200A60009093650180936401898D81115FC08E899D89913A59F4813209F089C047E050E00D
:200A800064E071E080E00E94A1027DC0913209F07EC0833289F4888D90E0982F88272F8900
:200AA000822BA0E0B0E08093000190930101A0930201B093030167C08032B1F48091E8004C
:200AC00082FFFCCFE4E0F1E087E08E0F8E1729F09091F10090833196F9CF84E680939301AE
:200AE0008BEF8093E80006C0823209F04CC08F8980930B0180916801882319F0EEEFF0E1EF
:200B000002C0E0E0F8E08091040190910501A0910601B0910701803B9440A105B10509F0D9
:200B20007CC080910B0180FF94C077C00E944C01DC0112960D911C9113970115110539F193
:200B4000D801ED91FC910190F081E02D6D2D7C2DC8010995811117C0F80100851185EDCFBF
:200B6000113009F44FC0133091F48F89882309F446C0823081F440E86FE081E191E00E9487
:200B80006402882321F08EEF8093E8007BC081E28093EB0077C0813029F440E86AE086E042
:200BA00091E0EDCF833099F7DE01119640E050E0CD0161E2FA013E9660935700E4912E2FF3
:200BC00030E074E0359527957A95E1F7EF702A30310514F4205D01C0295C2C93EA3010F4AD
:200BE000E05D01C0E95C1196EC9311974F5F5F4F12964A305105F1F640E064E1C0CF60EFE6
:200C000070E002C064EF70E06115710509F4BFCFFB01449150E080E836CF0FB6F894A895AC
:200C200080916000886180936000109260000FBEA895EE3F20E1F20739F08091FE1090914B
:200C4000FF10918380839FCF1092FF101092FE109ACFEE3F80E1F80731F080819181909352
:200C6000FF108093FE1087E797E7918380839BE088E10FB6F894A895809360000FBE90936C
:200C8000600081CF6C960FB6F894DEBF0FBECDBFDF91CF91FF91EF91BF91AF919F918F919B
:200CA0007F916F915F914F913F912F911F910F91FF90EF90DF90CF900F900FBE0F901F90DE
:200CC0001895CF92DF92EF92FF920F931F93CF93DF936C017A018B01C0E0D0E0CE15DF05D0
:200CE00089F0D8016D918D01D601ED91FC910190F081E02DC6010995892B11F47E0102C0C6
:200D00002196ECCFC701DF91CF911F910F91FF90EF90DF90CF9008953FB7F8948091640207
:200D200090916502A0916602B091670226B5A89B05C02F3F19F00196A11DB11D3FBFBA2F84
:200D4000A92F982F8827820F911DA11DB11DBC01CD0142E0660F771F881F991F4A95D1F7BC
:200D6000089585ED8093BC008091BC0084FDFCCF10923902089540911302262F30E0240F84
:200D8000311D21323105DCF4209139022430C9F4FC0180E090E0861758F430911302219171
:200DA000DC01AF50BE4FA30FB11D2C930196F3CF80911302680F6093130280E0089581E0AF
:200DC000089582E0089508958FEF9FEF08958FEF9FEF08958091F00190E091958195910940
:200DE0000895CF93DF9300D0CDB7DEB7CB01642F49835A830E94BB064981842F5A81952F12
:200E00000F900F90DF91CF910895CF93DF931F92CDB7DEB7698361E0CE0101960E94BB0693
:200E200081E090E00F90DF91CF910895089580E090E008950E949F0B4091660150916701FE
:200E4000209164013091650142175307B4F49091E8009570E1F39091E80092FD19C0809394
:200E6000F100809166019091670101968F739927892B19F48EEF8093E80080916601909155
:200E800067010196909367018093660181E0089580E00895362F90E0FC01E356FE4F449126
:200EA000FC01E359FE4F2491FC01E35CFE4F8491882309F44BC04423B1F150E0FA013197AA
:200EC000EB30F10580F5E45BFF4F0C94990B909180009F7707C0909180009F7D03C090919C
:200EE0008000977F909380001EC094B59F7702C094B59F7D94BD17C09091B0009F7703C083
:200F00009091B0009F7D9093B0000DC0909190009F7707C0909190009F7D03C09091900075
:200F2000977F90939000E82FF0E0EE0FFF1FE15DFE4FA591B4918FB7F894EC91311103C08C
:200F400020952E2301C02E2B2C938FBF0895CF93DF93EC0160E08E810E944A0761E08E8174
:200F60000E944A0760E08E810E944A078BE891E00197F1F7DF91CF910895CF93DF9390E027
:200F8000FC01E359FE4F2491FC01E35CFE4F8491882361F190E0880F991FFC01EF5DFE4F26
:200FA000C591D491FC01E15DFE4FA591B491611109C09FB7F8948881209582238883EC916B
:200FC0002E230BC0623061F49FB7F8943881822F809583238883EC912E2B2C939FBF06C043
:200FE0008FB7F894E8812E2B28838FBFDF91CF9108958F929F92AF92BF92CF92DF92EF92C0
:20100000FF926B017C010E948C064B015C01C114D104E104F104F1F00E948C06DC01CB0137
:2010200088199909AA09BB09883E9340A105B10570F321E0C21AD108E108F10888EE880EFA
:2010400083E0981EA11CB11CC114D104E104F10419F7DDCFFF90EF90DF90CF90BF90AF9043
:201060009F908F9008951F920F920FB60F9211242F933F938F939F93AF93BF9380916002A9
:2010800090916102A0916202B091630230915F0223E0230F2D3720F40196A11DB11D05C0DA
:2010A00026E8230F0296A11DB11D20935F028093600290936102A0936202B093630280916D
:2010C000640290916502A0916602B09167020196A11DB11D8093640290936502A09366021E
:2010E000B0936702BF91AF919F918F913F912F910F900FBE0F901F9018951F920F920FB656
:201100000F9211242F933F934F935F936F937F938F939F93AF93BF93EF93FF938091B900B7
:20112000887F803609F49CC068F5883209F45BC090F4803109F454C038F4882309F4F6C09A
:20114000883009F44DC0F6C0883109F44CC0803209F45DC0EFC0803409F468C048F4803312
:2011600009F455C0883309F0E5C080933802D8C0803509F44FC0883509F45DC0883409F0D2
:20118000D9C0D6C0883909F4C7C0A8F4883709F467C038F4883609F463C0803709F460C07E
:2011A000C9C0883809F4B8C0803909F45FC0803809F0C0C05BC0803B09F486C038F4803A6C
:2011C00009F466C0883A09F47FC0B4C0803C09F4A7C0883C09F4A4C0883B09F48AC0AAC0C1
:2011E00080915E0210C090915D0280915C02981770F5E0915D0281E08E0F80935D02F0E09B
:20120000E45CFD4F80818093BB0085EC86C0809338028EC0E0915D0281E08E0F80935D02E1
:201220008091BB00F0E0E45CFD4F808390915D0280915C026EC0E0915D0281E08E0F809385
:201240005D028091BB00F0E0E45CFD4F808380913B0281116DC081E080933A0284EA61C0B8
:2012600083E08093390210923702CFCF80913702803208F051C0E091370281E08E0F809384
:2012800037028091BB00F0E0E95EFD4F8083BDCF85EC8093BC00109239028091370280323E
:2012A00030F4E0913702F0E0E95EFD4F10826091370270E0E0911502F091160287E192E0F6
:2012C00009951092370236C084E0809339021092140210921302E0911102F09112020995C7
:2012E00080911302811105C081E0809313021092F101E091140281E08E0F80931402F0E0D6
:20130000EF50FE4F80818093BB009091140280911302981708F479CF85E88093BC000AC01C
:2013200085EC8093BC001092390204C0109238020E94B106FF91EF91BF91AF919F918F91A7
:201340007F916F915F914F913F912F910F900FBE0F901F901895CF92DF92EF92FF920F9330
:201360001F93CF93DF937C016C0187E0C80ED11CC0E0D0E0062F10E0B8010C2E02C075959F
:2013800067950A94E2F76170F60181916F010E944A072196C430D10579F7C701DF91CF9114
:2013A0001F910F91FF90EF90DF90CF900C94A707CF92DF92EF92FF920F931F93CF93DF93A7
:2013C000EC01F62E642F8C810E944A078D818F3F19F060E00E944A078F850F2D10E084FF8E
:2013E00025C06E0187E0C80ED11CE12CF12CB8010E2C02C0759567950A94E2F76170F6014B
:2014000081916F010E944A07FFEFEF1AFF0A88E0E816F10461F7CE01DF91CF911F910F91B5
:20142000FF90EF90DF90CF900C94A707B80184E0759567958A95E1F7CE010E94AB096F2DA7
:20144000CE01DF91CF911F910F91FF90EF90DF90CF900C94AB0941E00E94D80981E090E0F8
:2014600008951F93CF93DF93EC01E88DF98D108141E00E94D809E88DF98D108381E090E0CD
:20148000DF91CF911F91089540E00C94D809CF92DF92EF92FF92CF93DF93E4E9F1E01382A3
:2014A000128288EEC82E83E0D82EE12CF12CC482D582E682F78287E191E0918380838FEFAD
:2014C0009FEF95878487CCE6D1E01B821A8289E291E09983888387E18C8386E18D8385E164
:2014E0008E8380E28F8381E2888782E2898783E28A8784E28B8785E28C8786E28D8787E234
:201500008E8780E18F8761E0CE010E94110385E391E09983888382E290E0998F888FE4EE94
:20152000F1E013821282C482D582E682F78281E491E091838083DF91CF91FF90EF90DF90F9
:20154000CF900895789484B5826084BD84B5816084BD85B5826085BD85B5816085BD809100
:201560006E00816080936E0010928100809181008260809381008091810081608093810069
:20158000809180008160809380008091B10084608093B1008091B00081608093B000809166
:2015A0009100826080939100809191008160809391008091900081608093900080917A003D
:2015C000846080937A0080917A00826080937A0080917A00816080937A0080917A00806834
:2015E00080937A0010926B011092690110926A018091D70081608093D70080EA8093D8002F
:2016000089B5837E886189BD89B5826089BD09B400FEFDCF61E070E080E090E00E94F9076C
:201620008091D8008F7C80618093D8008091E000887F8093E0008091E1008E7E8093E1000D
:201640008DE08093E200EEEFFFEF859194918B3F9C4D19F481E08093680161E084E10E943D
:201660004A0762E08CE691E00E9411030E94FA028FEF81B912B862E083E10E94BD0762E0D0
:2016800082E10E94BD0762E081E10E94BD0762E080E10E94BD0762E08FE20E94BD0761E014
:2016A0008EE20E94BD0761E08DE00E94BD070E94FA024AE050E06FE471E08CE691E00E941F
:2016C0006106E0917F01E23010F4E15001C0E1E0F0E0E459FE4F648960688CE691E00E9455
:2016E000440A49E050E06AE571E08CE691E00E946106CAEAD5E500E010E061E08DE00E9429
:201700004A07C2B968EE73E080E090E00E94F90760E08DE00E944A07D2B968EE73E080E0AE
:2017200090E00E94F9070115110539F30E940000E4CFEE0FFF1F0590F491E02D099481E0AA
:2017400090E0F8940C94A40BF894FFCFFFFFFFFF00E100000000000000C180810000000045
:201760000000006001E10181017601C7018501A301000000002B0A61061707160700000064
:2017800000310A610617071607000000000507F1061707E306EA06E706E40657656C636FA1
:2017A0006D6520746F004477656E6775696E6F00FFFFFFFFFFFFFFFFFFFFFFFFFFFFFFFFB4
:2017C000FFFFFFFFFFFFFFFFFFFFFFFFFFFFFFFFFFFFFFFFFFFFFFFFFFFFFFFFFFFFFFFF29
:2017E000FFFFFFFFFFFFFFFFFFFFFFFFFFFFFFFFFFFFFFFFFFFFFFFFFFFFFFFFFFFFFFFF09
:2018000089BD09B400FEFDCF61E070E080E090E00E948A0680E98093D8008CE08093E200B3
:201820001092E0000895CF93DF931F92CDB7DEB76983DC01ED91FC910280F381E02D41E0F3
:2018400050E0BE016F5F7F4F09950F90DF91CF910895CF93DF93EC018C859D8597FF05C004
:2018600082E00E9446099D878C878C859D85DF91CF91089583E00C949A0BFC018485958576
:2018800097FD06C082E00E94EF0890E00196089582E00E94EF0890E00895FC018485958527
:2018A00097FD05C02FEF3FEF35872487089582E00C944609CF93DF93EC0180910D018823A3
:2018C00031F083E00E9477091816190634F081E090E09B838A8380E090E0DF91CF910895B8
:2018E000FC0120812E5F208342E450E062EA71E080E80C94110AFC0181819081913A59F4DC
:20190000813209F03CC047E050E066E071E080E00E94110A43C0913291F5803239F467E0A2
:2019200070E086E091E00E94420A06C0823209F035C0828180930D018091060190910701C5
:20194000A0910801B0910901803B9440A105B105C1F480910D0180FD14C087E797E79093E3
:201960000108809300082BE088E190E00FB6F894A895809360000FBE209360000FC080E04F
:20198000089588E10FB6F89480936000109260000FBEA895109201081092000881E008951E
:2019A000109256021092550288EE93E0A0E0B0E08093570290935802A0935902B0935A0225
:2019C0008AE491E090935402809353028FEF9FEF9093600280935F020895FF920F931F93C0
:2019E000CF93DF93EC01F62EE881F9810480F581E02D09958C01E881F9810680F781E02DFF
:201A00006F2DCE010995C8019927DF91CF911F910F91FF900895FC0120812F5F208349E1EF
:201A200050E064E672E080E80C94110A45E650E06DE772E080E80C94110AEF92FF920F93DF
:201A40001F93CF93DF931F92CDB7DEB789838B017A0141E050E0BE016F5F7F4F84E00E9471
:201A60007709A701B80184E40E9477090F90DF91CF911F910F91FF90EF900895FC01918182
:201A80008081813A31F481E0913091F0933089F411C0813271F49B3021F4828180930F0193
:201AA00005C09A3031F4828180930E0181E00895089580E0089548E050E082E00C941D0D31
:201AC000CF93DF93DC01683818F0E8E7E60F25C0E62FF0E067FF11C0E058F10981E090E0E5
:201AE00001C0880FEA95EAF714969C911497982B14969C931497E0E010C0EC51FE4FE491D6
:201B0000EE2309F440C0E7FF08C014968C911497826014968C931497EF7716968C91169765
:201B20008E1741F117968C9117978E1719F118968C9118978E17F1F019968C9119978E1786
:201B4000C9F01A968C911A978E17A1F01B968C911B978E1779F080E090E0ED01C80FD91FFD
:201B60002E81211102C0EE8305C0019686309105A1F709C0BD016C5F7F4FCD010E945B0D19
:201B800081E090E008C081E090E013969C938E93129780E090E0DF91CF910895683818F054
:201BA000E8E7E60F25C0E62FF0E067FF12C0E058F10921E030E001C0220FEA95EAF7209515
:201BC000DC0114963C911497322314963C93E0E00FC0EC51FE4FE491EE2329F1E7FF08C0D1
:201BE000DC0114962C9114972D7F14962C93EF7720E030E0EE2351F0DC01A20FB31F16960D
:201C00004C9116974E1302C016961C922F5F3F4F2630310579F7BC016C5F7F4F0E945B0D45
:201C200081E090E0089580E090E00895FC011682178210861186128613861482BC016C5F1F
:201C40007F4F0C945B0D1092AF021092A6021092A5028AE591E09093A4028093A3020895CA
:201C6000EE0FFF1F0590F491E02D0994CF93DF938230910510F482E090E0E091B202F091ED
:201C8000B30220E030E0A0E0B0E0309739F14081518148175907B8F04817590771F482815D
:201CA0009381109729F013969C938E9312972CC09093B3028093B20227C02115310531F0AF
:201CC0004217530718F0A901DB0101C0EF019A01BD01DF010280F381E02DD7CF21153105C4
:201CE000F9F0281B390B2430310580F48A819B816115710521F0FB019383828304C0909354
:201D0000B3028093B202FE01329644C0FE01E20FF31F8193919322503109398328833AC035
:201D20002091B0023091B102232B41F420910201309103013093B1022093B0022091000143
:201D4000309101012115310541F42DB73EB74091040150910501241B350BE091B002F09166
:201D6000B102E217F307A0F42E1B3F0B2817390778F0AC014E5F5F4F2417350748F04E0F9B
:201D80005F1F5093B1024093B0028193919302C0E0E0F0E0CF01DF91CF910895CF93DF930F
:201DA000009709F487C0FC01329713821282C091B202D091B302209781F420813181280F88
:201DC000391F8091B0029091B1028217930779F5F093B102E093B0026DC0DE0120E030E0FC
:201DE000AE17BF0750F412964D915C9113979D014115510509F1DA01F3CFB383A2834081FA
:201E00005181840F951F8A179B0771F48D919C911197840F951F02969183808312968D9152
:201E20009C911397938382832115310529F4F093B302E093B2023EC0D9011396FC93EE9337
:201E400012974D915D91A40FB51FEA17FB0779F480819181840F951F0296D90111969C9374
:201E60008E938281938113969C938E931297E0E0F0E08A819B81009719F0FE01EC01F9CF7D
:201E8000CE01029628813981820F931F2091B0023091B1022817390769F4309729F41092FC
:201EA000B3021092B20202C013821282D093B102C093B002DF91CF910895A0E0B0E0E3E6CB
:201EC000FFE00C943B10EC01CB01209719F40E94360EB8C0FE01E60FF71F9E012250310908
:201EE000E217F30708F4ACC0D9010D911C91119706171707B8F00530110508F49FC0A80188
:201F0000445051094617570708F498C002501109061B170B019311936D937C93CF010E945C
:201F2000CE0E8CC05B01A01AB10A4E01800E911EA091B202B091B302612C712C60E070E087
:201F4000109709F449C0A815B905C9F5ED90FC901197670142E0C40ED11CCA14DB0478F17B
:201F600047018A189B08640142E0C40ED11C1296BC9012971396AC91B5E0CB16D10440F090
:201F8000B282A38391828082D9018D939C9309C00E5F1F4F0E0D1F1DF90111830083EB2D85
:201FA000FA2F6115710531F0DB011396FC93EE93129744C0F093B302E093B2023FC06D914D
:201FC0007C9111976616770608F43B01BD0112960D90BC91A02DB4CF6091B0027091B10224
:201FE00068157905E9F468167906D0F440910001509101014115510541F44DB75EB76091A8
:20200000040170910501461B570BE417F507C0F4F093B102E093B002F901918380830EC00C
:202020000E94360E7C01009759F0A801BE010E942710CE010E94CE0EC70104C0CE0102C0B2
:2020400080E090E0CDB7DEB7EEE00C945710FB01DC0102C001900D9241505040D8F708956A
:20206000FB01DC0101900D920020E1F708952F923F924F925F926F927F928F929F92AF92B9
:20208000BF92CF92DF92EF92FF920F931F93CF93DF93CDB7DEB7CA1BDB0B0FB6F894DEBF11
:2020A0000FBECDBF09942A88398848885F846E847D848C849B84AA84B984C884DF80EE805E
:2020C000FD800C811B81AA81B981CE0FD11D0FB6F894DEBF0FBECDBFED010895F894FFCFFE
:2020E0000000B402800000E100000000000001014A2761696D65006C6573206C69636F6E41
:202100006573203C3300000000003F021202E701EF0102021102000000006A04A8070000F7
:2021200000001706A80700000000130C5A0C3D0C4D0C290C3A0C00000000ED0CA807600D1C
:20214000CE0D160EFFFFFFFFFFFFFFFFFFFFFFFFFFFFFFFFFFFFFFFFFFFFFFFFFFFFFFFF9C
:20216000FFFFFFFFFFFFFFFFFFFFFFFFFFFFFFFFFFFFFFFFFFFFFFFFFFFFFFFFFFFFFFFF7F
:20218000FFFFFFFFFFFFFFFFFFFFFFFFFFFFFFFFFFFFFFFFFFFFFFFFFFFFFFFFFFFFFFFF5F
:2021A000FFFFFFFFFFFFFFFFFFFFFFFFFFFFFFFFFFFFFFFFFFFFFFFFFFFFFFFFFFFFFFFF3F
:2021C000FFFFFFFFFFFFFFFFFFFFFFFFFFFFFFFFFFFFFFFFFFFFFFFFFFFFFFFFFFFFFFFF1F
:2021E000FFFFFFFFFFFFFFFFFFFFFFFFFFFFFFFFFFFFFFFFFFFFFFFFFFFFFFFFFFFFFFFFFF
:202200007C01009759F0A801BE010E941511CE010E94BC0FC70104C0CE0102C080E090E008
:20222000CDB7DEB7EEE00C944511FB01DC0102C001900D9241505040D8F70895FB01DC0190
:2022400001900D920020E1F708952F923F924F925F926F927F928F929F92AF92BF92CF92FE
:20226000DF92EF92FF920F931F93CF93DF93CDB7DEB7CA1BDB0B0FB6F894DEBF0FBECDBF88
:2022800009942A88398848885F846E847D848C849B84AA84B984C884DF80EE80FD800C81CB
:2022A0001B81AA81B981CE0FD11D0FB6F894DEBF0FBECDBFED010895F894FFCF0000B8026C
:2022C000800000E100000000000001014A2761696D65006C6573206C69636F6E6573203CE1
:2022E0003300000000005B022E0203020B021E022D0200000000860496080000000080060F
:20230000960800000000010D480D2B0D3B0D170D280D00000000DB0D96084E0EBC0E040F24
:20232000FFFFFFFFFFFFFFFFFFFFFFFFFFFFFFFFFFFFFFFFFFFFFFFFFFFFFFFFFFFFFFFFBD
:20234000FFFFFFFFFFFFFFFFFFFFFFFFFFFFFFFFFFFFFFFFFFFFFFFFFFFFFFFFFFFFFFFF9D
:20236000FFFFFFFFFFFFFFFFFFFFFFFFFFFFFFFFFFFFFFFFFFFFFFFFFFFFFFFFFFFFFFFF7D
:20238000FFFFFFFFFFFFFFFFFFFFFFFFFFFFFFFFFFFFFFFFFFFFFFFFFFFFFFFFFFFFFFFF5D
:2023A000FFFFFFFFFFFFFFFFFFFFFFFFFFFFFFFFFFFFFFFFFFFFFFFFFFFFFFFFFFFFFFFF3D
:2023C000FFFFFFFFFFFFFFFFFFFFFFFFFFFFFFFFFFFFFFFFFFFFFFFFFFFFFFFFFFFFFFFF1D
:2023E000FFFFFFFFFFFFFFFFFFFFFFFFFFFFFFFFFFFFFFFFFFFFFFFFFFFFFFFFFFFFFFFFFD
:202400000C944E0C1F920F920FB60F9211242F933F934F935F936F937F938F939F93AF93C3
:20242000BF93EF93FF938091400390914103A0914203B0914303892B8A2B8B2B51F19091FE
:202440003D03E0913E03F0913F038081892780838091400390914103A0914203B09143035D
:20246000181619061A061B06C4F48091400390914103A0914203B09143030197A109B10964
:202480008093400390934103A0934203B093430304C0809104010E94ED11FF91EF91BF91A4
:2024A000AF919F918F917F916F915F914F913F912F910F900FBE0F901F901895409156038B
:2024C00050915703209154033091550342175307B4F49091E8009570E1F39091E80092FDCB
:2024E00019C08093F100809156039091570301968F739927892B19F48EEF8093E800809177
:202500005603909157030196909357038093560381E0089580E00895CF92DF92FF920F9367
:202520001F93CF93DF931F92CDB7DEB7082F162F862F880F8E5F99830E945E1283E00E9463
:202540005E12F02EC02E9981D92E8C2D8F19811778F4F60184910E945E12082F80E00E9422
:202560005E128023FFEFCF1ADF0A8111EECF01C081E00F90DF91CF911F910F91FF90DF905A
:20258000CF900895615030F02091F100FC0120830196F8CF84E68093590308952FB7FC0175
:2025A0002083F89467706093E9000895CF93DF931F92CDB7DEB7682FCE0101960E94CE127F
:2025C0008091F20099819FBF0F90DF91CF910895FF920F931F93CF93DF9300D0CDB7DEB7D2
:2025E000F62E8A0190915803992311F057FF03C08FEF9FEF2AC0682FCE0101967A830E9448
:20260000CE128091F20090E0A8017A81801791070CF4AC01EF2DF72FF40E84E6FE1631F004
:20262000809359039091F1009193F8CF4115510521F08091F200882321F089818FBFCA018F
:2026400004C08BE68093E800F8CF0F900F90DF91CF911F910F91FF900895CF93DF931F9274
:20266000CDB7DEB741E050E0BE016F5F7F4F0E94E812019719F4898190E002C08FEF9FEF0C
:202680000F90DF91CF910895CF93DF931F92CDB7DEB7682FCE0101960E94CE129091E80008
:2026A000892F807295FF04C09091F20080E4891B99819FBF0F90DF91CF9108956F927F9267
:2026C0008F929F92AF92BF92CF92DF92EF92FF920F931F93CF93DF931F92CDB7DEB7782E9A
:2026E0007B01C42EB52E80915803882369F0042F152F8AEFD82E872D8072982E9AE3A92E63
:20270000872D8074882E11C08FEF9FEF56C0872D0E944413682E81110CC0DA94A9F361E07C
:2027200070E080E090E00E94E10A0115110579F73BC0282F30E0021713070CF4602E672D99
:20274000CE0101960E94CE128091E80085FF29C0262D30E0021B130B992039F06A948FEF2F
:202760006816B1F01092F100F9CFF701862D77FE07C0815058F094919093F1003196F9CF17
:20278000815020F091919093F100FACFE20EF31E8091E80085FF0EC00115110511F481104B
:2027A00009C089818FBFC1CF84E680935A038C2D9B2D03C0A092E800F4CF0F90DF91CF91FE
:2027C0001F910F91FF90EF90DF90CF90BF90AF909F908F907F906F9008951092E900109219
:2027E00057031092560390935503809354030895CF92DF92FF920F931F93CF93DF9300D0A7
:20280000CDB7DEB7F82E8A016B0101151105B1F0F601F7FE02C0849101C0808149835A8387
:202820000E945E1201501109FFEFCF1ADF0A49815A818111EACF8FEF9FEF01C0CA010F9034
:202840000F90DF91CF911F910F91FF90DF90CF9008951F93CF93DF931F92CDB7DEB7162F2A
:202860002091E80022FFFCCF612F79830E94C2128BEF8093E800812F7981972F0F90DF91DD
:20288000CF911F910895CF93DF931F92CDB7DEB71982CE0101960E949F16CE0101960E948D
:2028A0003A17898190E00F90DF91CF9108951F920F920FB60F921124EF92FF920F931F93EE
:2028C0002F933F934F935F936F937F938F939F93AF93BF93EF93FF93CF93DF93CDB7DEB793
:2028E0006297DEBFCDBF1092E9008091E80083FFEBC068E0CE010A960E94C21282EF809354
:20290000E8009A8597FF05C08091E80080FFFCCF03C08EEF8093E800892F807609F0B9C0B7
:202920008B85811105C01092F1001092F100C5C0282F2D7F213009F4C0C0853049F48091B1
:20294000E80080FFFCCF8C8580688093E300B5C0863009F076C02D85E888F988223071F5A1
:2029600080E090E02A8B0E94ED130E94431499E08E010F5F1F4FF801392F11923A95E9F7A0
:2029800099832A892A8391E09E8390E898879AEF99872091560330915703275F3F4F3C83F1
:2029A0002B838D83C7010E94ED1349E050E0B80180E00E94F8130E9443147FC0C7012A8B1B
:2029C0000E94ED132A89223241F482E290E00E944517892B09F071C074C0213069F4888976
:2029E0009989089711F42093530380915303811118C066E971E01AC0233009F062C08C853E
:202A0000882391F0823021F46FE083EB91E006C0813009F056C06AE088EA91E00E948C12A2
:202A20004AC064E871E002C063EC71E06115710509F447C0FB01449150E080E80E94F81387
:202A40003CC0873009F43DC0883021F481E08093F10033C0893089F5937099F5E0E8F1E043
:202A600081E021E096E38093E9002093EB0034913093EC009093ED008F5F3196853099F763
:202A80008EE78093EA001092EA008C858093580314C0888999890E94ED138E85811105C0A6
:202AA000CE010A960E94AA1606C0823051F4CE010A960E946D17882321F08EEF8093E800BF
:202AC00003C081E28093EB0062960FB6F894DEBF0FBECDBFDF91CF91FF91EF91BF91AF9123
:202AE0009F918F917F916F915F914F913F912F911F910F91FF90EF900F900FBE0F901F90FE
:202B000018958093E9008091F200882319F08AE38093E80008951F920F920FB60F92112463
:202B20002F933F934F935F936F937F938F939F93AF93BF93EF93FF938091E1001092E100A8
:202B400083FF0FC01092E90091E09093EB001092EC0092E39093ED001092580398E090936F
:202B6000F00082FF15C083E00E94811580915A03882329F080915A03815080935A03809182
:202B80005903882329F080915903815080935903FF91EF91BF91AF919F918F917F916F9168
:202BA0005F914F913F912F910F900FBE0F901F901895109258038091D70081608093D7009E
:202BC00080EA8093D80088E189BD89B5826089BD09B400FEFDCF61E070E080E090E00E9401
:202BE000E10A80E98093D8008CE08093E2001092E00008954F925F926F927F92AF92BF92A0
:202C0000CF92DF92EF92FF920F931F93CF93DF93CDB7DEB729013A01621B730B840B950B00
:202C200029893A894B895C892A193B094C095D09298B3A8B4B8B5C8B9B01AC0169897A89B0
:202C40008B899C890E945F18E418F50806091709A80197010E949D182A0D3B1D4C1D5D1DF0
:202C6000CA01B901DF91CF911F910F91FF90EF90DF90CF90BF90AF907F906F905F904F9069
:202C800008950895CF93DF931F92CDB7DEB76983DC01ED91FC910280F381E02D41E050E034
:202CA000BE016F5F7F4F09950F90DF91CF910895CF93DF93EC018C859D8597FF05C082E05E
:202CC0000E942D139D878C878C859D85DF91CF91089583E00C948115FC018485958597FDEE
:202CE00006C082E00E94D61290E00196089582E00E94D61290E00895FC018485958597FDD1
:202D000005C02FEF3FEF35872487089582E00C942D13CF93DF93EC0180910C01882331F0B1
:202D200083E00E945E131816190634F081E090E09B838A8380E090E0DF91CF910895FC0176
:202D400020812E5F208342E450E067EC71E080E80C94F813FC0181819081913A59F48132BA
:202D600009F03CC047E050E065E071E080E00E94F81343C0913291F5803239F467E070E0A2
:202D800085E091E00E94291406C0823209F035C0828180930C018091050190910601A09183
:202DA0000701B0910801803B9440A105B105C1F480910C0180FD14C087E797E7909301089A
:202DC000809300082BE088E190E00FB6F894A895809360000FBE209360000FC080E0089547
:202DE00088E10FB6F89480936000109260000FBEA895109201081092000881E008951092A5
:202E00005E0310925D0388EE93E0A0E0B0E080935F0390936003A0936103B093620381E6B5
:202E200091E090935C0380935B038FEF9FEF90936803809367030895FF920F931F93CF9333
:202E4000DF93EC01F62EE881F9810480F581E02D09958C01E881F9810680F781E02D6F2D50
:202E6000CE010995C8019927DF91CF911F910F91FF900895FC0120812F5F208349E150E0E7
:202E800069E872E080E80C94F81345E650E062EA72E080E80C94F813EF92FF920F931F930A
:202EA000CF93DF931F92CDB7DEB789838B017A0141E050E0BE016F5F7F4F84E00E945E133E
:202EC000A701B80184E40E945E130F90DF91CF911F910F91FF90EF900895FC01918180819C
:202EE000813A31F481E0913091F0933089F411C0813271F49B3021F4828180930E0105C05C
:202F00009A3031F4828180930D0181E00895089580E0089548E050E082E00C944C17CF93E7
:202F2000DF93DC01683818F0E8E7E60F25C0E62FF0E067FF11C0E058F10981E090E001C011
:202F4000880FEA95EAF714969C911497982B14969C931497E0E010C0E75FFD4FE491EE2309
:202F600009F440C0E7FF08C014968C911497826014968C931497EF7716968C9116978E175D
:202F800041F117968C9117978E1719F118968C9118978E17F1F019968C9119978E17C9F0FE
:202FA0001A968C911A978E17A1F01B968C911B978E1779F080E090E0ED01C80FD91F2E8193
:202FC000211102C0EE8305C0019686309105A1F709C0BD016C5F7F4FCD010E948A1781E0BA
:202FE00090E008C081E090E013969C938E93129780E090E0DF91CF910895683818F0E8E772
:20300000E60F25C0E62FF0E067FF12C0E058F10921E030E001C0220FEA95EAF72095DC0192
:2030200014963C911497322314963C93E0E00FC0E75FFD4FE491EE2329F1E7FF08C0DC0154
:2030400014962C9114972D7F14962C93EF7720E030E0EE2351F0DC01A20FB31F16964C9198
:2030600016974E1302C016961C922F5F3F4F2630310579F7BC016C5F7F4F0E948A1781E014
:2030800090E0089580E090E00895FC011682178210861186128613861482BC016C5F7F4F3E
:2030A0000C948A171092B7031092AE031092AD0381E791E09093AC038093AB030895DB01E9
:2030C0008F939F930E94C218BF91AF91A29F800D911DA39F900DB29F900D11240895991BC1
:2030E00079E004C0991F961708F0961B881F7A95C9F780950895A1E21A2EAA1BBB1BFD0119
:203100000DC0AA1FBB1FEE1FFF1FA217B307E407F50720F0A21BB30BE40BF50B661F771F25
:20312000881F991F1A9469F760957095809590959B01AC01BD01CF010895052E97FB1EF4A3
:2031400000940E94B41857FD07D00E947B1807FC03D04EF40C94B418509540953095219554
:203160003F4F4F4F5F4F089590958095709561957F4F8F4F9F4F0895EE0FFF1F0590F49137
:20318000E02D09940E94CD18A59F900DB49F900DA49F800D911D11240895A29FB001B39F99
:2031A000C001A39F700D811D1124911DB29F700D811D1124911D0895F999FECF92BD81BD36
:2031C000F89A992780B50895F894FFCF01000000FF00E10000000000000101616263006EFA
:2031E0006F2076616C69642064696400546573742023002D0028002900000000006D05AB61
:203200000E00000000CE05A10576057E059105A00500000000F907AB0E000000002B0DAB52
:203220000EAD0CC60CB80C090D00000000421689166C167C1658166916000000001C17AB45
:203240000E8F17FD17451800FFFFFFFFFFFFFFFFFFFFFFFFFFFFFFFFFFFFFFFFFFFFFFFF61
:20326000FFFFFFFFFFFFFFFFFFFFFFFFFFFFFFFFFFFFFFFFFFFFFFFFFFFFFFFFFFFFFFFF6E
:20328000FFFFFFFFFFFFFFFFFFFFFFFFFFFFFFFFFFFFFFFFFFFFFFFFFFFFFFFFFFFFFFFF4E
:2032A000FFFFFFFFFFFFFFFFFFFFFFFFFFFFFFFFFFFFFFFFFFFFFFFFFFFFFFFFFFFFFFFF2E
:2032C000FFFFFFFFFFFFFFFFFFFFFFFFFFFFFFFFFFFFFFFFFFFFFFFFFFFFFFFFFFFFFFFF0E
:20F0000059C0000059C2000057C2000055C2000053C2000051C200004FC200004DC2000044
:20F020004BC2000049C200006BC5000045C2000043C2000041C200003FC200003DC2000079
:20F040003BC20000C8C2000026C3000035C2000033C2000031C200002FC200002DC2000081
:20F060002BC2000029C2000027C2000025C2000023C2000021C200001FC200001DC2000060
:20F080001BC2000019C2000017C2000015C2000013C2000011C200004C55464143444382EC
:20F0A000961E1201000202000040E0D31B6000020102030184B78093FF018091FE10909180
:20F0C000FF10909301028093000211241FBECFEFD0E1DEBFCDBF11E0A0E0B1E0E6EEFEEF79
:20F0E00002C005900D92AC3AB107D9F721E0ACEAB1E001C01D92AD3FB207E1F701D0F1C60F
:20F1000014BE88E1809360001092600080E880936100109261006D98759A8FE99FE00197BD
:20F12000F1F700C000001092FF101092FE10E0E0F0E0259134918091FF012F3F3F4FA9F015
:20F140009FEF9093AF01982F957061F490910002973759F081FF07C0659B07C01092FF1034
:20F160001092FE10B1D183FDFDCF80688093FF0181E085BF82E085BF219AF5D2739887E8CF
:20F1800091E007D361E081E010D383E991E001D361E081E00AD312B888E08093B60195D40A
:20F1A00086E080936F008BE0809381008AEF90E09093890080938800659903C080E69AEE89
:20F1C00002C080E49FE179D1F4E0EF2EA9E05A2EA12CB12C88248394912C8091FD019091E3
:20F1E000FE01892B09F45BC1E092E9008091E80082FF53C1A4D1C82F853421F484EF91E03C
:20F200005CD107C088E88C0F823010F0C43521F496D18DE0BCD12CC1C035D9F3CC34C9F364
:20F22000C43711F481E95FC0C13611F489E5F2CFC13489F484D18093050281D180930402CE
:20F240008091040290910502880F991F9093030280930202DECFC03711F483E5DBCFC3352E
:20F2600041F48FE991E095D212B867E088E990EF0BC0C63521F482E38AD180E3CBCFC33776
:20F2800029F463E08FE990EF94D1F2C0C53689F4E0E0F0EFFA95F89473E0C72EC0925700DD
:20F2A000E895789407B600FCFDCF309799F71AD1B0CFC23711F4F4010DC0C63411F4F501CA
:20F2C00009C0CE3419F4E3E0F0E004C0C13531F4E2E0F0E05092570084919CCFC23631F47C
:20F2E00089E555D181E053D180E094CFC23419F0C73609F0BAC023D1782E21D1682E1FD1B1
:20F3000044244394863429F0412C853401F18FE381CFF1E06F167F06B0F520910402309109
:20F320000502A90141505109C301019696958795840F951F8217930730F1282739272227FC
:20F34000232B09F521E081159847D0F018C081E0681688E07806B8F4209104023091050263
:20F36000211598E0390778F4C9010197860D971D8217930740F021E08115984008F020E0C0
:20F38000F22EF19401C0F12C009102021091030233243394C23409F0312C242C23202F2063
:20F3A000A9F0F80183E0B0D011C0332051F1411013C0FF2049F0F894C2D0682F809104022A
:20F3C000909105027CD57894AAD03E01E30121976114710451F735C0B2D0C82EB0D0D82E2E
:20F3E000A601FF2001F1F894E0910202F0910302DD24D3940A01D0925700E89511247894E4
:20F4000012C0442099F0FF2049F0E0910202F091030245915491842FC52F02C08FEFCFEF7A
:20F42000B6D08C2FB4D0E3012297CECFFF2031F080910402909105023AD501C08FEFA7D089
:20F44000C3CF222041F085E05FD04CD0012B19F43FEF3093AF01F999FECF332011F08DE0FD
:20F4600096D080E49FE129D003C0CB3109F04FCF83E08093E900C091E80079D081110DC033
:20F48000C5FF08C0E092E9008091E8008B778093E80003C06CD08823A9F3F0D49ECEEFE941
:20F4A000FFE03197F1F700C000008091E00081608093E0004ED156CEA3CDF8949093FE01D7
:20F4C0008093FD0178940895F89410926F0010928100219881E085BF15BE8091FF01282E1A
:20F4E0000C940000F89481E180935700E895789408958091AE01811106C081E08093AE01B3
:20F5000082E080936F000895F894F89480935700E8957894789407B600FCFDCF0895809120
:20F5200004029091050201969093050280930402880F991F9093030280930202089584E034
:20F540008093E9008091E80085FD0DC08091E8008B778093E8008091E80082FDF3CF8EB3F6
:20F560008111F9CF03C0C5DF8091F10008958091E8008E778093E8008091E80080FD05C0F7
:20F580008EB38111F9CF8FEF089580E00895CF93C82F83E08093E9008091E80085FF04C0BF
:20F5A000A8DFC093F10003C0E2DF8823C9F3CF9108951F93CF93DF93C82FD92F162F180FA7
:20F5C0001C1729F0FE018491E2DF2196F9CFDF91CF911F9108951F920F920FB60F92112481
:20F5E0008F939F938091AF01882379F08091FD019091FE01892B49F08091FD019091FE0197
:20F6000001979093FE018093FD018091AD018F5F8093AD018091AE01882371F08091AD0126
:20F62000883288F18091AD018C3358F11092AE0186E080936F0028C08091AD018430D8F074
:20F640001092AD01909100018091AC01890F8093AC01889FC0011124892F992790938B00DF
:20F6600080938A008091AC01811105C08091000181958093000180918A0090918B00892BA1
:20F6800011F4299801C0299A9F918F910F900FBE0F901F9018951F920F920FB60F9211247C
:20F6A00029980F900FBE0F901F90189542E061EC82E09AD142E161E883E096D142E160E845
:20F6C00084E092C18091F5018132D1F48091F601803271F48091E800877F8093E80067E094
:20F6E00070E080EB91E044D18091E8008E771BC08232D9F48091E800877F8093E80088C12C
:20F70000813A99F48091F601813279F48091E800877F8093E80067E070E080EB91E0C9D073
:20F720008091E8008B778093E8000895882311F0709801C0709A62B9729A85E08A95F1F724
:20F740000000729887EC90E00197F1F700C00000089561E081E0EADF8FE89AE10197F1F702
:20F7600000C0000008958FEF81B98DB18F608DB971988FE59AEE0197F1F700C0000068E371
:20F7800081E0D4DF6CE081E0D1DF66E081E0CEDFE0CFCF93DF93EC016991662319F080E048
:20F7A000C5DFFACFDF91CF910895882311F080E401C080E0680F606881E0B8CFFC01208179
:20F7C000211109C0FB012491DC01215020F084918D933196FACF0895CF93DF93EA0191303D
:20F7E00051F462EA70EF87EB91E0E8DF8091B70127EB31E058C0923009F442C0933009F0EE
:20F800004FC0882309F440C0813009F441C0823009F442C0833009F043C08093CA018AE2D8
:20F820008093C901A9ECB1E020E030E051E2F9013E9650935700E4914E2F42954F70EF7093
:20F84000842F90E04A3010F4C09601C0C79613969C938E9312978E2F90E0EA3010F4C09650
:20F8600001C0C79615969C938E9314972F5F3F4F14962A303105D9F68AE229EC31E013C03A
:20F880008EE329E431E00FC084E025E431E00BC086E12DE231E007C08AE221E031E003C032
:20F8A00080E020E030E03983288390E0DF91CF9108952091FB013091FC012617370748F076
:20F8C0006115710539F42091E8002E772093E80001C0B90140E06115710591F12EB3222307
:20F8E00009F440C0253009F43FC02091E80023FD3DC02091E80022FD2FC02091E80020FFA5
:20F90000EACF2091F2003091F300FC01CF016115710559F02034310540F481918093F10001
:20F92000615071092F5F3F4FF1CF41E02034310509F040E02091E8002E772093E800CBCF89
:20F940004111CCCF09C08EB3882361F0853061F08091E80083FD0AC08091E80082FFF3CF2F
:20F9600080E0089582E0089583E0089581E008956115710529F42091E8002B772093E800AE
:20F98000FC016115710521F18EB3882349F1853049F18091E80083FD21C08091E80082FF83
:20F9A000F0CF8091F2009091F300892B31F08091F100819361507109A1F78091E8008B77C8
:20F9C0008093E800DECF8EB3882351F0853051F08091E80080FFF7CF80E0089581E0089523
:20F9E00082E0089583E008958F708093E900EBEEF0E0808181608083EDEEF0E0108260934F
:20FA0000EC0040838091EE00881F8827881F08958091F50187FF0FC08091E80082FD04C006
:20FA20008EB38111F9CF10C08091E8008B770AC08EB3882349F08091E80080FFF9CF809120
:20FA4000E8008E778093E80008950F931F93CF93DF9349D050D0C8EDD0E088818F77888341
:20FA600088818068888388818F7D8883E7EDF0E080818068808319BC1EBA1092F30100EEA9
:20FA800010E0F80180818B7F808388818160888342E360E080E0A8DFE1EEF0E080818E7F81
:20FAA0008083E2EEF0E0808181608083808188608083F80180818E7F8083888180618883D3
:20FAC000DF91CF911F910F910895E8EDF0E080818F7E8083E7EDF0E080818160808381E0C9
:20FAE0008093F401B2CFE8EDF0E080818C7F80831092E20008951092DA001092E10008950C
:20FB00001F920F920FB60F9211242F933F934F935F936F937F938F939F93AF93BF93EF9312
:20FB2000FF938091DA0080FF1BC08091D80080FF17C08091DA008E7F8093DA008091D900E0
:20FB400080FF0BC088E189BD8AE189BD09B400FEFDCF81E08EBB91D103C019BC1EBA8DD19A
:20FB60008091E10080FF17C08091E20080FF13C08091E2008E7F8093E2008091E20080612F
:20FB80008093E2008091D80080628093D80019BC85E08EBB72D18091E10084FF2EC0809180
:20FBA000E20084FF2AC088E189BD8AE189BD09B400FEFDCF8091D8008F7D8093D80080911E
:20FBC000E1008F7E8093E1008091E2008F7E8093E2008091E20081608093E2008091F30180
:20FBE000882311F084E007C08091E30087FD02C081E001C083E08EBB40D18091E10083FFA1
:20FC000021C08091E20083FF1DC08091E100877F8093E10082E08EBB1092F3018091E10092
:20FC20008E7F8093E1008091E2008E7F8093E2008091E20080618093E20042E360E080E040
:20FC4000D3DE1BD1FF91EF91BF91AF919F918F917F916F915F914F913F912F910F900FBE3B
:20FC60000F901F9018951F93CF93DF9300D0CDB7DEB7E5EFF1E088E08E0F9091F10091933A
:20FC80008E13FBCF1FDD8091E80083FFE2C08091F5019091F601953009F46FC030F49130EB
:20FCA00071F168F0933059F1D4C0983009F4A7C0993009F4B3C0963009F0CBC07FC0803843
:20FCC00099F0823809F0C5C08091F9018F70873008F0BFC08093E9008091EB0085FB882704
:20FCE00080F91092E90001C080E09091E800977F9093E8008093F1001092F1008BC0282F7C
:20FD00002D7F09F0A6C0823009F0A3C08091F70181112AC08091F9018F702FEF280F263090
:20FD200008F097C08093E9002091EB0020FF1CC0933021F48091EB00806214C09091EB004B
:20FD400090619093EB0021E030E0A90102C0440F551F8A95E2F74093EA001092EA0080910E
:20FD6000EB0088608093EB001092E9008091E800877F8093E8004CDE6CC081116AC010917A
:20FD8000F7011F778091E3008078812B8093E3008091E800877F8093E8003ADE8091E8003C
:20FDA00080FFFCCF8091E30080688093E300111102C082E001C083E08EBB4BC080588230DF
:20FDC00008F047C06091F9017091FA01AE014F5F5F4F8091F7019091F801FEDCBC01892BC4
:20FDE000C1F19091E800977F9093E80089819A8160DD8091E8008B778093E8002AC080382D
:20FE000041F58091E800877F8093E8008091F3018093F1008091E8008E77ABCF811119C0C6
:20FE20009091F7019230A8F48091E800877F8093E8009093F301ECDD8091F301811106C014
:20FE40008091E30087FD02C081E001C084E08EBB2DDC8091E80083FF0AC08091E800877F4C
:20FE60008093E8008091EB0080628093EB000F900F90DF91CF911F9108950895CF938EB310
:20FE8000882399F0C091E900CF709091EC00892F817090FD80E8C82B1092E9008091E80093
:20FEA00083FDE1DECF70C093E900CF910895F999FECF92BD81BDF89A992780B50895262F26
:20FEC000F999FECF92BD81BDF89A019700B4021639F01FBA20BD0FB6F894FA9AF99A0FBE1C
:20FEE0000895F894FFCF012A034400770065006E006700750069006E006F00200042006F5C
:20FF0000006F0074006C006F006100640065007200000016034400770065006E0067006F0A
:20FF20000020004C004C00430000000403090409023E0002010080320904000001020200A2
:20FF4000000524001001042402020524060001070582030800FF09040100020A0000000752
:20FF600005040210000507058302100005426F6F746C6F616465723A004177616974696EA9
:20FF8000672050430050726F6772616D6D696E670000FFFFFFFFFFFFFFFFFFFFFFFFFFFFD2
:20FFA000FFFFFFFFFFFFFFFFFFFFFFFFFFFFFFFFFFFFFFFFFFFFFFFFFFFFFFFFFFFFFFFF61
:20FFC000FFFFFFFFFFFFFFFFFFFFFFFFFFFFFFFFFFFFFFFFFFFFFFFFFFFFFFFFFFFFFFFF41
:20FFE000FFFFFFFFFFFFFFFFFFFFFFFFFFFFFFFFFFFFFFFFFFFFFFFFA2F0000000DFFBDCD1
:020000040001F9
:00000001FF
