:10F0000059C000005EC200005CC200005AC200008D
:10F0100058C2000056C2000054C2000052C2000094
:10F0200050C200004EC2000073C500004AC200007A
:10F0300048C2000046C2000044C2000042C20000B4
:10F0400040C20000D5C2000033C300003AC2000035
:10F0500038C2000036C2000034C2000032C20000D4
:10F0600030C200002EC200002CC200002AC20000E4
:10F0700028C2000026C2000024C2000022C20000F4
:10F0800020C200001EC200001CC200001AC2000004
:10F0900018C2000016C200004C554641434443824A
:10F0A000961E1201000202000040E0D31B60000225
:10F0B0000102030184B78093FF018091FE109091BB
:10F0C000FF10909301028093000211241FBECFEF26
:10F0D000D0E1DEBFCDBF11E0A0E0B1E0E6EFFEEF92
:10F0E00002C005900D92AC3AB107D9F721E0ACEA25
:10F0F000B1E001C01D92AD3FB207E1F701D0F9C602
:10F1000014BE88E1809360001092600080E88093D4
:10F110006100109261006D98759A8FE99FE00197E8
:10F12000F1F700C000001092FF101092FE10E0E016
:10F13000F0E0859194912091FF010196A9F08FEF65
:10F140008093AF01822F857061F480910002873730
:10F1500059F021FF07C0659B07C01092FF10109265
:10F16000FE10B7D123FDFDCF20682093FF0181E081
:10F1700085BF82E085BF219A8091FF01817000D315
:10F18000739887E891E014D361E081E01DD383E9AF
:10F1900091E00ED361E081E017D312B888E080934C
:10F1A000B6019BD486E080936F008BE08093810052
:10F1B0008AEF90E09093890080938800659903C05E
:10F1C00080E69AEE02C080E49FE17CD1C4E0EC2EA0
:10F1D000D9E05D2EA12CB12C88248394912C8091B0
:10F1E000FD019091FE01892B09F45EC1E092E900D6
:10F1F0008091E80082FF56C1A7D1C82F853421F441
:10F2000084EF91E05FD107C088E88C0F823010F066
:10F21000C43521F499D18DE0C0D12FC1C035D9F3C7
:10F22000CC34C9F3C43711F481E95FC0C13611F49D
:10F2300089E5F2CFC13489F487D18093050284D166
:10F24000809304028091040290910502880F991F17
:10F250009093030280930202DECFC03711F483E55E
:10F26000DBCFC33541F48FE991E0A2D212B867E059
:10F2700088E990EF0BC0C63521F482E38ED180E39C
:10F28000CBCFC33729F463E08FE990EF98D1F5C075
:10F29000C53689F4E0E0F0EFFA95F894A3E0CA2EC1
:10F2A000C0925700E895789407B600FCFDCF3097E0
:10F2B00099F71DD1B0CFC23711F4F4010DC0C63497
:10F2C00011F4F50109C0CE3419F4E3E0F0E004C014
:10F2D000C13531F4E2E0F0E05092570084919CCFC8
:10F2E000C23631F489E559D181E057D180E094CF1D
:10F2F000C23419F0C73609F0BDC026D1782E24D10A
:10F30000682E22D122242394863429F0212C85349E
:10F3100019F18FE381CFF1E06F167F06C8F54091B8
:10F320000402509105029A0121503109B3016F5F27
:10F330007F4F76956795260F371F2417350740F1C5
:10F34000422753274427452B19F581E021153847DB
:10F3500008F080E0F82E1AC0E1E06E16E8E07E06C4
:10F36000B8F420910402309105022115F8E03F071E
:10F3700078F4C9010197860D971D8217930740F015
:10F3800021E08115984008F020E0F22EF19401C0B0
:10F39000F12C009102021091030244244394C234E0
:10F3A00009F0412C322C34203F20A9F0F80183E0F1
:10F3B000B0D011C0442051F1211013C0FF2049F0FA
:10F3C000F894C2D0682F80910402909105027FD5F5
:10F3D0007894AAD03E01E30121976114710451F79A
:10F3E00035C0B2D0C82EB0D0D82EA601FF2001F172
:10F3F000F894E0910202F0910302DD24D3940A0113
:10F40000D0925700E8951124789412C0222099F0E8
:10F41000FF2049F0E0910202F091030245915491DE
:10F42000842FC52F02C08FEFCFEFB7D08C2FB5D070
:10F43000E3012297CECFFF2031F08091040290911A
:10F4400005023DD501C08FEFA8D0C3CF332041F0D6
:10F4500085E05FD04CD0012B19F43FEF3093AF0122
:10F46000F999FECF442011F08DE097D080E49FE120
:10F4700029D003C0CB3109F04CCF83E08093E90061
:10F48000C091E8007AD081110DC0C5FF08C0E0929C
:10F49000E9008091E8008B778093E80003C06DD08D
:10F4A0008823A9F3F1D49BCEEFE9FFE03197F1F780
:10F4B00000C000008091E00081608093E00056D1A0
:10F4C00050CE9ECDF8949093FE018093FD017894E8
:10F4D0000895F89410926F0010928100219881E0B5
:10F4E00085BF15BE8091FF01282E0C940000F89472
:10F4F00081E180935700E895789408958091AE015A
:10F50000811106C081E08093AE0182E080936F009C
:10F510000895F894F89480935700E8957894789437
:10F5200007B600FCFDCF089580910402909105027A
:10F5300001969093050280930402880F991F90937F
:10F54000030280930202089584E08093E900809191
:10F55000E80085FD0EC08091E8008B778093E8007D
:10F560008091E80082FDF3CF8EB38111F9CF80E066
:10F570000895C4DF8091F10008958091E8008E77AE
:10F580008093E8008091E80080FD05C08EB3811172
:10F59000F9CF8FEF089580E00895CF93C82F83E0CF
:10F5A0008093E9008091E80085FF04C0A7DFC09345
:10F5B000F10003C0E2DF8823C9F3CF9108950F93D0
:10F5C0001F93CF93DF931F92CDB7DEB78C01680FE7
:10F5D000601741F0F80184916983DFDF0F5F1F4FEF
:10F5E0006981F6CF0F90DF91CF911F910F91089510
:10F5F0001F920F920FB60F9211248F939F938091B9
:10F60000AF01882379F08091FD019091FE01892B53
:10F6100049F08091FD019091FE0101979093FE01C8
:10F620008093FD018091AD018F5F8093AD0180914A
:10F63000AE01882371F08091AD01883288F180910C
:10F64000AD018C3358F11092AE0186E080936F00CB
:10F6500028C08091AD018430D8F01092AD01809126
:10F6600000019091AC01890F8093AC01889FC0018B
:10F670001124892F992790938B0080938A00809181
:10F68000AC01811105C0809100018195809300013A
:10F6900080918A0090918B00892B11F4299801C0E8
:10F6A000299A9F918F910F900FBE0F901F901895E0
:10F6B0001F920F920FB60F92112429980F900FBE30
:10F6C0000F901F90189542E061EC82E093D142E1E7
:10F6D00061E883E08FD142E160E884E08BC18091F2
:10F6E000F5018132D1F48091F601803271F480917C
:10F6F000E800877F8093E80067E070E080EB91E0AE
:10F700003DD18091E8008E771BC08232D9F4809180
:10F71000E800877F8093E80081C1813A99F4809165
:10F72000F601813279F48091E800877F8093E800C8
:10F7300067E070E080EB91E0C5D08091E8008B77C6
:10F740008093E8000895882311F0709801C0709AA2
:10F7500062B9729A85E08A95F1F70000729887EC99
:10F7600090E00197F1F700C00000089561E081E0AA
:10F77000EADF8FE89AE10197F1F700C000000895F1
:10F780009FEF91B99DB19F609DB97198882331F029
:10F790008FE59AEE0197F1F700C0000068E381E081
:10F7A000D2DF6CE081E0CFDF66E081E0CCDFDECF4E
:10F7B000CF93DF93EC016991662319F080E0C3DFFA
:10F7C000FACFDF91CF910895811180E4680F6068CE
:10F7D00081E0B9CFFC01208121110AC0FB012491F5
:10F7E000DC01FB01215020F084918D933196FACFFA
:10F7F0000895CF93DF93EA01913051F462EA70EFFC
:10F8000087EB91E0E7DF8091B70127EB31E054C04F
:10F81000923009F43EC0933009F04BC0882309F4BC
:10F820003CC0813009F43DC0823009F43EC08330D1
:10F8300009F03FC08093CA018AE28093C901ABEC12
:10F84000B1E0EEE0F0E041E2409357002491322F26
:10F8500032953F702F70832F90E03A3010F4C096AD
:10F8600001C0C79611969C938E93822F90E02A3008
:10F8700010F4C09601C0C79613969C938E9312976E
:10F8800031961496E831F105F9F68AE229EC31E077
:10F8900013C08EE329E431E00FC084E025E431E0B9
:10F8A0000BC086E12DE231E007C08AE221E031E0C1
:10F8B00003C080E020E030E03983288390E0DF91CE
:10F8C000CF9108952091FB013091FC012617370755
:10F8D00048F06115710539F42091E8002E772093E6
:10F8E000E80001C0B901FC0120E06115710599F142
:10F8F0008EB38823E9F18530E9F18091E80083FD3A
:10F900003BC08091E80082FF06C08091E80082FF42
:10F9100025C080E008958091E80080FFE6CF8091C7
:10F92000F2009091F3006115710551F0803491055A
:10F9300038F421912093F100615071090196F3CFC1
:10F9400021E08034910509F020E08091E8008E7775
:10F950008093E800CACF2111CBCFD7CF8EB38823B5
:10F9600039F0853039F08091E80083FFCECF04C0B4
:10F9700082E0089583E0089581E00895611571059E
:10F9800029F42091E8002B772093E8006115710598
:10F9900021F12EB3222351F1253051F12091E800BD
:10F9A00023FD20C02091E80022FFF3CFFC01CF010E
:10F9B0002091F2003091F300232B19F38091F10094
:10F9C0008193CF01615071096115710581F7D9CF1C
:10F9D0008EB3882359F0853059F08091E80080FF7C
:10F9E000F7CF02C081E0089580E0089582E0089595
:10F9F00083E008958F708093E900EBEEF0E0808162
:10FA000081608083EDEEF0E010826093EC00408333
:10FA10008091EE00881F8827881F08958091F50146
:10FA200087FD05C08091E80080FF0DC010C0809167
:10FA3000E80082FD04C08EB38111F9CF0895809152
:10FA4000E8008B7707C08EB38111ECCF08958091C9
:10FA5000E8008E778093E80008950F931F93CF936B
:10FA6000DF9349D050D0C8EDD0E088818F7788836C
:10FA700088818068888388818F7D8883E7EDF0E0C6
:10FA800080818068808319BC1EBA1092F30100EE59
:10FA900010E0F80180818B7F80838881816088837A
:10FAA00042E360E080E0A6DFE1EEF0E080818E7F5F
:10FAB0008083E2EEF0E080818160808380818860D5
:10FAC0008083F80180818E7F808388818061888334
:10FAD000DF91CF911F910F910895E8EDF0E08081C3
:10FAE0008F7E8083E7EDF0E080818160808381E01C
:10FAF0008093F401B2CFE8EDF0E080818C7F8083C9
:10FB00001092E20008951092DA001092E100089538
:10FB10001F920F920FB60F9211242F933F934F9382
:10FB20005F936F937F938F939F93AF93BF93EF9365
:10FB3000FF938091DA0080FF1BC08091D80080FF86
:10FB400017C08091DA008E7F8093DA008091D9000F
:10FB500080FF0BC088E189BD8AE189BD09B400FE40
:10FB6000FDCF81E08EBB8FD103C019BC1EBA8BD1F3
:10FB70008091E10080FF17C08091E20080FF13C0F8
:10FB80008091E2008E7F8093E2008091E2008061AC
:10FB90008093E2008091D80080628093D80019BCE5
:10FBA00085E08EBB70D18091E10084FF2EC08091F2
:10FBB000E20084FF2AC088E189BD8AE189BD09B4D9
:10FBC00000FEFDCF8091D8008F7D8093D80080917A
:10FBD000E1008F7E8093E1008091E2008F7E809330
:10FBE000E2008091E20081608093E2008091F30165
:10FBF000882311F084E007C08091E30087FF02C0F2
:10FC000083E001C081E08EBB3ED18091E10083FFA3
:10FC100021C08091E20083FF1DC08091E100877FB9
:10FC20008093E10082E08EBB1092F3018091E100AD
:10FC30008E7F8093E1008091E2008E7F8093E200CE
:10FC40008091E20080618093E20042E360E080E026
:10FC5000D1DE19D1FF91EF91BF91AF919F918F911B
:10FC60007F916F915F914F913F912F910F900FBEB8
:10FC70000F901F9018951F93CF93DF9300D0CDB7AF
:10FC8000DEB7E5EFF1E08091F100819381E0ED3F97
:10FC9000F807C9F724DD8091E80083FFE0C0909168
:10FCA000F5018091F601853009F46DC030F48130A2
:10FCB00071F168F0833059F1D2C0883009F4A5C0E1
:10FCC000893009F4B1C0863009F0C9C07DC09038D0
:10FCD00099F0923809F0C3C08091F9018F70873094
:10FCE00008F0BDC08093E9009091EB0095FB992747
:10FCF00090F91092E90001C090E08091E800877FC0
:10FD00008093E8009093F1001092F10089C0292FB0
:10FD10002D7F09F0A4C0923009F0A1C09091F701A5
:10FD2000911128C02091F9012F709FEF920F96300A
:10FD300008F095C02093E9009091EB0090FF1AC065
:10FD4000833021F48091EB00806212C08091EB003F
:10FD500080618093EB0081E090E001C0880F2A95DC
:10FD6000EAF78093EA001092EA008091EB00886045
:10FD70008093EB001092E9008091E800877F8093E8
:10FD8000E8004CDE6CC091116AC01091F7011F773A
:10FD90008091E3008078812B8093E3008091E800DC
:10FDA000877F8093E8003ADE8091E80080FFFCCFF7
:10FDB0008091E30080688093E300112311F083E0D9
:10FDC00001C082E08EBB4BC09058923008F047C013
:10FDD0006091F9017091FA01AE014F5F5F4F809120
:10FDE000F7019091F80105DD0097C9F12091E80035
:10FDF000277F2093E800BC0189819A8163DD80918F
:10FE0000E8008B778093E8002AC0903841F5809114
:10FE1000E800877F8093E8008091F3018093F100F0
:10FE20008091E8008E77ABCF911119C09091F701C6
:10FE30009230A8F48091E800877F8093E800909347
:10FE4000F301ECDD8091F301811104C08091E300A6
:10FE500087FF02C084E001C081E08EBB34DC80916A
:10FE6000E80083FF0AC08091E800877F8093E80064
:10FE70008091EB0080628093EB000F900F90DF91F8
:10FE8000CF911F9108950895CF938EB38823A9F041
:10FE90008091E9008F709091EC0090FF02C090E893
:10FEA00001C090E0C92FC82B1092E9008091E800B2
:10FEB00083FDE1DECF70C093E900CF910895F999F9
:10FEC000FECF92BD81BDF89A992780B50895262F5F
:10FED000F999FECF92BD81BDF89A019700B4021640
:10FEE00039F01FBA20BD0FB6F894FA9AF99A0FBEEE
:06FEF0000895F894FFCF15
:10FEF600012A034400770065006E006700750069FB
:10FF0600006E006F00200042006F006F0074006CEE
:10FF1600006F006100640065007200000016034473
:10FF260000770065006E0067006F0020004C004CF3
:10FF360000430000000403090409023E0002010018
:10FF460080320904000001020200000524001001AD
:10FF5600042402020524060001070582030800FFA7
:10FF660009040100020A000000070504021000054A
:10FF760007058302100005426F6F746C6F6164653C
:10FF8600723A004177616974696E67205043005088
:0CFF9600726F6772616D6D696E6700002C
:08FFF800A2F0000000DFFBDCB9
:040000030000F00009
:00000001FF
