:10F0000059C0000047C2000045C2000043C20000D2
:10F0100041C200003FC200003DC200003BC20000F0
:10F0200039C2000037C20000DEC4000033C2000055
:10F0300031C200002FC200002DC200002BC2000010
:10F0400029C20000BEC200001CC3000023C2000091
:10F0500021C200001FC200001DC200001BC2000030
:10F0600019C2000017C2000015C2000013C2000040
:10F0700011C200000FC200000DC200000BC2000050
:10F0800009C2000007C2000005C2000003C2000060
:10F0900001C20000FFC100004C5546414344438279
:10F0A000961E1201100102000040E0D31B60000117
:10F0B0000102000184B78093B10180910008909112
:10F0C00001089093B3018093B20111241FBECFEFCA
:10F0D000D0E1DEBFCDBF11E0A0E0B1E0ECECFDEF90
:10F0E00002C005900D92A838B107D9F721E0A8E831
:10F0F000B1E001C01D92AF3AB207E1F701D064C69A
:10F1000014BE88E1809360001092600080E88093D4
:10F110006100109261006D98759A8FE99FE00197E8
:10F12000F1F700C000001092010810920008E0E022
:10F13000F0E0859194912091B1010196A9F08FEFB3
:10F1400080938B01822F857061F48091B2018737A3
:10F1500059F021FF07C0659B07C01092010810926B
:10F160000008A0D123FDFDCF20682093B10181E0EC
:10F1700085BF82E085BF88E08093920119D4219AEF
:10F1800086E080936F008BE0809381008AEF90E0AF
:10F190009093890080938800659903C080E69AEE79
:10F1A00002C080E49FE177D1C4E0EC2ED9E05D2E6F
:10F1B000A12CB12C88248394912C8091AF01909143
:10F1C000B001892B09F45AC1E092E9008091E8006E
:10F1D00082FF52C1A2D1C82F853421F484EF91E07F
:10F1E0005AD107C088E88C0F823010F0C43521F462
:10F1F00094D18DE0BBD12BC1C035D9F3CC34C9F348
:10F20000C43711F481E95BC0C13611F489E5F2CF4E
:10F21000C13489F482D18093B7017FD18093B60144
:10F220008091B6019091B701880F991F9093B50115
:10F230008093B401DECFC03711F483E5DBCFC33553
:10F2400021F467E088E990EF0BC0C63521F482E332
:10F250008DD180E3CFCFC33729F463E08FE990EFFE
:10F2600097D1F5C0C53689F4E0E0F0EFFA95F8944F
:10F27000A3E0CA2EC0925700E895789407B600FC28
:10F28000FDCF309799F71CD1B4CFC23711F4F401F8
:10F290000DC0C63411F4F50109C0CE3419F4E3E011
:10F2A000F0E004C0C13531F4E2E0F0E050925700E4
:10F2B0008491A0CFC23631F489E558D181E056D18E
:10F2C00080E098CFC23419F0C73609F0BDC025D10F
:10F2D000782E23D1682E21D122242394863429F03C
:10F2E000212C853419F18FE385CFF1E06F167F066D
:10F2F000C8F54091B6015091B7019A0121503109EA
:10F30000B3016F5F7F4F76956795260F371F2417E0
:10F31000350740F1422753274427452B19F581E053
:10F320002115384708F080E0F82E1AC0E1E06E168B
:10F33000E8E07E06B8F42091B6013091B7012115BE
:10F34000F8E03F0778F4C9010197860D971D8217F1
:10F35000930740F021E08115984008F020E0F22E5C
:10F36000F19401C0F12C0091B4011091B501442435
:10F370004394C23409F0412C322C34203F20A9F0B0
:10F38000F80183E0AFD011C0442051F1211013C027
:10F39000FF2049F0F894C1D0682F8091B601909178
:10F3A000B70100D57894A9D03E01E30121976114FB
:10F3B000710451F735C0B1D0C82EAFD0D82EA601F8
:10F3C000FF2001F1F894E091B401F091B501DD2442
:10F3D000D3940A01D0925700E8951124789412C072
:10F3E000222099F0FF2049F0E091B401F091B5019D
:10F3F00045915491842FC52F02C08FEFCFEFB6D027
:10F400008C2FB4D0E3012297CECFFF2031F0809132
:10F41000B6019091B701BED401C08FEFA7D0C3CF82
:10F42000332041F085E05ED04BD0012B19F43FEF43
:10F4300030938B01F999FECF442011F08DE096D0E6
:10F4400080E49FE128D003C0CB3109F04CCF83E0AA
:10F450008093E900C091E80079D081110DC0C5FF0B
:10F4600008C0E092E9008091E8008B778093E80083
:10F4700003C06CD08823A9F372D49FCEEFE9FFE0DC
:10F480003197F1F700C000008091E0008160809327
:10F49000E00067CEB5CDF8949093B0018093AF01B2
:10F4A00078940895F89410926F001092810021983A
:10F4B00081E085BF15BE8091B101282E0C9400001B
:10F4C000F89481E180935700E895789408958091AD
:10F4D0008A01811106C081E080938A0182E08093D5
:10F4E0006F000895F894F89480935700E895789405
:10F4F000789407B600FCFDCF08958091B6019091F5
:10F50000B70101969093B7018093B601880F991FB8
:10F510009093B5018093B401089584E08093E9004D
:10F520008091E80085FD0EC08091E8008B77809384
:10F53000E8008091E80082FDF3CF8EB38111F9CF0E
:10F5400080E00895C4DF8091F10008958091E80083
:10F550008E778093E8008091E80080FD05C08EB32F
:10F560008111F9CF8FEF089580E00895CF93C82FD0
:10F5700083E08093E9008091E80085FF04C0A7DF65
:10F58000C093F10003C0E2DF8823C9F3CF9108954F
:10F590000F931F93CF93DF931F92CDB7DEB78C01EC
:10F5A000680F601741F0F80184916983DFDF0F5F16
:10F5B0001F4F6981F6CF0F90DF91CF911F910F916F
:10F5C00008951F920F920FB60F9211248F939F935D
:10F5D00080918B01882379F08091AF019091B001E7
:10F5E000892B49F08091AF019091B00101979093E0
:10F5F000B0018093AF01809189018F5F8093890171
:10F6000080918A01882371F080918901883288F184
:10F61000809189018C3358F110928A0186E08093A1
:10F620006F0028C0809189018430D8F01092890140
:10F630008091000190918801890F80938801889FB3
:10F64000C0011124892F992790938B0080938A0001
:10F6500080918801811105C080910001819580937E
:10F66000000180918A0090918B00892B11F42998D8
:10F6700001C0299A9F918F910F900FBE0F901F90FC
:10F6800018951F920F920FB60F92112429980F9080
:10F690000FBE0F901F90189542E061EC82E015D1EB
:10F6A00042E161E883E011D142E160E884E00DC10C
:10F6B0008091A7018132D1F48091A801803271F448
:10F6C0008091E800877F8093E80067E070E08CE835
:10F6D00091E0BFD08091E8008E771BC08232D9F4D0
:10F6E0008091E800877F8093E80003C1813A99F414
:10F6F0008091A801813279F48091E800877F80931E
:10F70000E80067E070E08CE891E047D08091E80085
:10F710008B778093E8000895FC01208121110AC0B5
:10F72000FB012491DC01FB01215020F084918D9399
:10F730003196FACF0895CF93DF93EA01913051F4D7
:10F7400062EA70EF83E991E0E7DF8091930123E9BA
:10F7500031E01DC0923081F0933021F080E020E054
:10F7600030E015C0882361F0813071F08230B1F74C
:10F770008AE221E031E00BC08EE329E431E007C0EA
:10F7800084E025E431E003C086E12DE231E03983F5
:10F79000288390E0DF91CF9108952091AD013091C1
:10F7A000AE012617370748F06115710539F420912D
:10F7B000E8002E772093E80001C0B901FC0120E0A9
:10F7C0006115710599F18EB38823E9F18530E9F16E
:10F7D0008091E80083FD3BC08091E80082FF06C075
:10F7E0008091E80082FF25C080E008958091E800C4
:10F7F00080FFE6CF8091F2009091F30061157105D2
:10F8000051F08034910538F421912093F10061503A
:10F8100071090196F3CF21E08034910509F020E0D1
:10F820008091E8008E778093E800CACF2111CBCF7A
:10F83000D7CF8EB3882339F0853039F08091E80036
:10F8400083FFCECF04C082E0089583E0089581E075
:10F8500008956115710529F42091E8002B77209314
:10F86000E8006115710521F12EB3222351F12530F5
:10F8700051F12091E80023FD20C02091E80022FFF3
:10F88000F3CFFC01CF012091F2003091F300232B44
:10F8900019F38091F1008193CF01615071096115D5
:10F8A000710581F7D9CF8EB3882359F0853059F08F
:10F8B0008091E80080FFF7CF02C081E0089580E0EA
:10F8C000089582E0089583E008958F708093E900A1
:10F8D000EBEEF0E0808181608083EDEEF0E010825D
:10F8E0006093EC0040838091EE00881F8827881F7A
:10F8F00008958091A70187FD05C08091E80080FFF1
:10F900000DC010C08091E80082FD04C08EB381114B
:10F91000F9CF08958091E8008B7707C08EB38111ED
:10F92000ECCF08958091E8008E778093E8000895E9
:10F930000F931F93CF93DF9349D050D0C8EDD0E001
:10F9400088818F77888388818068888388818F7D8C
:10F950008883E7EDF0E080818068808319BC1EBA5F
:10F960001092A50100EE10E0F80180818B7F80836A
:10F9700088818160888342E360E080E0A6DFE1EE79
:10F98000F0E080818E7F8083E2EEF0E08081816014
:10F990008083808188608083F80180818E7F80836E
:10F9A000888180618883DF91CF911F910F910895A5
:10F9B000E8EDF0E080818F7E8083E7EDF0E08081EC
:10F9C0008160808381E08093A601B2CFE8EDF0E012
:10F9D00080818C7F80831092E20008951092DA007B
:10F9E0001092E10008951F920F920FB60F9211240A
:10F9F0002F933F934F935F936F937F938F939F9337
:10FA0000AF93BF93EF93FF938091DA0080FF1BC009
:10FA10008091D80080FF17C08091DA008E7F80939C
:10FA2000DA008091D90080FF0BC088E189BD8AE1AE
:10FA300089BD09B400FEFDCF81E08EBB8FD103C02C
:10FA400019BC1EBA8BD18091E10080FF17C0809154
:10FA5000E20080FF13C08091E2008E7F8093E2007D
:10FA60008091E20080618093E2008091D800806202
:10FA70008093D80019BC85E08EBB70D18091E100E5
:10FA800084FF2EC08091E20084FF2AC088E189BDF6
:10FA90008AE189BD09B400FEFDCF8091D8008F7D39
:10FAA0008093D8008091E1008F7E8093E100809167
:10FAB000E2008F7E8093E2008091E200816080937B
:10FAC000E2008091A501882311F084E007C08091B5
:10FAD000E30087FF02C083E001C081E08EBB3ED11E
:10FAE0008091E10083FF21C08091E20083FF1DC06F
:10FAF0008091E100877F8093E10082E08EBB1092CD
:10FB0000A5018091E1008E7F8093E1008091E20069
:10FB10008E7F8093E2008091E20080618093E2001A
:10FB200042E360E080E0D1DE19D1FF91EF91BF9117
:10FB3000AF919F918F917F916F915F914F913F9185
:10FB40002F910F900FBE0F901F9018951F93CF937A
:10FB5000DF9300D0CDB7DEB7E7EAF1E08091F100A6
:10FB6000819381E0EF3AF807C9F7A2DD8091E800C0
:10FB700083FFE0C09091A7018091A801853009F42E
:10FB80006DC030F4813071F168F0833059F1D2C02A
:10FB9000883009F4A5C0893009F4B1C0863009F075
:10FBA000C9C07DC0903899F0923809F0C3C08091E7
:10FBB000AB018F70873008F0BDC08093E900909151
:10FBC000EB0095FB992790F91092E90001C090E0B5
:10FBD0008091E800877F8093E8009093F100109275
:10FBE000F10089C0292F2D7F09F0A4C0923009F0BF
:10FBF000A1C09091A901911128C02091AB012F7053
:10FC00009FEF920F963008F095C02093E9009091F5
:10FC1000EB0090FF1AC0833021F48091EB008062EA
:10FC200012C08091EB0080618093EB0081E090E056
:10FC300001C0880F2A95EAF78093EA001092EA0043
:10FC40008091EB0088608093EB001092E900809136
:10FC5000E800877F8093E8004CDE6CC091116AC099
:10FC60001091A9011F778091E3008078812B809308
:10FC7000E3008091E800877F8093E8003ADE80917E
:10FC8000E80080FFFCCF8091E30080688093E30070
:10FC9000112311F083E001C082E08EBB4BC090586D
:10FCA000923008F047C06091AB017091AC01AE0199
:10FCB0004F5F5F4F8091A9019091AA013CDD0097B1
:10FCC000C9F12091E800277F2093E800BC018981D9
:10FCD0009A8163DD8091E8008B778093E8002AC0E9
:10FCE000903841F58091E800877F8093E80080910B
:10FCF000A5018093F1008091E8008E77ABCF911140
:10FD000019C09091A9019230A8F48091E800877FF2
:10FD10008093E8009093A501ECDD8091A50181110D
:10FD200004C08091E30087FF02C084E001C081E04D
:10FD30008EBBB2DC8091E80083FF0AC08091E800AE
:10FD4000877F8093E8008091EB0080628093EB00D6
:10FD50000F900F90DF91CF911F9108950895CF9349
:10FD60008EB38823A9F08091E9008F709091EC0008
:10FD700090FF02C090E801C090E0C92FC82B1092FC
:10FD8000E9008091E80083FDE1DECF70C093E900D7
:10FD9000CF910895F999FECF92BD81BDF89A992728
:10FDA00080B50895262FF999FECF92BD81BDF89AAE
:10FDB000019700B4021639F01FBA20BD0FB6F894AF
:0CFDC000FA9AF99A0FBE0895F894FFCF4C
:10FDCC00012A034400770065006E00670075006926
:10FDDC00006E006F00200042006F006F0074006C1A
:10FDEC00006F00610064006500720000001603449F
:10FDFC0000770065006E0067006F0020004C004C1F
:10FE0C0000430000000403090409023E0002010043
:10FE1C0080320904000001020201000524001001D7
:10FE2C00042402020524060001070582030800FFD2
:10FE3C0009040100020A0000000705040210000575
:08FE4C00070583021000050008
:08FFF800A2F0000000DFFBDCB9
:040000030000F00009
:00000001FF
