:020000040000FA
:0600000036EF09F01200CA
:020006000000F8
:0800080044EC09F025EC04F0C2
:100010005EEC02F0640E006E120E016E026A00C009
:10002000E6FF01C0E6FF02C0E6FF56EC03F0E55232
:10003000E552E552600E006E120E016E026A00C0BB
:10004000E6FF01C0E6FF02C0E6FF56EC03F0E55212
:10005000E552E552020EE66EE66AA9EC04F0E552BE
:10006000E552006E016A013404E200508C08000E73
:10007000015401E2EFD75EEC02F0640E006E120E46
:10008000016E026A00C0E6FF01C0E6FF02C0E6FFA3
:1000900056EC03F0E552E552E5525C0E006E120E8E
:1000A000016E026A00C0E6FF01C0E6FF02C0E6FF83
:1000B00056EC03F0E552E552E552020EE66E010EF3
:1000C000E66EA9EC04F0E552E552006E016A0134D7
:1000D00004E200508C08000E015401E2EED75EEC01
:1000E00002F0640E006E120E016E026A00C0E6FF9E
:1000F00001C0E6FF02C0E6FF56EC03F0E552E55210
:10010000E552580E006E120E016E026A00C0E6FF44
:1001100001C0E6FF02C0E6FF56EC03F0E552E552EF
:10012000E552020EE66EE66EA9EC04F0E552E552E9
:10013000006E016A013404E200508C08000E015484
:1001400001E2EFD75EEC02F0640E006E120E016E5B
:10015000026A00C0E6FF01C0E6FF02C0E6FF56ECFF
:1001600003F0E552E552E552540E006E120E016E98
:10017000026A00C0E6FF01C0E6FF02C0E6FF56ECDF
:1001800003F0E552E552E552020EE66E030EE66E0E
:10019000A9EC04F0E552E552006E016A013404E274
:1001A00000508C08000E015401E2EED75EEC02F024
:1001B000640E006E120E016E026A00C0E6FF01C0FE
:1001C000E6FF02C0E6FF56EC03F0E552E552E552C9
:1001D000500E006E120E016E026A00C0E6FF01C0F2
:1001E000E6FF02C0E6FF56EC03F0E552E552E552A9
:1001F000020EE66E040EE66EA9EC04F0E552E5523E
:10020000006E016A013404E200508C08000E0154B3
:1002100001E2EED75EEC02F0640E006E120E016E8B
:10022000026A00C0E6FF01C0E6FF02C0E6FF56EC2E
:1002300003F0E552E552E5524C0E006E120E016ECF
:10024000026A00C0E6FF01C0E6FF02C0E6FF56EC0E
:1002500003F0E552E552E552020EE66E050EE66E3B
:10026000A9EC04F0E552E552006E016A013404E2A3
:1002700000508C08000E015401E2EED75EEC02F053
:10028000640E006E120E016E026A00C0E6FF01C02D
:10029000E6FF02C0E6FF56EC03F0E552E552E552F8
:1002A000480E006E120E016E026A00C0E6FF01C029
:1002B000E6FF02C0E6FF56EC03F0E552E552E552D8
:1002C000020EE66E060EE66EA9EC04F0E552E5526B
:1002D000006E016A013404E200508C08000E0154E3
:1002E00001E2EED75EEC02F0640E006E120E016EBB
:1002F000026A00C0E6FF01C0E6FF02C0E6FF56EC5E
:1003000003F0E552E552E552450E006E120E016E05
:10031000026A00C0E6FF01C0E6FF02C0E6FF56EC3D
:1003200003F0E552E552E552020EE66E070EE66E68
:10033000A9EC04F0E552E552006E016AD890015034
:1003400004E6FD0E005C000E015801E2EDD75EEC04
:1003500002F0640E006E120E016E026A00C0E6FF2B
:1003600001C0E6FF02C0E6FF56EC03F0E552E5529D
:10037000E552420E006E120E016E026A00C0E6FFE8
:1003800001C0E6FF02C0E6FF56EC03F0E552E5527D
:10039000E552020EE66E080EE66EA9EC04F0E55298
:1003A000E552006E016AD890015004E6FD0E005C33
:1003B000000E015801E2EDD7010EE66EE66A60EC30
:1003C00004F0E552E552010EE66EE66E60EC04F0D4
:1003D000E552E5525EEC02F0640E006E120E016E04
:1003E000026A00C0E6FF01C0E6FF02C0E6FF56EC6D
:1003F00003F0E552E552E5523E0E006E120E016E1C
:10040000026A00C0E6FF01C0E6FF02C0E6FF56EC4C
:1004100003F0E552E552E552010EE66E43EC04F0BE
:10042000E552020EE66E090EE66EA9EC04F0E55206
:10043000E552836E320EE66EE66A8FEC07F0E55207
:06044000E552EFD71200A7
:0A04460094900A0EC16E050EE66EDA
:10045000E66A8FEC07F0E552E552836A956896905C
:10046000969296948490849284940F0EE66EE66A37
:100470008FEC07F0E552E552956A300EE66E2FD804
:10048000E552300EE66E2BD8E552300EE66E27D8D8
:10049000E552380EE66E23D8E552060EE66E1FD8FA
:1004A000E552180EE66E1BD8E5520C0EE66E17D814
:1004B000E55200016B6B6BC06AF01200010EE66E34
:1004C0000ED8E552020EE66EE66A8FEC07F0E552B2
:1004D000E552E66AE66A34D8E552E5521200D9CF11
:1004E000E6FFDACFE6FFE1CFD9FFE2CFDAFFE6524F
:1004F000E6528350DF6E8492849084848350DF6E52
:10050000FD0EDB50836E8494DF50836EDE522D0E21
:10051000DD6E010EDB520CE0DB06010EDB5208E063
:10052000000000000000000000000000DB06F5D71E
:10053000E552E552E552E5CFDAFFE7CFD9FF1200E9
:10054000D9CFE6FFDACFE6FFE1CFD9FFE2CFDAFF7E
:10055000E652E652FD0EDB50010805E2010EF36E95
:10056000FD0EF3CFDBFFFC0EDB500F0805E20F0E94
:10057000F36EFC0EF3CFDBFFFD0EDBCF6AF0FC0E5B
:10058000DBCF6BF0FD0EDB0403E1C00EDF6E02D0AB
:10059000800EDF6EFC0EDB98DB9ADB9CDB9EFC0E94
:1005A000DB50DF12DFCFE6FF9ADFE552DE522D0E81
:1005B000DD6E010EDB520CE0DB06010EDB5208E0C3
:1005C000000000000000000000000000DB06F5D77E
:1005D000E552E552E552E5CFDAFFE7CFD9FF120049
:1005E000D9CFE6FFDACFE6FFE1CFD9FFE2CFDAFFDE
:1005F000E652E652E6528350DE6EDD6A00016B5130
:100600000F080BE200016A5102E058DF06D0E66AEB
:10061000010EE66E95DFE552E55284928480848473
:100620008350DE6EDD6AFD0EDB50836E8494DF50F6
:10063000836E2D0EF36E020EF3CFDBFF020EDB5244
:100640000CE0DB06020EDB5208E0000000000000B8
:10065000000000000000DB06F5D700016B2BE5521F
:10066000E552E552E552E5CFDAFFE7CFD9FF1200B8
:10067000D9CFE6FFDACFE6FFE1CFD9FFE2CFDAFF4D
:10068000E652FB0EDBCFE6FFFC0EDBCFE6FF58DFCA
:10069000E552E552FD0EDBCFE6FFA2DFE552E55263
:1006A000E552E5CFDAFFE7CFD9FF1200D9CFE6FF59
:1006B000DACFE6FFE1CFD9FFE2CFDAFFFB0EDBCFE7
:1006C000F6FFFC0EDBCFF7FFFD0EDBCFF8FF0800D7
:1006D000F55016E0D950FB0FE96EFF0EDA20EA6EF6
:1006E000EFCFF6FFEE2AEFCFF7FF000EEE22EFCFAF
:1006F000F8FFEE220800F550E66E72DFE552DED715
:10070000E552E5CFDAFFE7CFD9FF1200D9CFE6FFF8
:10071000DACFE6FFE1CFD9FFE2CFDAFFFA0EDBCF87
:10072000E6FFFB0EDBCFE6FF0BDFE552E552FC0EEA
:10073000DBCF00F0FD0EDBCF01F0026A00C0E6FF68
:1007400001C0E6FF02C0E6FFB1DFE552E552E55227
:10075000E552E5CFDAFFE7CFD9FF1200D9CFE6FFA8
:10076000DACFE6FFE1CFD9FFE2CFDAFFFC0EDBCF35
:10077000E9FFFD0EDBCFEAFFEF500EE0FC0EDBCF12
:10078000E9FFDB2AFD0EDBCFEAFF01E3DB2AEF50B6
:10079000E66E26DFE552EAD7E552E5CFDAFFE7CF8E
:1007A000D9FF1200D9CFE6FFDACFE6FFE1CFD9FFBC
:1007B000E2CFDAFF070EE12402E3E168E652E16EE0
:1007C000D9CFE6FFDACFE6FFFC0EDBCFE6FFFD0E6A
:1007D000DBCFE6FF36EC08F0E552E552E552E55294
:1007E000060EDB6AD9CFE6FFDACFE6FFB7DFE552C8
:1007F000E552070EE15C02E2E16AE552E16EE55284
:10080000E5CFDAFFE7CFD9FF1200D9CFE6FFDACF85
:10081000E6FFE1CFD9FFE2CFDAFFFA0EDBCFE6FF4A
:10082000FB0EDBCFE6FF8CDEE552E552FC0EDBCFA4
:10083000E6FFFD0EDBCFE6FFB5DFE552E552E55200
:0A084000E5CFDAFFE7CFD9FF120081
:06084A00D9CFE6FFDACF72
:10085000E6FFE1CFD9FFE2CFDAFFE652E652E652F9
:100860000FEC07F0820EE66ECA0EE66E7CEC06F028
:10087000E552E552E552E552E552E552E5CFDAFFA1
:10088000E7CFD9FF1200D9CFE6FFDACFE6FFE1CFFD
:10089000D9FFE2CFDAFFE65241D9DF6EFD0EDB046D
:1008A00003E1F70EDF1402D0080EDF10E66E1FD949
:1008B000E552E552E552E5CFDAFFE7CFD9FF120066
:1008C000D9CFE6FFDACFE6FFE1CFD9FFE2CFDAFFFB
:1008D000E652E65223D9DF6EDE52320EDD6E010E95
:1008E000DB520CE0DB06010EDB5208E000000000EA
:1008F0000000000000000000DB06F5D7FD0EDB5015
:100900000FE1FC0EDB0406E1200EDF10E66EEFD8EF
:10091000E55205D0DF0EDF14E66EE9D8E55211D0BE
:10092000FD0EDB040EE1FC0EDB0406E1400EDF10E1
:10093000E66EDDD8E55205D0BF0EDF14E66ED7D8DF
:10094000E552E552E552E552E5CFDAFFE7CFD9FFB0
:100950001200D9CFE6FFDACFE6FFE1CFD9FFE2CF31
:10096000DAFFE652E652E652E652DF6A010EDB6A31
:10097000FD0EDBCFE6FF73D8E5529DD8DF6EFC0E8F
:10098000DB040CE0FD0EDB50070808E0FD0EDB5039
:10099000080804E0FD0EDB50090802E1DF5051D0E9
:1009A000FD0EDB0404E0FD0EDB50020803E1020E45
:1009B000F36E11D0FD0EDB50040808E0FD0EDB5095
:1009C000050804E0FD0EDB50060802E1040E01D02C
:1009D000010EF36E020EF3CFDBFFA0D8E76E030E1D
:1009E000E7CFDBFF020EDBCFE6FF030EDB50E55265
:1009F000E710E66E7CD8E552FD0EDBCFE6FF2FD880
:100A0000E55259D8E76E010EE7CFDBFF030EDBCFCF
:100A1000E6FF6DD8E552FC0EDB50020803E1010E43
:100A2000DB500FD0010EDBCF00F0DF50D880005438
:100A300005E2010EDB50D880DF5403D0010EDB50FD
:100A4000DF5C006E040EE15C02E2E16AE552E16EF9
:100A50000050E552E5CFDAFFE7CFD9FF1200D9CF3A
:100A6000E6FFDACFE6FFE1CFD9FFE2CFDAFFE652C9
:100A7000FD0EDB50E8246109E66ECA0EE66E7CECE2
:100A800006F0E552E552C80EDF6E000EDB520CE0B8
:100A9000DB06000EDB5208E0000000000000000052
:100AA00000000000DB06F5D7E552E552E5CFDAFF9E
:100AB000E7CFD9FF1200D9CFE6FFDACFE6FFE1CFCB
:100AC000D9FFE2CFDAFFE652E652CA0EE66EB7EC85
:100AD00006F0E552F3CFDEFFF4CFDDFFDF50E55245
:100AE000E552E552E5CFDAFFE7CFD9FF1200D9CFC3
:100AF000E6FFDACFE6FFE1CFD9FFE2CFDAFFFD0E66
:100B0000DBCFE6FFB00EE66E7CEC06F0E552E55278
:100B1000E552E5CFDAFFE7CFD9FF1200D9CFE6FFE4
:100B2000DACFE6FFE1CFD9FFE2CFDAFFE652E652B5
:100B3000B00EE66EB7EC06F0E552F3CFDEFFF4CF71
:100B4000DDFFDF50E552E552E552E5CFDAFFE7CFB2
:040B5000D9FF1200B7
:0C0B5400D9CFE6FFDACFE6FFE1CFD9FFF2
:100B6000E2CFDAFFE652E652C580DE6ADD6AC550A2
:100B7000010B0DE0DFCF00F0DF2A010EDBCF01F02B
:100B800001E3DB2AFF0E005CEF0E0158F0E3C59A8B
:100B90009E96FC0EDBCFE6FFFD0EDB50E552E71024
:100BA000C96EDE6ADD6A9E50080B0DE1DFCF00F0F2
:100BB000DF2A010EDBCF01F001E3DB2AFF0E005C30
:100BC000EF0E0158F0E39E96E552E552E552E5CF6F
:100BD000DAFFE7CFD9FF1200D9CFE6FFDACFE6FF81
:100BE000E1CFD9FFE2CFDAFFE652E652DE6ADD6AF4
:100BF000FD0EDB50C96E9E50080B0DE1DFCF00F0FB
:100C0000DF2A010EDBCF01F001E3DB2AFF0E005CDF
:100C1000EF0E0158F0E39E96E552E552E552E5CF1E
:100C2000DAFFE7CFD9FF1200D9CFE6FFDACFE6FF30
:100C3000E1CFD9FFE2CFDAFFE652E652E652DE6AB2
:100C4000DD6AC586C750010B0DE1DFCF00F0DF2A5A
:100C5000010EDBCF01F001E3DB2AFF0E005CEF0E9B
:100C60000158F0E3020EC9CFDBFFFD0EDB5013E0AD
:100C7000C588DE6ADD6AC550100B0DE0DFCF00F0DD
:100C8000DF2A010EDBCF01F001E3DB2AFF0E005C5F
:100C9000EF0E0158F0E3020EDB50E552E552E5524B
:100CA000E552E5CFDAFFE7CFD9FF1200D9CFE6FF53
:100CB000DACFE6FFE1CFD9FFE2CFDAFFE652E65224
:100CC000DE6ADD6AC58AC584C550040B0DE0DFCF3E
:100CD00000F0DF2A010EDBCF01F001E3DB2AFF0E7B
:100CE000005CEF0E0158F0E3E552E552E552E5CF26
:100CF000DAFFE7CFD9FF1200D9CFE6FFDACFE6FF60
:100D0000E1CFD9FFE2CFDAFFE66AFD0EDBCFE6FFE7
:100D100021DFE552E552FC0EDBCFE6FF5DDFE55259
:100D2000C5DFE552E5CFDAFFE7CFD9FF1200D9CF13
:100D3000E6FFDACFE6FFE1CFD9FFE2CFDAFFE66ADE
:100D4000FD0EDBCFE6FF06DFE552E552FC0EDBCF02
:100D5000E6FF42DFE552FB0EDBCFE6FF3DDFE5526B
:100D6000A5DFE552E5CFDAFFE7CFD9FF1200D9CFF3
:100D7000E6FFDACFE6FFE1CFD9FFE2CFDAFFE652B6
:100D8000010EE66EFD0EDBCFE6FFE4DEE552E55236
:100D9000E66A4ADFE552DF6EDF50006E016AF36EED
:100DA00001C0F4FFE552E552E5CFDAFFE7CFD9FF06
:100DB0001200D9CFE6FFDACFE6FFE1CFD9FFE2CFCD
:100DC000DAFFE652E652010EE66EFD0EDBCFE6FFDD
:100DD000C1DEE552E552010EE66E26DFE552DF6E1A
:100DE000E66A22DFE552E76E010EE7CFDBFF5EDF4A
:100DF000DFCF02F002C003F0026A010EDB500001F7
:100E00000210006E03C001F0F36E03C0F4FFE55260
:100E1000E552E552E5CFDAFFE7CFD9FF1200D9CF8F
:100E2000E6FFDACFE6FFE1CFD9FFE2CFDAFFE65205
:100E300093809382C78E770EC86E280EC66EC56AE1
:100E4000C950DF6EE552E552E5CFDAFFE7CFD9FFB3
:020E500012008E
:0E0E5200D9CFE6FFDACFE6FFE1CFD9FFE2CF3E
:100E6000DAFFE652E652E652E652D950FC0FE96E3E
:100E7000FF0EDA20EA6EEE50ED1045E05F0EF36EE5
:100E8000020EF3CFDBFF020EDB520CE0DB06020E9C
:100E9000DB5208E00000000000000000000000003D
:100EA000DB06F5D7010EDE6EDD6ADECF00F0DDCFAA
:100EB00001F0FC0EDBCF02F0FD0EDBCF03F00150A2
:100EC0000318E8AE02D0033404D00250005C035093
:100ED000015819E2620EF36E030EF3CFDBFF030E2F
:100EE000DB520CE0DB06030EDB5208E000000000E2
:100EF0000000000000000000DB06F5D7DF2A010E2D
:100F000001E3DB2AD2D7040EE15C02E2E16AE5529A
:100F1000E16EE552E5CFDAFFE7CFD9FF1200D9CF76
:100F2000E6FFDACFE6FFE1CFD9FFE2CFDAFFE65204
:100F3000E652E652E652D950FC0FE96EFF0EDA2077
:100F4000EA6EEE50ED1051E05E0EF36E020EF3CF3E
:100F5000DBFF020EDB520CE0DB06020EDB5208E088
:100F6000000000000000000000000000DB06F5D7D4
:100F7000090EE66EE66A6DDFE552E552010EDE6EA1
:100F8000DD6ADECF00F0DDCF01F0FC0EDBCF02F03A
:100F9000FD0EDBCF03F001500318E8AE02D003349E
:100FA00004D00250005C035001581FE2600EF36E43
:100FB000030EF3CFDBFF030EDB520CE0DB06030E68
:100FC000DB5208E00000000000000000000000000C
:100FD000DB06F5D7090EE66EE66A3BDFE552E55221
:100FE000DF2A010E01E3DB2ACCD7040EE15C02E22A
:100FF000E16AE552E16EE552E5CFDAFFE7CFD9FFCE
:101000001200D9CFE6FFDACFE6FFE1CFD9FFE2CF7A
:10101000DAFFE652E652DE6ADD6ADECF00F0DDCFAF
:1010200001F0FC0EDBCF02F0FD0EDBCF03F0015030
:101030000318E8AE02D0033404D00250005C035021
:1010400001580CE2E80EE66E030EE66E68DFE5522C
:10105000E552DF2A010EE1E3DB2ADFD7E552E55254
:0C106000E552E5CFDAFFE7CFD9FF120020
:04106C00D9CFE6FFF3
:10107000DACFE6FFFA0EE3CFD9FFFB0EE3CFDAFFBC
:10108000FD0EE35209E72D0EDE6EFC0EE31EE32A91
:10109000FD0ED8B4E306E31EE652E652E652FD0E1C
:1010A000E124E76EFF0EE220E46EE652F70EE3CF96
:1010B000E6FFF70EE3CFE6FFA6EC08F0F90EE12419
:1010C000E96EFF0EE220EA6E96EC08F00AE193EC7E
:1010D00008F009E196EC08F008E193EC08F007E16C
:1010E00008D0A1EC08F09CEC08F0A1EC08F09CEC16
:1010F00008F0A1EC08F0DE6AF90EE126FF0EE2220C
:10110000FF0EE3CFDAFFE552FF0EE3CFD9FFE55242
:10111000FC0EE124E96EFF0EE220EA6EEECFF3FF53
:10112000EFCFF4FF1200EF380F0B1200EF500F0B50
:1011300002E1EE52D8841200EF380F0B300FDE6E52
:101140001200EE500F0B300FDE6E1200FC0EE3CFDC
:10115000E9FFFD0EE3CFEAFF100EE66EEE6AEE6ADF
:10116000EF6AD890FD0EE336FE0EE336ED36ED362F
:10117000EF36FF0EE30609E0C7EC08F0EE52C7ECCD
:1011800008F0EE52C7EC08F0EDD7E56E1200030E42
:10119000EF24E8B6EF6E300EEF24E8BEEF6E000CE1
:1011A000060EF66E000EF76E000EF86E00010900D6
:1011B000F550656F0900F550666F03E1656701D072
:1011C0003DD00900F550606F0900F550616F0900CE
:1011D000F550626F09000900F550E96E0900F550FD
:1011E000EA6E090009000900F550636F0900F55027
:1011F000646F09000900F6CF67F0F7CF68F0F8CF09
:1012000069F060C0F6FF61C0F7FF62C0F8FF00013F
:10121000635302E1645307E00900F550EE6E630783
:10122000F8E26407F9D767C0F6FF68C0F7FF69C046
:0E123000F8FF00016507000E665BBFD71200D5
:02123E004F530C
:1012400038004432004431004F5337004F533600CA
:101250004F5335004F5334004F5333004F53320038
:0B1260004F533100546573743A2000B6
:04126C0013EE00F08D
:1012700023EE00F0F86A059CD0EC08F058EC09F079
:0812800004EC00F0FBD71200A2
:0812880023EC02F05EEC02F021
:1012900093849388938A93809382F19E956A836A5C
:0212A00012003A
:0E12A20000EE00F00F0EEE6AEA62FDD71200B9
:0212B00012002A
:020000040030CA
:0100000024DB
:010001000EF0
:0100020039C4
:010003001EDE
:010005008179
:010006008178
:010008000FE8
:01000900C036
:01000A000FE6
:01000B00E014
:01000C000FE4
:01000D0040B2
:00000001FF
